:100000000C9438050C94B72F0C9457050C94570595
:100010000C9457050C9457050C9457050C945705F0
:100020000C9457050C94312F0C9457050C945705DC
:100030000C9457050C9457050C9457050C94AC2E52
:100040000C94AC2E0C9457050C9457050C94570542
:100050000C9457050C9457050C9457050C945705B0
:100060000C9457050C9457050C9457050C945705A0
:100070000C9457050C9457050C9457050C94570590
:100080000C9457050C9457050C945705661E6C1E6E
:100090006F1E721E751E781E7E1E7B1E811E841EA4
:1000A000871E901E931E961E991E8D1E631E691E2E
:1000B0009C1E9F1E8A1E601E08000000BE922449DE
:1000C000123EABAAAA2ABECDCCCC4C3E000000808A
:1000D000BEABAAAAAA3E00000000BF000000803FFD
:1000E0000000000000084178D3BB4387D1133D19BD
:1000F0000E3CC3BD4282AD2B3E68EC8276BED98FEA
:10010000E1A93E4C80EFFFBE01C4FF7F3F0000002D
:10011000000007634236B79BD8A71A39685618AE55
:10012000BAAB558C1D3CB7CC5763BD6DEDFD753E2C
:10013000F6177231BF000000803F0D0A4E616E6FEE
:100140002D524B205461736B205374617469737426
:100150006963733A0D0A000D0A000D0A2020204F32
:10016000766572666C6F77204572726F7220537479
:10017000617475733A20000D0A2020204B65726E61
:10018000656C2056696F6C6174696F6E733A2000FC
:100190000D0A202020507265656D7074696F6E7352
:1001A0003A20000D0A202020537761702D696E736C
:1001B0003A20000D0A20202054696D65205B4D69AE
:1001C0006E2C4C6173742C4D61785D3A20000D0AE1
:1001D000202020546F74616C204350553A20000D4C
:1001E0000A20202049646C65205461736B204465AB
:1001F000657020536C6565702054696D653A200008
:100200000D0A202020546F74616C2053797374653B
:100210006D20557074696D653A2000205461736BD0
:100220002049443A2000554E4B4F574E00457874B4
:1002300065726E616C2052657365740042726F77EF
:100240006E204F757420446574656374004661695F
:100250006C656420746F20637265617465205365FA
:100260006D6170686F7265004661696C65642074C9
:100270006F20637265617465205369676E616C00FD
:100280004B65726E656C2066756E6374696F6E2067
:100290006E6F7420696D706C656D656E7465640059
:1002A000446576696365204472697665722045729B
:1002B000726F72005761746368646F672052657370
:1002C00074617274005357205761746368646F6778
:1002D00020526573746172740054696D6572204FA9
:1002E000766572666C6F7700556E68616E646C65DA
:1002F0006420496E746572727570742056656374FB
:100300006F72004C6F7720566F6C746167650045A3
:1003100078747261205461736B20737461727465B8
:10032000642C206973206E726B5F6366672E682091
:100330006F6B3F0049646C65206F72204B65726E75
:10034000656C20537461636B204F766572666C6FC9
:100350007700556E657870656374656420526573C7
:1003600074617274004475706C69636174656420B3
:100370005461736B204944005363686564756C6510
:1003800072204D69737365642057616B65757000E9
:100390005461736B20526573657276652056696F80
:1003A0006C61746564005265736572766520457290
:1003B000726F7220696E205363686564756C657234
:1003C00000496E76616C696420537461636B2050E0
:1003D0006F696E746572005461736B20537461634E
:1003E0006B204F766572666C6F7700537461636B38
:1003F00020776173206E6F7420646566696E656432
:10040000206173206C6172676520656E6F75676827
:1004100021005461736B20706572696F6420746F82
:100420006F206C617267652E20506572696F642061
:100430006D757374206265206C65737320746861D8
:100440006E203631207365636F6E64732E00293A17
:1004500020002A4E524B204552524F5228000D0A7E
:10046000535441434B2044554D500D0A0008082A6F
:100470001C08081C2A080840444A514040514A447C
:100480004014741C171410207F01010000000000AC
:100490000000000000081C2C08087F010101010178
:1004A0000101017F7F40404040404040407F0000CC
:1004B000000000000000000000000000007911278B
:1004C00011790000000000000000000000000000A2
:1004D000007F01010103605048447E3E4949493E86
:1004E000700C030C706349494963017F017F01630C
:1004F0005549414106017E010608557F55080F10F8
:100500007F100F4E7101714E384444384400000092
:10051000000000005F00000300030000143E143ED2
:100520001426497F493262152A54233649562050F1
:100530000003000000001C2241000041221C0000BA
:10054000140E140008083E080800600000000808A7
:10055000080800004000000060100804033E41410C
:10056000413E04027F00006251494542224149490F
:10057000360C0B087E084F494949313E49494932FA
:1005800061110905033649494936264949493E0062
:10059000220000000061000000081414222214143C
:1005A000141414222214140806015905023E415D58
:1005B000555E7E0909097E7F494949363E414141E0
:1005C000227F4141413E7F494949417F0909090153
:1005D0003E414949327F0808087F00007F00002023
:1005E0004040403F7F081422417F404040007F024E
:1005F00004027F7F021C207F3E4141413E7F09096A
:1006000009063E4151617E7F09192946264949491B
:100610003201017F01013F4040403F1F2040201F29
:100620003F4030403F6314081463030478040361BF
:10063000514945437F4100000000000000000000D8
:1006400000417F060106000040404040400102009A
:10065000000020545454787F48484830384444447B
:1006600028384444447F3854545418087E090901FA
:100670000C5252523E7F04040478047D40402020F6
:100680004040443D007F102844203E5149467C04B0
:100690007C04787C0804047838444444387E121280
:1006A000120C0C1212127E0478040408485454549C
:1006B00024043F4444403C40403C401C2040201C1B
:1006C0003C4030403C4428102844264848483E449A
:1006D00064544C4400083E410000007F000000418B
:1006E0003E080000000000000000000000000000C4
:1006F00000000000000000000000000020483E094B
:10070000020000000000000000000004047F040458
:1007100000000000000000000000000000000000D9
:1007200000000000000000000000000000000000C9
:1007300000000000000000000000000000000000B9
:1007400000000000000000000000000002040102A0
:100750000000000000000018180000000000000069
:100760000000000000000000000000000000000089
:100770000000000000000000000000000000000079
:100780000000000000000000000000000000000069
:10079000000000007900000000000000487E494988
:1007A00042000000000015167C1615000000000035
:1007B0000A5555552800010001003E635D6B3E005F
:1007C0000000000008142A142200000000000000AD
:1007D0000000003E41754B3E010101010100020590
:1007E0000200000000000000000000000000000007
:1007F0000000000000000000000000060F7F017FE5
:1008000000000000000000000000000000000007E1
:100810000507000022142A14080F003C20780F005E
:1008200048645800000000003048454020000000A7
:100830000000000000000000000000007229292ACA
:10084000717825242578702A252A707E097F4949E8
:100850000E5151711100000000007C5456554400A7
:100860000000000000000000000000000000000088
:100870000000000000000000000000000000000078
:1008800000007A0911227900000000000000000039
:100890000000000000003A454546393D4242423DD5
:1008A00022140814225C322A261D000000000000D9
:1008B0000000000000000000003C4140413C0000FE
:1008C000000000000000000000000000002055565D
:1008D00054782054565578205655567822515556FE
:1008E000792055545578000000000024547854585D
:1008F0000C525272123855565418385456551838EE
:1009000056555618385554551800497A4000004835
:100910007A4100004A794200004A78420000000013
:1009200000007A11090A7130494A483030484A4972
:1009300030304A494A303249494A31304A484A30CF
:1009400008082A080818643C2618384142207838DC
:1009500040422178384241227838424022780000D3
:1009600000000000000000000C5150513C6E616E10
:1009700000696E660000407A10F35A00A0724E18AB
:10098000090010A5D4E80000E87648170000E40B41
:1009900054020000CA9A3B000000E1F50500008007
:1009A000969800000040420F000000A08601000061
:1009B00000102700000000E80300000000640000B1
:1009C0000000000A00000000000100000000002CF0
:1009D00076D888DC674F0823DFC1DFAE59E1B1B7B5
:1009E00096E5E3E453C63AE651997696E8E6C28482
:1009F00026EB898C9B62ED407C6FFCEFBC9C9F409A
:100A0000F2BAA56FA5F490055A2AF75C936B6CF9BE
:100A1000676DC11BFCE0E40D47FEF520E6B500D094
:100A2000ED902E0300943577050080841E080000A9
:100A3000204E0A000000C80C333333330F986E1277
:100A4000831141EF8D2114893BE65516CFFEE6DB7D
:100A500018D1844B381BF77C1D901DA4BBE42420C7
:100A60003284725E228100C9F124ECA1E53D2700A9
:100A700011241FBECFEFD0E1DEBFCDBF13E0A0E059
:100A8000B1E0E8E9FDE900E00BBF02C007900D927C
:100A9000A237B107D9F718E0A2E7B3E001C01D9271
:100AA000A73CB107E1F70E941B080C94CA4E0C94B6
:100AB000632FAF92BF92DF92EF92FF920F931F933B
:100AC000DF93CF93CDB7DEB72A970FB6F894DEBF8A
:100AD0000FBECDBFD82E7E010894E11CF11C87010A
:100AE0009E01255F3F4F802F8E19D8018D938D0178
:100AF000A217B307C1F780E0A82E81E0B82E00D07E
:100B000000D0EDB7FEB73196ADB7BEB71296BC9226
:100B1000AE921197D7018D917D01828313820E943D
:100B2000B74C0F900F900F900F90E016F10639F729
:100B300000D000D0EDB7FEB7319684E091E0ADB7BC
:100B4000BEB712969C938E931197D28213820E9405
:100B5000B74C0F900F900F900F90B1E0BD1520F49F
:100B60008D2D81500E94590580E02A960FB6F89489
:100B7000DEBF0FBECDBFCF91DF911F910F91FF90D0
:100B8000EF90DF90BF90AF9008956F927F928F9219
:100B90009F92AF92BF92CF92DF92FF920F931F93DB
:100BA0000AE214E0C8016CEC77E00E940630C8014C
:100BB0006CEF74E040E850E00E946730FF24F3944B
:100BC000F0923204F0923104F0923304F092340443
:100BD0008AE090E0A0E0B0E0809335049093360482
:100BE000A0933704B09338041092390410923A0459
:100BF00010923B0410923C0421E0622E712C812C57
:100C0000912C60923D0470923E0480923F04909239
:100C10004004109241041092420410924304109236
:100C20004404109245041092460410924704109216
:100C300048041092490410924A0410924B041092F6
:100C40004C04C8010E946E2607E117E0C80161E963
:100C500077E00E940630C80165E574E040E850E0A6
:100C60000E94673082E080931F07F0921E07F09287
:100C70002007F092210795E0A92EB12CC12CD12C90
:100C8000A0922207B0922307C0922407D092250792
:100C90001092260710922707109228071092290712
:100CA00082E090E0A0E0B0E080932A0790932B07C9
:100CB000A0932C07B0932D0710922E0710922F07A8
:100CC00010923007109231071092320710923307BA
:100CD000109234071092350710923607109237079A
:100CE0001092380710923907C8010E946E2609ED4C
:100CF00014E0C80166E577E00E940630C80168EAA2
:100D000073E040E850E00E94673083E08093E104A4
:100D1000F092E004F092E204F092E304A092E40482
:100D2000B092E504C092E604D092E7041092E80481
:100D30001092E9041092EA041092EB046092EC0421
:100D40007092ED048092EE049092EF041092F00401
:100D50001092F1041092F2041092F3041092F40431
:100D60001092F5041092F6041092F7041092F80411
:100D70001092F9041092FA041092FB04C8010E9428
:100D80006E2603E813E0C8016BE177E00E940630AD
:100D9000C80167E976E040E850E00E94673084E0EF
:100DA00080938B03F0928A03F0928C03F0928D0370
:100DB00087E090E0A0E0B0E080938E0390938F03F3
:100DC000A0939003B0939103109292031092930317
:100DD0001092940310929503609296037092970379
:100DE000809298039092990310929A0310929B0319
:100DF00010929C0310929D0310929E0310929F03E9
:100E00001092A0031092A1031092A2031092A303C8
:100E10001092A4031092A503C8010E946E261F9190
:100E20000F91FF90DF90CF90BF90AF909F908F90E9
:100E30007F906F900895FF920F931F93CF93DF934E
:100E40000E94862400D000D0EDB7FEB7319623E192
:100E500031E0ADB7BEB712963C932E9311978283C3
:100E600013820E94B74CF090C801C0E0D0E00F9010
:100E70000F900F900F9002E211E082E090E00E944C
:100E8000FC128F2D0E94241200D000D0EDB7FEB7C7
:100E900012830183D483C3830E94B74C0F900F90B9
:100EA0000F900F900E942E262196E7CFFF920F936E
:100EB0001F93CF93DF930E94862400D000D0EDB71C
:100EC000FEB7319621E331E0ADB7BEB712963C9341
:100ED0002E931197828313820E94B74CF090C70122
:100EE000C0E0D0E00F900F900F900F9000E411E061
:100EF00081E090E00E94FC128F2D0E94241200D00D
:100F000000D0EDB7FEB712830183D483C3830E9460
:100F1000B74C0F900F900F900F900E942E262196A5
:100F2000E7CFFF920F931F93CF93DF930E94862406
:100F300000D000D0EDB7FEB731962FE431E0ADB769
:100F4000BEB712963C932E931197828313820E9410
:100F5000B74CF090C601C0E0D0E00F900F900F901A
:100F60000F900EE511E08FEF90E00E94FC128F2DA4
:100F70000E94241200D000D0EDB7FEB71283018387
:100F8000D483C3830E94B74C0F900F900F900F90A3
:100F90000E942E262197E7CFFF920F931F93CF93A6
:100FA000DF9300D000D084E791E0ADB7BEB71296D2
:100FB0009C938E93119714961C921E9213970E94E5
:100FC000B74C0F900F900F900F900E94862400D086
:100FD00000D0EDB7FEB731962EE831E0ADB7BEB721
:100FE00012963C932E931197828313820E94B74CE2
:100FF000F090C501C0E0D0E00F900F900F900F90DF
:101000000DE911E080E090E00E94FC128F2D0E941B
:10101000241200D000D0EDB7FEB712830183D48331
:10102000C3830E94B74C0F900F900F900F900E94B7
:101030002E262196E7CF0E94261387E090E00E949B
:101040009E130E94FF1588E10FB6F89481BD11BC74
:101050000FBE80E090E00E9411138FEF90E00E949D
:10106000111381E090E00E94111382E090E00E9451
:10107000111360E070E080E090E020E030E040E0BC
:1010800050E00E94E9270E94C5050E94A21580E059
:1010900090E0089590E00B979C012B593E4B880FF0
:1010A000991F880F991F280F391FF894C09888E15D
:1010B0008FB9779BFECF3FB9779BFECF2FB9779B38
:1010C000FECFC09A78940895F894C0981FB8779B83
:1010D000FECF8FB1C09A789486FFF6CF0895F8942A
:1010E000C09887E08FB9779BFECFC09AC09886E002
:1010F0008FB9779BFECFC09A7894089580914F075F
:101100000895DC01C09889EC8FB9779BFECF80E809
:101110008FB9779BFECF92E09150FD01E90FF11D51
:1011200080818FB9779BFECF9923B1F7C09AC09881
:101130008BEC8FB9779BFECF80E88FB9779BFECF82
:1011400092E09150FD01E90FF11D82818FB9779BEB
:10115000FECF9923B1F7C09A8C91809350071196D6
:101160008C9111978093510712968C9112978093CE
:10117000520713968C91809353070895C09889E184
:101180008FB9779BFECF83E08FB9779BFECF86E048
:101190008FB9779BFECFC09AC0988AE18FB9779BB1
:1011A000FECF8EE08FB9779BFECF8EE08FB9779B15
:1011B000FECFC09A81E0809340070895C09889E1EE
:1011C0008FB9779BFECF81E08FB9779BFECF84EC00
:1011D0008FB9779BFECFC09A1092400708958091F7
:1011E0003E0790913F070895282F30E02F7130700F
:1011F000206E306AC09885E18FB9779BFECF3FB9EA
:10120000779BFECF2FB9779BFECFC09A0895209190
:1012100041073091420738603093420720934107DD
:10122000C09881E18FB9779BFECF3FB9779BFECF06
:101230002FB9779BFECFC09A089520914107309136
:101240004207377F3093420720934107C09881E1DE
:101250008FB9779BFECF3FB9779BFECF2FB9779B96
:10126000FECFC09A089581E080934E0720914107F8
:101270003091420720613093420720934107C09884
:1012800081E18FB9779BFECF3FB9779BFECF2FB916
:10129000779BFECFC09A089510924E072091410788
:1012A000309142072F7E3093420720934107C09828
:1012B00081E18FB9779BFECF3FB9779BFECF2FB9E6
:1012C000779BFECFC09A089581E080934B07C0982A
:1012D00083E08FB9779BFECFC09AC09888E08FB922
:1012E000779BFECFC09A10925407089581E08093B7
:1012F0004B07C09883E08FB9779BFECFC09AC09808
:1013000088E08FB9779BFECFC09A1092540708955A
:1013100010924B07C09886E08FB9779BFECFC09A9A
:1013200010925407089580B390E024E09695879535
:101330002A95E1F78170089581B190E036E09695A5
:1013400087953A95E1F78170089580B390E044E085
:10135000969587954A95E1F781700895DF93CF932D
:1013600000D000D00F92CDB7DEB70E9902C080E05A
:10137000D1C110924F070E9B1AC0B79918C0C098E0
:101380008FE78FB9779BFECF1FB8779BFECF8FB1CA
:10139000C09AC09888E08FB9779BFECFC09AC0985A
:1013A00088E08FB9779BFECFC09A8FEFB3C1C0980A
:1013B0008FE78FB9779BFECF1FB8779BFECF4FB1DA
:1013C000C09A4F77C1F4C0988FE78FB9779BFECF53
:1013D0001FB8779BFECF8FB1C09AC09888E08FB9B5
:1013E000779BFECFC09AC09888E08FB9779BFECFDD
:1013F000C09A8EEF8FC14C308CF0E0914307F09192
:101400004407242F332727FD30952B50304084810B
:10141000992787FD9095821793077CF5C0988FE7F1
:101420008FB9779BFECF50E0242F332727FD3095CF
:1014300004C01FB8779BFECF5F5F852F90E08217B7
:10144000930714F4B799F5CFC09AC0988FE78FB976
:10145000779BFECF1FB8779BFECF8FB1C09AC09805
:1014600088E08FB9779BFECFC09AC09888E08FB98B
:10147000779BFECFC09A8DEF4DC1E0914307F0916D
:1014800044074C504383C0988FE78FB9779BFECFBA
:10149000FE0132969F012E5F3F4F1FB8779BFECF14
:1014A0008FB18193E217F307C1F7C09AE091430728
:1014B000F09144078A819B8155E0969587955A95CE
:1014C000E1F781708783C0988FE78FB9779BFECF54
:1014D0001FB8779BFECFE0914307F09144078FB18F
:1014E0008083C09AC0988FE78FB9779BFECF80E04A
:1014F00006C01FB8779BFECF8F5F843011F0B7997D
:10150000F8CFC09AC0988FE78FB9779BFECF20E0C5
:1015100030E01FB8779BFECFE0914307F09144077E
:101520008FB1E20FF31F81832F5F3F4F22303105D0
:1015300081F7C09A8A8183FF4DC0C0988FE78FB929
:10154000779BFECFEAE3F7E01FB8779BFECF8FB122
:10155000819387E0EE33F807B9F7C09AC09889E91C
:101560008FB9779BFECF80E88FB9779BFECF92E053
:101570009150E92FF0E0E65CF84F80818FB9779BBE
:10158000FECF9923A9F7C09AC0988BE98FB9779BB2
:10159000FECF80E88FB9779BFECF92E09150E92F84
:1015A000F0E0E45CF84F80818FB9779BFECF992300
:1015B000A9F7C09AC0988CE08FB9779BFECFC09AEC
:1015C00081E080934F07E0914307F09144078381C6
:1015D00084508383C0988FE78FB9779BFECF40E01C
:1015E0000FC01FB8779BFECFE0914307F0914407EF
:1015F0008FB10580F681E02DE40FF11D80834F5FF0
:10160000E0914307F0914407242F30E0838199272C
:1016100087FD90952817390724F3C09AC0988FE763
:101620008FB9779BFECF1FB8779BFECF9FB1C09A33
:10163000C0988FE78FB9779BFECF9983FE013496D0
:101640009E012A5F3F4F1FB8779BFECF8FB18193DA
:10165000E217F307C1F7C09AE0914307F0914407FE
:101660008C81808750E040E00CC0E0914307F0910E
:1016700044070580F681E02DE20FF31F8081580FAB
:101680004F5FE0914307F0914407242F30E08381BE
:10169000992787FD9095281739073CF389815817BA
:1016A000C1F0C0988FE78FB9779BFECF1FB8779BAB
:1016B000FECF8FB1C09AC09888E08FB9779BFECFDC
:1016C000C09AC09888E08FB9779BFECFC09A8CEF04
:1016D00021C08D8187FF07C0809154078F5F809361
:1016E000540781E017C0C0988FE78FB9779BFECF72
:1016F0001FB8779BFECF8FB1C09AC09888E08FB992
:10170000779BFECFC09AC09888E08FB9779BFECFB9
:10171000C09A8BEF0F900F900F900F900F90CF917A
:10172000DF91089580915407882321F08091540718
:10173000109254070895C09888E08FB9779BFECF28
:10174000C09AC09888E08FB9779BFECFC09A089561
:10175000992787FD9095382F22272068C09883E12C
:101760008FB9779BFECF3FB9779BFECF2FB9779B81
:10177000FECFC09A0895C09886E08FB9779BFECFC0
:10178000C09AC09882E18FB9779BFECF85E08FB970
:10179000779BFECF88E08FB9779BFECFC09AC09829
:1017A0008EE28FB9779BFECF88E18FB9779BFECF12
:1017B0001FB8779BFECFC09A0E949B0B0895C098DC
:1017C00086E08FB9779BFECFC09AC09882E18FB92F
:1017D000779BFECF85E08FB9779BFECF1FB8779BB5
:1017E000FECFC09AC0988EE28FB9779BFECF1FB80C
:1017F000779BFECF1FB8779BFECFC09A0E949B0BB2
:101800000895C09886E08FB9779BFECFC09AC098A4
:1018100082E18FB9779BFECF85E08FB9779BFECFB2
:1018200081E08FB9779BFECFC09A0E949B0B0895F1
:10183000C09882E18FB9779BFECF85E08FB9779B07
:10184000FECF84E08FB9779BFECFC09A0E949B0B9E
:101850000895282F30E02F703070809141079091CB
:101860004207807F282B392B309342072093410772
:10187000C09881E18FB9779BFECF3FB9779BFECFB0
:101880002FB9779BFECFC09A0895282F30E076E0DD
:10189000220F331F7A95E1F73070809141079091C4
:1018A00042078F73282B392B30934207209341072F
:1018B000C09881E18FB9779BFECF3FB9779BFECF70
:1018C0002FB9779BFECFC09A0895C09884E08FB956
:1018D000779BFECFC09A0895C09886E08FB9779B1A
:1018E000FECFC09A0895FF920F931F93DF93CF937B
:1018F00000D000D0CDB7DEB7DC01409140074423D3
:1019000031F0C0988DE08FB9779BFECFC09A1A82D4
:1019100012962C911297622F772767FD709530E011
:101920000BC01396ED91FC911497E80FF91F8A8173
:101930009081890F8A833F5F832F90E086179707F6
:1019400084F3245F29832C50442311F0205F2983E2
:10195000C09888E08FB9779BFECFC09AC09888E086
:101960008FB9779BFECFC09A0E99FECF8499FCCF9A
:10197000F894C09889E08FB9779BFECFC09AC09841
:1019800089E08FB9779BFECFC09AC0988EE38FB95C
:10199000779BFECF89818FB9779BFECFC09A81E478
:1019A00098E89C838B8380914E07882321F081E601
:1019B00098E89C838B83442329F08B819C818860E9
:1019C0009C838B83C0988EE38FB9779BFECFFE01FB
:1019D00033969E012B5F3F4F80818FB9779BFECF5F
:1019E0003196E217F307C1F7C09AC0988EE38FB91A
:1019F000779BFECF809145078FB9779BFECFC09A2A
:101A0000C0988EE38FB9779BFECF20E030E0F901DC
:101A1000ED5BF84F84818FB9779BFECF2F5F3F4FEF
:101A200022303105A1F7C09AC0988EE38FB9779B19
:101A3000FECFFD019D012E5F3F4F80818FB9779BC7
:101A4000FECF3196E217F307C1F7C09AC0988EE334
:101A50008FB9779BFECF20E030E0F901ED5BF84FC6
:101A600086818FB9779BFECF2F5F3F4F22303105A4
:101A7000A1F7C09A442389F0C0988EE38FB9779B71
:101A8000FECFE0E5F7E080818FB9779BFECF3196FE
:101A900087E0E435F807B9F7C09AC0988EE38FB9AC
:101AA000779BFECF20E00BC01396ED91FC9114972D
:101AB000E80FF91F80818FB9779BFECF2F5F822FB0
:101AC00090E08617970784F3C09AC0988EE38FB989
:101AD000779BFECF8A818FB9779BFECFC09A1596F0
:101AE0008C91882399F180914B07882331F4C09819
:101AF00083E08FB9779BFECFC09AC0981FB8779BC1
:101B0000FECF8FB1C09A81FFF8CF10E0E5E0FE2E46
:101B1000C098FFB8779BFECFC09AC0981FB8779B3C
:101B2000FECF0FB1C09A1F5F153649F478948091AB
:101B30003E0790913F070E94882190E042C084E6D2
:101B400090E00E94D21303FFE3CF06C0C09884E068
:101B50008FB9779BFECFC09A7894849BFECF8499EF
:101B6000FECF80914E07882381F084EA92E00E94A4
:101B7000D213B79B0CC0C0988FE78FB9779BFECF6D
:101B80001FB8779BFECF8FB1C09A91E00DC0C0986F
:101B900088E08FB9779BFECFC09AC09888E08FB954
:101BA000779BFECFC09A90E0F894C09886E08FB9FA
:101BB000779BFECFC09A7894809145078F5F809382
:101BC0004507892F0F900F900F900F90CF91DF91C5
:101BD0001F910F91FF900895CF92DF92EF92FF92A5
:101BE0000F931F93DF93CF9300D000D0CDB7DEB714
:101BF0007C018B016A010E94AA2EC09888E08FB9EF
:101C0000779BFECFC09AC09888E08FB9779BFECFB4
:101C1000C09A0E99FECF8499FCCFF894C09889E0C1
:101C20008FB9779BFECFC09AC09889E08FB9779B18
:101C3000FECFC09A1A82D70112963C91432F5527A6
:101C400047FD509520E00CC0D7011396ED91FC9113
:101C50001497E80FF91F8A819081890F8A832F5F7B
:101C6000822F90E0841795077CF3932F945F9983DC
:101C7000C0988EE38FB9779BFECF9FB9779BFECF3D
:101C8000C09AF7018681882319F481E498E802C09C
:101C900081E698E89C838B83C0988EE38FB9779B0D
:101CA000FECFFE0133969E012B5F3F4F80818FB99F
:101CB000779BFECF3196E217F307C1F7C09AC09821
:101CC0008EE38FB9779BFECF809145078FB9779BC5
:101CD000FECFC09AC0988EE38FB9779BFECF20E0ED
:101CE00030E0F901ED5BF84F84818FB9779BFECF2F
:101CF0002F5F3F4F22303105A1F7C09AC0988EE385
:101D00008FB9779BFECFF70197012E5F3F4F808100
:101D10008FB9779BFECF3196E217F307C1F7C09AD0
:101D2000C0988EE38FB9779BFECF20E030E0F901B9
:101D3000ED5BF84F86818FB9779BFECF2F5F3F4FCA
:101D400022303105A1F7C09AC801B6010E94412E88
:101D5000D70115968C91882399F180914B078823A0
:101D600031F4C09883E08FB9779BFECFC09AC098BA
:101D70001FB8779BFECF8FB1C09A81FFF8CF10E0DC
:101D8000F5E0DF2EC098DFB8779BFECFC09AC098F1
:101D90001FB8779BFECF0FB1C09A1F5F153649F46D
:101DA000789480913E0790913F070E94882180E0BF
:101DB00060C084E690E00E94D21303FFE3CF06C028
:101DC000C09884E08FB9779BFECFC09AC0988EE30D
:101DD0008FB9779BFECFF7018281482F552747FDAA
:101DE000509520E00CC0D7011396ED91FC9114970B
:101DF000E80FF91F80818FB9779BFECF2F5F822F6D
:101E000090E0841795077CF3C09AC0988EE38FB951
:101E1000779BFECF8A818FB9779BFECFC09A849B38
:101E2000FECFF8948499FECFC09888E08FB9779B55
:101E3000FECFC09AC09888E08FB9779BFECFC09A3A
:101E4000C09889E08FB9779BFECFC09AC09889E08F
:101E50008FB9779BFECFC09AC09886E08FB9779BE9
:101E6000FECFC09A7894809145078F5F8093450795
:101E700081E00F900F900F900F90CF91DF911F9105
:101E80000F91FF90EF90DF90CF900895DF93CF9365
:101E900000D0CDB7DEB79A83898390934A078093A9
:101EA000490784EF91E00E940F2EC0988AEE8FB907
:101EB000779BFECF80E88FB9779BFECFFE013196EE
:101EC0009E012D5F3F4F80818FB9779BFECF31966A
:101ED000E217F307C1F7C09A84EF91E00E940F2E3A
:101EE0000F900F90CF91DF9108954F925F926F9274
:101EF0007F928F929F92AF92BF92CF92DF92EF929A
:101F0000FF920F931F93DF93CF9300D0CDB7DEB72F
:101F1000182F092F84E690E00E940F2E212F302FDA
:101F2000C9016C0100E011E03E010894611C711CC4
:101F300033E0432E512C4C0E5D1EF601F080EE2452
:101F4000818190E08E299F299A83898384E690E09D
:101F50000E940F2EC098802F80688FB9779BFECF8C
:101F6000C80195958795807C8FB9779BFECF4301FB
:101F70005301F50180818FB9779BFECF0894A11C96
:101F8000B11C4A145B04A9F7C09A0894C11CD11C67
:101F90000E5F1F4FF1E000311F0779F684E690E0F5
:101FA0000E940F2E20E131E040E451E01A821982B4
:101FB000C098842F80688FB9779BFECFCA01959512
:101FC0008795807C8FB9779BFECFF30180818FB995
:101FD000779BFECF3196EA15FB05C1F7C09AC098F2
:101FE000822F80688FB9779BFECFC9019595879521
:101FF000807C8FB9779BFECFF30180818FB9779B6F
:10200000FECF3196EA15FB05C1F7C09A2E5F3F4F10
:102010004E5F5F4F81E02E31380741F681E090E05E
:102020009A838983C0988EEC8FB9779BFECF80E826
:102030008FB9779BFECFF30180818FB9779BFECF5D
:1020400031964E165F06C1F7C09AC0988EE98FB9D7
:10205000779BFECF80E88FB9779BFECFF40180811C
:102060008FB9779BFECF0894811C911C48145904AA
:10207000A9F7C09A0F900F90CF91DF911F910F9108
:10208000FF90EF90DF90CF90BF90AF909F908F9098
:102090007F906F905F904F900895F894C09881E082
:1020A0008FB9779BFECFC09A88EE93E00E940F2EE7
:1020B00078940895CF93DF93EC01C09888E08FB9AE
:1020C000779BFECFC09AC09888E08FB9779BFECFF0
:1020D000C09A862F0E944A08D0934407C0934307B2
:1020E000DF91CF9108950E944A080895DF92EF9200
:1020F000FF920F931F93DF93CF9300D0CDB7DEB73E
:102100008C01D62E5A8349837901DD9A88EE93E0BB
:102110000E94D213DE9881E090E00E94D213DE9AF2
:1021200084E690E00E94D213F894C09881E08FB9C1
:10213000779BFECFC09A82EE92E090934207809305
:102140004107C09881E18FB9779BFECF82E08FB9BC
:10215000779BFECF82EE8FB9779BFECFC09AC09857
:1021600082E18FB9779BFECF85E08FB9779BFECF59
:102170001FB8779BFECFC09AC0988CE18FB9779B30
:10218000FECF1FB8779BFECF8FE78FB9779BFECF2F
:10219000C09AC09889E18FB9779BFECF81E08FB953
:1021A000779BFECF84EC8FB9779BFECFC09AC09807
:1021B00087E18FB9779BFECF8AE18FB9779BFECFFE
:1021C00086E58FB9779BFECFC09A84EF91E00E949D
:1021D0000F2EC09888EE8FB9779BFECF80E88FB91D
:1021E000779BFECFFE0131969E012D5F3F4F808190
:1021F0008FB9779BFECF3196E217F307C1F7C09AEC
:1022000084EF91E00E940F2E78948D2D0E944A0851
:102210007894109344070093430789819A8190939F
:10222000480780934707F0924A07E09249071092C7
:10223000450710924B070E94640810924E071092B7
:10224000400710924F070F900F90CF91DF911F9191
:102250000F91FF90EF90DF9008958091C6010E944A
:1022600057118091C5010E94571108958091C601B0
:102270000E9457118091C5010E949F1108958FEF10
:102280000895882329F48BB1881F8827881F089513
:10229000813011F080E0089580919B00881F88278D
:1022A000881F08955F9BFECF5F988CB10895382FEB
:1022B0008F3F09F442C0282F26952695269581E068
:1022C00090E002C0880F991F2A95E2F7982F232FDC
:1022D00030E02770307022303105E1F023303105D5
:1022E0003CF42115310571F02130310531F50EC076
:1022F00024303105B9F02430310584F02530310522
:10230000E1F414C08BB3982B9BBB15C088B3982BFA
:1023100098BB11C085B3982B95BB0DC082B3982B89
:1023200092BB09C083B1982B93B905C0809162001C
:10233000982B9093620081E008958FEF0895382FD5
:102340008F3F09F443C0282F26952695269581E0D6
:1023500090E002C0880F991F2A95E2F7982F909578
:10236000232F30E02770307022303105E1F0233028
:1023700031053CF42115310571F02130310531F57D
:102380000EC024303105B9F02430310584F02530F9
:102390003105E1F414C08BB398239BBB15C088B3FF
:1023A000982398BB11C085B3982395BB0DC082B309
:1023B000982392BB09C083B1982393B905C080913B
:1023C000620098239093620081E008958FEF089552
:1023D000282F8F3F69F190E08770907082309105CF
:1023E000A9F0833091052CF4009761F0019701F575
:1023F0000BC08430910571F0843091054CF0059745
:10240000B9F40AC089B309C086B307C083B305C055
:1024100080B303C081B101C080B190E026952695BC
:10242000269502C0959587952A95E2F781700895C3
:102430008FEF0895882319F080B58B7F02C080B597
:10244000846080BD81E00895382F8F3F09F442C039
:10245000282F26952695269581E090E002C0880FCA
:10246000991F2A95E2F7982F232F30E027703070BC
:1024700022303105E1F0233031053CF421153105DE
:1024800071F02130310531F50EC024303105B9F03D
:102490002430310584F025303105E1F414C08BB3CC
:1024A00098279BBB15C088B3982798BB11C085B3EC
:1024B000982795BB0DC082B3982792BB09C083B102
:1024C000982793B905C08091620098279093620085
:1024D00081E008958FEF0895982F8F3F09F488C009
:1024E00086958695869521E030E002C0220F331F45
:1024F0008A95E2F7422F892F90E0662309F047C0C2
:102500002095877090708230910509F18330910594
:1025100034F4009771F0019709F06AC011C084305B
:10252000910519F184309105CCF0059709F060C050
:1025300023C08AB328232ABB8BB3482B4BBB56C07E
:1025400087B3282327BB88B3482B48BB4FC084B32D
:10255000282324BB85B3482B45BB48C081B328231F
:1025600021BB82B3482B42BB41C082B1282322B990
:1025700083B1482B43B93AC080916100282320934E
:10258000610080916200482B409362002FC08770E9
:10259000907082309105C9F0833091052CF400973A
:1025A00061F0019729F50DC084309105B1F08430B8
:1025B00091057CF00597E1F414C08AB3482B4ABB1F
:1025C00015C087B3482B47BB11C084B3482B44BB0D
:1025D0000DC081B3482B41BB09C082B1482B42B921
:1025E00005C080916100482B4093610081E008950F
:1025F0008FEF08958FEF0895009711F480E004C0E5
:102600008130910529F488E00E94241281E0089528
:10261000029711F08FEF089580E10E94241281E06B
:102620000895009711F480E004C08130910529F4E9
:1026300088E00E94571181E00895029711F08FEF12
:10264000089580E10E94571181E0089580B584606B
:1026500080BD87E087BB88BB8FEF84BB15BA82E063
:1026600082B987E68ABB80E48BBB80E58DB981E0C7
:102670008EB980E090E00E94111381E090E00E940A
:10268000111382E090E00E94111383E090E00E9419
:1026900011130895009711F480E004C08130910572
:1026A00029F488E00E949F1181E00895029711F0BB
:1026B0008FEF089580E10E949F1181E008955D9B56
:1026C000FECF5D988CB90895982F80919B0085FF6F
:1026D000FCCF80919B008F7D80939B0090939C000A
:1026E00008959093900089B986E080939500529860
:1026F000599A8AB188618AB9089590939800809315
:10270000990086E080939D00EAE9F0E080818B7F6C
:102710008083ABE9B0E08C9182608C93808188618A
:102720008083089580919B0087FFFCCF80919B0060
:102730008F7780939B0080919C000895EF92FF9289
:102740000F931F930E9471130FE513E182E5E82EAA
:1027500081E1F82EC801B7010E94FD4B9093C0089B
:102760008093BF08C801B7010E94FD4B9093BE083B
:102770008093BD081F910F91FF90EF900895CF9324
:10278000DF93EC0107C06091BF087091C00890E032
:102790000E948B4CFE01219684918823A1F7DF9142
:1027A000CF91089500000000000000000197D1F7CC
:1027B0000895FC0187E090E060810E94954D81E0E2
:1027C00008950F931F93CF93DF938C01C8E0D0E05F
:1027D000CE01F80161918F010E94954D2196C8317B
:1027E000D105B1F781E0DF91CF911F910F9108954D
:1027F000FC0186E090E060810E94954D81E00895A3
:102800000E94954D80E008950F931F938C0187E0FF
:1028100090E00E948D4DF801808381E01F910F911F
:1028200008950F931F93CF93DF938C01C8E0D0E0FE
:10283000CE010E948D4DF80181938F012196C83100
:10284000D105B1F781E0DF91CF911F910F910895EC
:102850000F931F938C0186E090E00E948D4DF8014C
:10286000808381E01F910F9108950F931F938C0136
:1028700085E090E00E948D4DF801808381E01F91FA
:102880000F910895FF920F931F938C0180E090E0C9
:102890000E948D4DF801838381E090E00E948D4D70
:1028A000F801828382E090E00E948D4DF8018183DF
:1028B00083E090E00E948D4DF82EF801808384E043
:1028C00090E00E948D4DF80191812281920F9F0D21
:1028D0002381920F891711F08FEF01C081E01F91C2
:1028E0000F91FF9008950E948D4D0895F8940895DA
:1028F00078940895F894FFCF85E690E008950E94BB
:10290000262A0895EF92FF920F931F93CF93DF93A0
:10291000EC018B017A018985823021F080910108D8
:10292000888301C0188280910108853020F087E0FB
:1029300060E00E94451F8985823029F0809101085E
:102940008F5F8093010880910108882319F481E04A
:10295000809301088881992787FD9095FC0145E0C7
:10296000EE0FFF1F4A95E1F7E80FF91FE95AF84FFC
:10297000118300838881992787FD9095FC0135E0BC
:10298000EE0FFF1F3A95E1F7E80FF91FE95AF84FEC
:10299000888582878881992787FD9095FC0125E0AD
:1029A000EE0FFF1F2A95E1F7E80FF91FE95AF84FDC
:1029B00083E081872881822F992787FD9095FC01EC
:1029C00005E0EE0FFF1F0A95E1F7E80FF91FE95A3E
:1029D000F84F20878881992787FD9095FC0115E0A5
:1029E000EE0FFF1F1A95E1F7E80FF91FE95AF84FAC
:1029F00015820881112707FD1095CE010B960E94C4
:102A0000FA27F801B5E0EE0FFF1FBA95E1F7E00FE6
:102A1000F11FE95AF84F948F838F8B859C85AD8584
:102A2000BE85CE97A105B10520F086E168810E94A0
:102A3000451F0881112707FD1095CE014B960E9476
:102A4000FA27F801A5E0EE0FFF1FAA95E1F7E00FC6
:102A5000F11FE95AF84F968B858B8881992787FD5E
:102A60009095FC0175E0EE0FFF1F7A95E1F7E80FF6
:102A7000F91FE95AF84F85899689238D348D820F85
:102A8000931F908F878B0881112707FD1095CE012A
:102A900043960E94FA27F80165E0EE0FFF1F6A9542
:102AA000E1F7E00FF11FE95AF84F968F858F888183
:102AB000992787FD9095FC0155E0EE0FFF1F5A9571
:102AC000E1F7E80FF91FE95AF84F858D968D928F3F
:102AD000818F8881992787FD9095FC0145E0EE0F55
:102AE000FF1F4A95E1F7E80FF91FE95AF84F81E017
:102AF00090E090A3878F8881992787FD9095FC01AE
:102B000035E0EE0FFF1F3A95E1F7E80FF91FE95A9C
:102B1000F84FF382E2828881992787FD9095FC0126
:102B200025E0EE0FFF1F2A95E1F7E80FF91FE95A9C
:102B3000F84F81E08487DF91CF911F910F91FF9033
:102B4000EF900895CF92DF92EF92FF920F931F9331
:102B5000DF93CF930F92CDB7DEB77FE5E72E77E017
:102B6000F72E90E0F70100810F3FC1F06FE5C62E10
:102B700067E0D62E10E0911751F0F601808108171A
:102B800031F485E0602F99830E94451F99811F5F72
:102B900021E230E0C20ED31E153069F79F5FE1E2FB
:102BA000F0E0EE0EFF1E9530E9F60E946423282F18
:102BB000332727FD3095F90155E0EE0FFF1F5A9599
:102BC000E1F7E20FF31FE95AF84F3285309314080A
:102BD00021E28202C0011124895A984F9093130870
:102BE000809312089093040880930308309305089B
:102BF0000E9462300E9453300E94BC3CFFCF0F9372
:102C00001F93DF93CF93CDB7DEB7A3970FB6F8949A
:102C1000DEBF0FBECDBF0E948920809302088F3F88
:102C200021F48EE060E00E94451F0E948D2F80FFFE
:102C300004C086E060E00E94451F0E94E12F8F3FA4
:102C400031F40E94F82F80E160E00E94451F0E944D
:102C5000EA2F109205081092130810921208109291
:102C6000040810920308109214080E94A4161092EF
:102C700011088FEF8093FE07809300088093FF0771
:102C8000EFE5F7E093E692838083B19628E0E430A5
:102C9000F207C9F7EEE4F8E0CF0105969483838349
:102CA000F783E683FC0188E0E736F807A9F710927E
:102CB000500810924F081482138210920808109244
:102CC00007087997F0935607E09355078E010F5F39
:102CD0001F4FC8016BEB79E20E940630C80167E123
:102CE00076E040E850E00E94673085E58093170663
:102CF00019861C861D861E861F86188A198A1A8ABE
:102D00001B8A1C8A1D8A1E8A1F8A188E198E1A8E8B
:102D10001B8E1C8E1D8E1E8E1F8E18A219A21AA22B
:102D20001BA291E0988782E08A879B87C8010E9456
:102D30006E26A3960FB6F894DEBF0FBECDBFCF911F
:102D4000DF911F910F91089510924D0410924E043F
:102D500010924F0410925004109251041092520499
:102D60001092530410925404E0E8F5E010821182AE
:102D7000128213821086118612861386148215829F
:102D8000168217821486158616861786108A118A6F
:102D9000128A138A108E118E128E138E148E158E37
:102DA0007E9686E0E631F80709F70895FC018091E8
:102DB0004D0490914E04A0914F04B0915004808333
:102DC0009183A283B3838091510490915204A09186
:102DD0005304B091540484839583A683B7830895E4
:102DE000382F90E0FC01B5E0EE0FFF1FBA95E1F738
:102DF000880F991FE81BF90BE058FA4F858D813039
:102E000089F1832F90E0FC0175E0EE0FFF1F7A95AA
:102E1000E1F7880F991FE81BF90BE058FA4F248D52
:102E20002F5F832F90E0FC0155E0EE0FFF1F5A95B6
:102E3000E1F7880F991FE81BF90BE058FA4F248F30
:102E40002F3F81F4832F90E0FC0135E0EE0FFF1F50
:102E50003A95E1F7880F991FE81BF90BE058FA4FF4
:102E600081E0858F0895682F90E0FC0175E0EE0FFA
:102E7000FF1F7A95E1F7880F991FE81BF90BE058BF
:102E8000FA4F858D813009F44FC0862F90E0FC0108
:102E900045E0EE0FFF1F4A95E1F7880F991FE81BE9
:102EA000F90BE058FA4F148A158A168A178A862F6A
:102EB00090E0FC0125E0EE0FFF1F2A95E1F7880F57
:102EC000991FE81BF90BE058FA4F20893189428994
:102ED00053892F5F3F4F4F4F5F4F862F90E0FC018C
:102EE000A5E0EE0FFF1FAA95E1F7880F991FE81BD9
:102EF000F90BE058FA4F208B318B428B538B2E5FAE
:102F00003F4F4F4F5F4F81F4862F90E0FC0135E03B
:102F1000EE0FFF1F3A95E1F7880F991FE81BF90B99
:102F2000E058FA4F81E0858F08951F93182F90E0A5
:102F3000FC01A5E0EE0FFF1FAA95E1F7880F991F8E
:102F4000E81BF90BE058FA4F858D813009F4A5C0D4
:102F5000812F90E09C0155E0220F331F5A95E1F735
:102F6000880F991F281B390B20583A4F812F90E06A
:102F7000FC01B5E0EE0FFF1FBA95E1F7880F991F2E
:102F8000E81BF90BE058FA4F808D918DA28DB38D1F
:102F90000196A11DB11DF901808F918FA28FB38F72
:102FA000462F50E060E070E0812F90E09C01F5E05A
:102FB000220F331FFA95E1F7880F991F281B390B51
:102FC00020583A4F812F90E0FC01B5E0EE0FFF1F33
:102FD000BA95E1F7880F991FE81BF90BE058FA4FF3
:102FE00084899589A689B789840F951FA61FB71F65
:102FF000F901848B958BA68BB78B812F90E09C0178
:10300000F5E0220F331FFA95E1F7880F991F281B6F
:10301000390B20583A4F812F90E0FC01B5E0EE0FBC
:10302000FF1FBA95E1F7880F991FE81BF90BE058CD
:10303000FA4F80819181A281B381480F591F6A1F85
:103040007B1FF9014083518362837383812F90E05A
:10305000FC0135E0EE0FFF1F3A95E1F7880F991F4D
:10306000E81BF90BE058FA4F808D918DA28DB38D3E
:103070008E5F9F4FAF4FBF4F81F4812F90E0FC01D7
:10308000B5E0EE0FFF1FBA95E1F7880F991FE81B17
:10309000F90BE058FA4F81E0858F1F9108951F9337
:1030A000182F90E0FC01B5E0EE0FFF1FBA95E1F795
:1030B000880F991FE81BF90BE058FA4F858D813076
:1030C00009F4E4C0462F50E060E070E0812F90E00A
:1030D0009C01F5E0220F331FFA95E1F7880F991F45
:1030E000281B390B20583A4F812F90E0FC01B5E0A6
:1030F000EE0FFF1FBA95E1F7880F991FE81BF90B38
:10310000E058FA4F84899589A689B789840F951F5D
:10311000A61FB71FF90184879587A687B787812FD8
:1031200090E09C01F5E0220F331FFA95E1F7880F3C
:10313000991F281B390B20583A4F812F90E0FC0132
:10314000B5E0EE0FFF1FBA95E1F7880F991FE81B56
:10315000F90BE058FA4F80819181A281B381480F29
:10316000591F6A1F7B1FF901408351836283738358
:10317000812F90E0FC0135E0EE0FFF1F3A95E1F75B
:10318000880F991FE81BF90BE058FA4F248135810D
:10319000468157812115310541055105B9F0812F2F
:1031A00090E0FC01B5E0EE0FFF1FBA95E1F7880F44
:1031B000991FE81BF90BE058FA4F84859585A68581
:1031C000B78582179307A407B50728F5812F90E0EC
:1031D0009C0175E0220F331F7A95E1F7880F991F44
:1031E000281B390B20583A4F812F90E0FC0155E005
:1031F000EE0FFF1F5A95E1F7880F991FE81BF90B97
:10320000E058FA4F84859585A685B785F9018483B2
:103210009583A683B783812F90E0FC01B5E0EE0F84
:10322000FF1FBA95E1F7880F991FE81BF90BE058CB
:10323000FA4F2485358546855785812F90E0FC011E
:1032400075E0EE0FFF1F7A95E1F7880F991FE81BD5
:10325000F90BE058FA4F80859185A285B3858217D6
:103260009307A407B50790F4812F90E0FC0115E0C7
:10327000EE0FFF1F1A95E1F7880F991FE81BF90B56
:10328000E058FA4F20873187428753871F9108956E
:10329000CF93DF93282FEB01853010F08FEFBAC06A
:1032A00090E0FC0155E0EE0FFF1F5A95E1F7880F03
:1032B000991FE81BF90BE058FA4F80819181A28198
:1032C000B38188839983AA83BB83822F90E0FC011A
:1032D00035E0EE0FFF1F3A95E1F7880F991FE81BC5
:1032E000F90BE058FA4F84819581A681B7818C83D0
:1032F0009D83AE83BF83822F90E0FC01A5E0EE0F9B
:10330000FF1FAA95E1F7880F991FE81BF90BE058FA
:10331000FA4F80859185A285B38588879987AA878A
:10332000BB87822F90E0FC0165E0EE0FFF1F6A95DE
:10333000E1F7880F991FE81BF90BE058FA4F8485D5
:103340009585A685B7858C879D87AE87BF87822F99
:1033500090E0FC0145E0EE0FFF1F4A95E1F7880F72
:10336000991FE81BF90BE058FA4F80899189A289CF
:10337000B389888B998BAA8BBB8B822F90E0FC0141
:10338000B5E0EE0FFF1FBA95E1F7880F991FE81B14
:10339000F90BE058FA4F84899589A689B7898C8BF7
:1033A0009D8BAE8BBF8B822F90E0FC0175E0EE0F02
:1033B000FF1F7A95E1F7880F991FE81BF90BE0587A
:1033C000FA4F808D918DA28DB38D888F998FAA8FA2
:1033D000BB8F822F90E0FC0155E0EE0FFF1F5A9546
:1033E000E1F7880F991FE81BF90BE058FA4F848D1D
:1033F0008C8F822F90E0FC0135E0EE0FFF1F3A9595
:10340000E1F7880F991FE81BF90BE058FA4F858DFB
:103410008D8F81E0DF91CF910895DF92EF92FF923F
:103420000F931F93DF93CF93CDB7DEB760970FB69F
:10343000F894DEBF0FBECDBFD82E8BE192E00E9484
:10344000BF1300D000D0EDB7FEB731968FEC91E0FE
:10345000ADB7BEB712969C938E931197D28213820A
:103460000E94B74C0F900F900F900F90DD2009F045
:1034700080C080E092E00E94BF13CE0101960E94BE
:103480005C29EDB7FEB73A970FB6F894FEBF0FBEB2
:10349000EDBF0DB71EB70F5F1F4F62EDE62E61E067
:1034A000F62EF282E18289819A81AB81BC81F8019A
:1034B00082839383A483B5836D817E818F81988578
:1034C00020E432E44FE050E00E94B64AD80116965C
:1034D0002D933D934D935C9319970E94B74CEDB794
:1034E000FEB73A960FB6F894FEBF0FBEEDBF8FED54
:1034F00091E00E94BF138DB79EB70A970FB6F8945C
:103500009EBF0FBE8DBF0DB71EB70F5F1F4FADB76C
:10351000BEB71296FC92EE92119780914D04909155
:103520004E04A0914F04B0915004F801828393831C
:10353000A483B58360915104709152048091530427
:103540009091540420E432E44FE050E00E94B64AE7
:10355000D80116962D933D934D935C9319970E9435
:10356000B74CEDB7FEB73A960FB6F894FEBF0FBE54
:10357000EDBF8EEC91E00E94BF138D2D90E0FC0119
:1035800055E0EE0FFF1F5A95E1F7880F991FE81BD2
:10359000F90BE058FA4F60817181828193810E941A
:1035A000922829873A874B875C876D877E878F872C
:1035B000988BDE011196FE01399688E001900D92FC
:1035C0008150E1F78DB79EB70A970FB6F8949EBF6A
:1035D0000FBE8DBF0DB71EB70F5F1F4F82ED91E07D
:1035E000ADB7BEB712969C938E93119789819A813D
:1035F000AB81BC81F80182839383A483B5836D8101
:103600007E818F81988520E432E44FE050E00E9473
:10361000B64AD80116962D933D934D935C93199716
:103620000E94B74CEDB7FEB73A960FB6F894FEBFBE
:103630000FBEEDBF83EB91E00E94BF138D2D90E094
:10364000FC0135E0EE0FFF1F3A95E1F7880F991F57
:10365000E81BF90BE058FA4F6481758186819781E8
:103660000E94922829873A874B875C876D877E87DF
:103670008F87988BDE011196FE01399688E00190C4
:103680000D928150E1F78DB79EB70A970FB6F89467
:103690009EBF0FBE8DBF0DB71EB70F5F1F4F82EECF
:1036A00091E0ADB7BEB712969C938E931197898126
:1036B0009A81AB81BC81F80182839383A483B58313
:1036C0006D817E818F81988520E432E44FE050E067
:1036D0000E94B64AD80116962D933D934D935C9364
:1036E00019970E94B74CEDB7FEB73A960FB6F8940B
:1036F000FEBF0FBEEDBF8D2D90E0FC0105E0EE0F8B
:10370000FF1F0A95E1F7880F991FE81BF90BE05896
:10371000FA4F64857585868597850E94922829874A
:103720003A874B875C876D877E878F87988BDE0112
:103730001196FE01399688E001900D928150E1F7D3
:103740008DB79EB70A970FB6F8949EBF0FBE8DBF78
:103750000DB71EB70F5F1F4F82EE91E0ADB7BEB73A
:1037600012969C938E93119789819A81AB81BC812B
:10377000F80182839383A483B5836D817E818F81D9
:10378000988520E432E44FE050E00E94B64AD80128
:1037900016962D933D934D935C9319970E94B74CC9
:1037A000EDB7FEB73A960FB6F894FEBF0FBEEDBF69
:1037B0008D2D90E0FC01B5E0EE0FFF1FBA95E1F70B
:1037C000880F991FE81BF90BE058FA4F6085718547
:1037D000828593850E94922829873A874B875C8748
:1037E0006D877E878F87988BDE011196FE01399653
:1037F00088E001900D928150E1F78DB79EB70A974E
:103800000FB6F8949EBF0FBE8DBF0DB71EB70F5FEA
:103810001F4F82ED91E0ADB7BEB712969C938E9389
:10382000119789819A81AB81BC81F801828393834E
:10383000A483B5836D817E818F81988520E432E4F5
:103840004FE050E00E94B64AD80116962D933D9362
:103850004D935C9319970E94B74CEDB7FEB73A961B
:103860000FB6F894FEBF0FBEEDBF83EA91E00E9451
:10387000BF1300D000D000D004EF11E0ADB7BEB749
:1038800012961C930E9311978D2D90E0FC0175E01C
:10389000EE0FFF1F7A95E1F7880F991FE81BF90BD0
:1038A000E058FA4F80899189A289B389EDB7FEB7B4
:1038B00083839483A583B6830E94B74C8DB79EB74C
:1038C00006960FB6F8949EBF0FBE8DBF80E991E0BB
:1038D0000E94BF1300D000D000D0ADB7BEB7129683
:1038E0001C930E9311978D2D90E0FC0155E0EE0F87
:1038F000FF1F5A95E1F7880F991FE81BF90BE05855
:10390000FA4F808D918DA28DB38DEDB7FEB7838375
:103910009483A583B6830E94B74C8DB79EB7069655
:103920000FB6F8949EBF0FBE8DBF87E791E00E944F
:10393000BF1300D000D0ADB7BEB7119608EF11E0AD
:10394000EDB7FEB7128301838D2D90E0FC0135E0C9
:10395000EE0FFF1F3A95E1F7880F991FE81BF90B4F
:10396000E058FA4F848D12968C93129713961C92FE
:103970000E94B74C0F900F900F900F908AE591E046
:103980000E94BF1300D000D0ADB7BEB71196EDB7FF
:10399000FEB7128301838D2D90E0FC0175E0EE0FE0
:1039A000FF1F7A95E1F7880F991FE81BF90BE05884
:1039B000FA4F858D12968C93129713961C920E9443
:1039C000B74C0F900F900F900F9087E591E00E94F9
:1039D000BF1360960FB6F894DEBF0FBECDBFCF9178
:1039E000DF911F910F91FF90EF90DF9008951F934B
:1039F0008AE391E00E94BF1310E0812F0E940D1A0C
:103A00001F5F1530D1F71F91089590E0A0E0B0E05E
:103A1000BC01CD0123EB36EE4EE050E00E94834A1C
:103A20002091510430915204409153045091540418
:103A3000260F371F481F591F2093510430935204FB
:103A400040935304509354048DE494E00E94C7279C
:103A50000895E0911208F091130884870895E09189
:103A60001208F091130884850895DC01FB01809110
:103A70001606882329F08083809128048C9381E0A6
:103A80000895DF93CF930F92CDB7DEB7198207C0A9
:103A900080ED97E00E940F2E89818F5F8983898155
:103AA0008436B0F30F90CF91DF91089581E090E0DC
:103AB0000E944A130E94411D81E090E00E94111370
:103AC0000E94411D089581E090E00E944A130E94E7
:103AD000411D0E94411D0E94411D81E090E00E9415
:103AE00011130E94411D0895FF920F931F93DF93BE
:103AF000CF9300D00F92CDB7DEB700D000D000D06A
:103B0000EDB7FEB731968E010F5F1F4FADB7BEB751
:103B100012961C930E9311972BEF31E0338322837F
:103B2000848315820E94FE4CFF248DB79EB70696B3
:103B30000FB6F8949EBF0FBE8DBF71C0A00FB11F0E
:103B40008C918433D1F1853370F48133F9F0823371
:103B500020F4803309F05CC016C0823311F1833346
:103B600009F056C023C08733C9F1883330F4853358
:103B700069F1863309F04CC02CC08833B1F1893328
:103B800009F046C03BC00E94631D02C00E94561D42
:103B90000E94631D0E94631D0E94631D0E94631D9D
:103BA00037C00E94561D0E94561DF4CF0E94561D1C
:103BB0000E94561D0E94561DEFCF0E94561D0E9466
:103BC000561D0E94561D0E94561DE8CF0E94561D8C
:103BD00002C00E94631D0E94561D04C00E94631D06
:103BE0000E94631D0E94561D06C00E94631D0E9414
:103BF000631D0E94631D0E94561D08C00E94631D24
:103C00000E94631D0E94631D0E94631D0E94561D39
:103C10000E94411D0E94411D0E94411DF394F80124
:103C200001900020E9F73197E01BF10BAF2DB0E0D8
:103C3000AE17BF0708F482CF0F900F900F90CF916F
:103C4000DF911F910F91FF900895809116068823B0
:103C500009F49BC082E594E00E94BF1300D000D01D
:103C6000EDB7FEB731968BEF91E0ADB7BEB71296C8
:103C70009C938E93119780912804828313820E94D3
:103C8000B74C0F900F900F900F908EE494E00E942D
:103C9000BF1380911606883110F01092160680919D
:103CA000160690E0FC013197E631F10508F04AC0B4
:103CB000EA5BFF4FEE0FFF1F0590F491E02D099492
:103CC00082E194E041C08BEE93E03EC087ED93E04B
:103CD0003BC081EC93E038C086EA93E035C080E9D0
:103CE00093E032C088E793E02FC085E693E02CC0D4
:103CF00082E593E029C084E393E026C08FE093E05F
:103D000023C083E093E020C088EE92E01DC089EDDF
:103D100092E01AC085EC92E017C084EB92E014C0E8
:103D200080EA92E011C080E892E00EC088E692E05E
:103D30000BC08DE492E008C08CE392E005C08DE2F8
:103D400092E002C086E292E00E94BF136091BF0839
:103D50007091C0088DE090E00E948B4C6091BF088C
:103D60007091C0088AE090E00E948B4C809116060A
:103D7000803149F0833139F0843129F00E94EA2FF3
:103D80000E947614FFCF1092160680E00895FF92ED
:103D90000F931F93082FF62E80E092E00E94731479
:103DA0008F5F809372038F3F11F4109272038091A2
:103DB000720316E0819FC00111248F5F9D4F602F19
:103DC0000E94001480917203819FC00111248E5FB4
:103DD0009D4F6F2D0E9400148091720323E0829FFB
:103DE000C0011124880F991F2091090830910A08F9
:103DF00040910B0850910C08252F33274427552755
:103E00008D5F9D4F622F0E94001480917203819FED
:103E1000C00111242091090830910A0840910B0833
:103E200050910C089A01442755278C5F9D4F622FB3
:103E30000E94001480917203819FC001112420917F
:103E4000090830910A0840910B0850910C08232F63
:103E5000342F452F55278B5F9D4F622F0E940014F2
:103E600080917203819FC00111248A5F9D4F6091F0
:103E700009080E94001480E092E0609172030E94A1
:103E800000141F910F91FF9008951F93182F809396
:103E90001606609328040E94C71E0E94251E10313A
:103EA00049F0133139F0143129F00E94EA2F0E94B1
:103EB0007614FFCF1F91089580931606E0911208A3
:103EC000F09113086085609328040E94C71E0E9429
:103ED000251E0895992787FD9095FC0125E0EE0F9A
:103EE000FF1F2A95E1F7E80FF91FE95AF84FA28161
:103EF000B3818C91853521F085E58C938FEF089502
:103F0000808191818050914110F481E0089582E197
:103F10000E945C1F8FEF08956F927F928F929F9205
:103F2000AF92BF92CF92DF92EF92FF920F931F93C7
:103F3000CF93DF938EE594E00E94BF1300D000D0B2
:103F40008EEF91E0ADB7BEB712969C938E9311970A
:103F5000E0911208F09113088085992787FD9095CC
:103F600014969C938E9313970E94B74CE09112087D
:103F7000F09113080281138187E092E0EDB7FEB75C
:103F800092838183148303830E94B74CEDB7FEB7FD
:103F9000319654E1C52E52E0D52EADB7BEB712967C
:103FA000DC92CE921197D8018C91828313820E9469
:103FB000B74C41E2E42E42E0F42EEDB7FEB7F282B8
:103FC000E182E0911208F091130880819181ADB7F0
:103FD000BEB714969C938E9313970E94B74C0BE236
:103FE00012E0EDB7FEB71283018380911208909121
:103FF0001308948383830E94B74CC7E5D7E0AA24B3
:10400000BB240F900F900F900F903BE3632E32E094
:10401000732E4601670178010A811B8100D000D010
:1040200000D0EDB7FEB73196ADB7BEB712967C9211
:104030006E921197B382A282158304830E94B74CBB
:104040000F900F90EDB7FEB73196ADB7BEB7119692
:104050008C92119712969C92D8018C918283138234
:104060000E94B74CEDB7FEB7C182D2828881998198
:10407000948383830E94B74CADB7BEB71196EC9280
:1040800011971296FC9212971496DC93CE93139785
:104090000E94B74C0894A11CB11CA1960F900F90E0
:1040A0000F900F90B5E0AB16B10409F0B5CFDF91DA
:1040B000CF911F910F91FF90EF90DF90CF90BF9025
:1040C000AF909F908F907F906F900895CF93DF93E4
:1040D000E0911208F0911308C281D381888185355F
:1040E00039F00E948C1F81E00E945C1F85E5888367
:1040F000E0911208F09113088081918180509141E4
:1041000028F00E948C1F82E10E945C1FDF91CF91FA
:1041100008954091D5045091D6046091D7047091D0
:10412000D80420E030E0DB01CA01022E04C0B695BD
:10413000A795979587950A94D2F781709070892BEF
:10414000D1F481E090E0A0E0B0E0022E04C0880F3E
:10415000991FAA1FBB1F0A94D2F7842B952BA62B5D
:10416000B72B8093D5049093D604A093D704B09333
:10417000D804822F08952F5F3F4F2032310599F6E2
:104180008FEF0895E0911208F09113086585768508
:10419000878590890895EF92FF920F931F9321E0F6
:1041A00030E040E050E004C0220F331F441F551F91
:1041B0008A95D2F7E0911208F0911308E584F6840D
:1041C00007851089DA01C9018E219F21A023B1231F
:1041D0000097A105B10511F48FEF19C02095309516
:1041E00040955095E222F32204231523E586F686B6
:1041F0000787108B81899289A389B48982239323AD
:10420000A423B523818B928BA38BB48B81E01F9168
:104210000F91FF90EF900895682F772767FD7095B5
:104220008091D5049091D604A091D704B091D80480
:10423000062E04C0B695A795979587950A94D2F750
:1042400081709070892B11F48FEF0895E09112081E
:10425000F091130821E030E040E050E004C0220F6C
:10426000331F441F551F6A95D2F785859685A7850C
:10427000B089822B932BA42BB52B85879687A78794
:10428000B08B81E0089580E090E008958E5F9740C4
:1042900011F08FEF089580E008950E9446218F3F2E
:1042A00011F481E003C0813029F482E00E94291DCD
:1042B0008FEF0895992787FD9095FC01EE0FFF1F62
:1042C000E80FF91FE250F84F8FEF808382838183DC
:1042D0008091110881508093110881E008950E9417
:1042E00046218F3F11F481E003C0813029F482E040
:1042F0000E94291D8FEF0895992787FD9095FC0155
:10430000EE0FFF1FE80FF91FE250F84F828108956A
:104310001F93CF93DF930E944621182F8F3F11F4F4
:1043200081E003C0813029F482E00E94291D8FEFD3
:104330003DC0992787FD9095EC01CC0FDD1FC80F7C
:10434000D91FC250D84F9A818881981774F50E945E
:1043500076148A818F5F8A83E0911208F0911308A6
:104360001482EEE5F7E0212F332727FD3095432F08
:10437000532F63E08081823089F482859385A48500
:10438000B58582179307A407B50741F462831786A2
:10439000168610821286138614861586B19688E0DA
:1043A000E330F80739F70E94781481E0DF91CF916C
:1043B0001F910895DF92EF92FF920F931F9351E0A8
:1043C000E52EF12C012D112D04C0EE0CFF1C001F59
:1043D000111F8A95D2F78091D5049091D604A091AF
:1043E000D704B091D8048E219F21A023B123009738
:1043F000A105B10511F481E041C00E947614EEE5FB
:10440000F7E0DD2423E080818130B1F4828593855B
:10441000A485B5858E219F21A023B1230097A105F6
:10442000B10551F02283178616861082E286F38644
:1044300004871587DD24D3948081823099F48285A6
:104440009385A485B5858E159F05A007B10751F406
:104450002283178616861082128613861486158686
:10446000DD24D394B19688E0E330F80761F60E942A
:104470007814DD2011F081E004C082E00E94291D43
:104480008FEF1F910F91FF90EF90DF900895EF92C3
:10449000FF920F931F93CF93DF93C82FDD27C7FDA4
:1044A000D09561E0E62EF12C012D112D0C2E04C0CB
:1044B000EE0CFF1C001F111F0A94D2F78091D50447
:1044C0009091D604A091D704B091D8048E219F2159
:1044D000A023B1230097A105B10511F48FEF5CC0B3
:1044E0000E947614EEE5F7E0A8019701209530953B
:1044F0004095509563E081818F3F39F186819781A6
:10450000A085B1858E159F05A007B10731F41286ED
:104510001386148615861082628386819781A08512
:10452000B18582239323A423B52386839783A08711
:10453000B18782859385A485B58582239323A4239F
:10454000B52382879387A487B587B19688E0E33047
:10455000F80789F62EEF3FEF4FEF5FEF04C0220F11
:10456000331F441F551FCA95D2F78091D5049091EF
:10457000D604A091D704B091D80482239323A42316
:10458000B5238093D5049093D604A093D704B09319
:10459000D8040E94781481E0DF91CF911F910F9190
:1045A000FF90EF9008951F93CF93DF930E944621D1
:1045B000182F8F3F11F481E003C0813029F482E08D
:1045C0000E94291D8FEF3FC00E947614C12FDD2766
:1045D000C7FDD095FE01EE0FFF1FEC0FFD1FE2504F
:1045E000F84F82818823B9F4E0911208F091130802
:1045F000878182608783812F992787FD9095A92FD6
:10460000B92F818B928BA38BB48B0E94781480E09E
:1046100090E00E949C25FE01EE0FFF1FEC0FFD1F96
:10462000E250F84F828181508283A0911208B091AC
:10463000130881811B968C931B9781E014968C93B1
:104640000E94781481E0DF91CF911F9108959B0122
:10465000AC01E0911208F091130885859685A78535
:10466000B08982239323A423B5230097A105B10524
:1046700029F420E030E040E050E023C0218B328B71
:10468000438B548B81E087830090020804C05695C9
:104690004795379527950A94D2F7C9018170907094
:1046A000892B19F00E94402504C080E090E00E9410
:1046B0009C25E0911208F0911308218932894389E1
:1046C0005489B901CA010895E0910708F0910808DA
:1046D00080810895E0910708F091080803C00380E5
:1046E000F481E02D3097D9F70895DF92EF92FF9291
:1046F0000F931F93CF93DF93D82EC0915507D0917E
:104700005607209709F49BC040910708509108086C
:104710004115510519F4A0E0B0E057C0DA01282F87
:10472000332727FD3095C90165E0880F991F6A95E9
:10473000E1F7820F931F895A984FBC01665F7F4F44
:1047400024E0E22EF12CE80EF91E8C01055F1F4FCC
:104750008C91282F30E0F90185E0EE0FFF1F8A953C
:10476000E1F7E20FF31FE95AF84F8481882329F01B
:104770009385FB018081981740F1F70180818823A0
:1047800079F0F90195E0EE0FFF1F9A95E1F7E20F3E
:10479000F31FE95AF84F9285F80180819817A8F025
:1047A000F90185E0EE0FFF1F8A95E1F7E20FF31F95
:1047B000E95AF84F9285FB018081981730F01396E3
:1047C0000D90BC91A02D109719F6D882EB81FC8139
:1047D000F0935607E0935507A417B507B1F4109767
:1047E00049F0BC83AB831A8219821296DC93CE9374
:1047F000119706C01C821B821A821982D283C18340
:10480000D0930808C09307081AC011968D919C9107
:104810001297AE17BF0759F09A838983BC83AB8385
:104820001196ED91FC911297D483C38304C01C822E
:104830001B829A8389831296DC93CE931197DF9122
:10484000CF911F910F91FF90EF90DF900895CF933C
:10485000DF93A0910708B0910808109709F453C09E
:10486000282F332727FD30958C9190E082179307EE
:1048700079F41396ED91FC911497F0930808E09366
:1048800007081282118212C0DA0141155105D9F1CF
:104890008C9190E013964C91139714965C91149719
:1048A0008217930789F722C0FA83E983E0915507BD
:1048B000F0915607309749F4B0935607A0935507E7
:1048C00014961C921E9213970AC01496FC93EE93B2
:1048D0001397B283A183B0935607A0935507E09135
:1048E0005507F0915607128211820DC01196ED9175
:1048F000FC911297438354831396CD91DC911497C6
:10490000209791F6D3CFDF91CF910895E0911208CF
:10491000F0911308808508950E941630E0911208E6
:10492000F091130885818823B9F70895FF920F93BA
:104930001F93DF93CF93CDB7DEB728970FB6F894C8
:10494000DEBF0FBECDBF29833A834B835C836D836B
:104950007E838F8398870E9466200E947614E09160
:104960001208F091130881E0858381E090E090A324
:10497000878F0E94AA2EF82ECE0101960E94FA2758
:10498000E0911208F09113080F2D10E0800F911F95
:10499000968B858B87EF8F1570F00E94A42E0F5F8A
:1049A0001F4F90E00817190734F48F2D8E5F809306
:1049B0007F050E94A72E0E9478140E948C2481E01B
:1049C00028960FB6F894DEBF0FBECDBFCF91DF9112
:1049D0001F910F91FF9008958F929F92AF92BF9277
:1049E000CF92DF92EF92FF920F931F93DF93CF93BB
:1049F000CDB7DEB760970FB6F894DEBF0FBECDBF60
:104A000029873A874B875C876D877E878F87988B4E
:104A1000CE0101960E945C29CE01099609851A856E
:104A20002B853C854D855E856F85788989809A8048
:104A3000AB80BC80CD80DE80EF80F8840E94C226EF
:104A40008F3F59F029853A854B855C856D857E853C
:104A50008F8598890E94962481E060960FB6F8941D
:104A6000DEBF0FBECDBFCF91DF911F910F91FF90A1
:104A7000EF90DF90CF90BF90AF909F908F90089570
:104A80001F930E947614E0911208F091130881E0C0
:104A9000858386830E94AA2E182F883F80F40E9467
:104AA000A42E212F30E02F5F3F4F90E028173907C9
:104AB00034F4812F8E5F80937F050E94A72E0E9481
:104AC00078140E948C2481E01F9108951F93DF9336
:104AD000CF93CDB7DEB728970FB6F894DEBF0FBEE1
:104AE000CDBF29833A834B835C836D837E838F8321
:104AF00098870E9476140E94AA2E182FCE01019644
:104B00000E94FA278330910510F48FEF0BC0E091DB
:104B10001208F0911308810F911D968B858B0E94CE
:104B2000781481E028960FB6F894DEBF0FBECDBF93
:104B3000CF91DF911F9108950F931F938C010E94D5
:104B40007614E0911208F091130881E08583168BAA
:104B5000058B0E94AA2E082F883F80F40E94A42E65
:104B6000202F30E02F5F3F4F90E02817390734F4B3
:104B7000802F8E5F80937F050E94A72E0E9478145D
:104B80000E948C2481E01F910F910895FF920F9352
:104B90001F93CF93DF938C010E947614E09112084B
:104BA000F091130881E085830E94AA2EF82EE091EF
:104BB0001208F0911308C82FD0E00C0F1D1F168BA0
:104BC000058B87EF8F1568F00E94A42E219690E048
:104BD000C817D90734F48F2D8E5F80937F050E940C
:104BE000A72E0E9478140E948C2481E0DF91CF913F
:104BF0001F910F91FF9008951F93CF93DF93EC01C6
:104C00000E946620209711F4C1E0D0E00E94761443
:104C1000E0911208F091130881E08583D0A3C78F3B
:104C20000E94AA2E182F883F80F40E94A42E212FC4
:104C300030E02F5F3F4F90E02817390734F4812F81
:104C40008E5F80937F050E94A72E0E9478140E9499
:104C50008C2481E0DF91CF911F9108951F930E94D2
:104C600066200E947614E0911208F091130881E00A
:104C700090E090A3878F81E085838789908D968BC4
:104C8000858B0E94AA2E182F883F80F40E94A42EA4
:104C9000212F30E02F5F3F4F90E02817390734F481
:104CA000812F8E5F80937F050E94A72E0E9478142B
:104CB0000E948C2481E01F910895E0911208F091E8
:104CC000130880850E942724E0911208F0911308B0
:104CD00084E081870E942E2681E00895EF92FF9262
:104CE0000F931F93CF93DF93EC0169817A814B81FE
:104CF0005C818D819E810E942130BC018F8188233F
:104D000069F04B815C81CE0120E030E000E010E0F2
:104D1000EE24FF240E9482141F8215C088819927E7
:104D200087FD9095FC01A5E0EE0FFF1FAA95E1F726
:104D3000E80FF91FE95AF84F8185833011F08FEFA2
:104D40001AC0718360838881992787FD9095FC0143
:104D500075E0EE0FFF1F7A95E1F7E80FF91FE95AAA
:104D6000F84F85899689892B29F482E0818788818B
:104D70000E94752381E0DF91CF911F910F91FF90E9
:104D8000EF9008958F929F92AF92BF92CF92DF9251
:104D9000EF92FF920F931F93DF93CF93CDB7DEB7C0
:104DA00060970FB6F894DEBF0FBECDBFFC0109833C
:104DB0001A832B833C834D835E836F837887898638
:104DC0009A86AB86BC86CD86DE86EF86F88A898198
:104DD0009A81AB81BC812D813E814F815885E984C8
:104DE000FA840B851C85AD84BE84CF84D8888E154B
:104DF0009F05A007B107F0F1E816F9060A071B079F
:104E000091F42A153B054C055D05A0F12A193B09D3
:104E10004C095D09248335834683578310821182B0
:104E2000128213821CC02A153B054C055D05C8F48F
:104E30000197A109B1098E199F09A00BB10B8083BD
:104E40009183A283B383205036434546544C2A199C
:104E50003B094C095D09248335834683578381E0F0
:104E60000AC08E199F09A00BB10B80839183A28386
:104E7000B383EDCF8FEF60960FB6F894DEBF0FBE11
:104E8000CDBFCF91DF911F910F91FF90EF90DF90F9
:104E9000CF90BF90AF909F908F9008958F929F92E8
:104EA000AF92BF92CF92DF92EF92FF920F931F9338
:104EB000DF93CF93CDB7DEB760970FB6F894DEBF20
:104EC0000FBECDBFFC0109831A832B833C834D8326
:104ED0005E836F83788789869A86AB86BC86CD860B
:104EE000DE86EF86F88AAD80BE80CF80D884ED84E0
:104EF000FE840F85188989859A85AB85BC852981B3
:104F00003A814B815C81820F931FA41FB51F808360
:104F10009183A283B383EA0CFB1C0C1D1D1DE4824C
:104F2000F5820683178313C080509A4CAA49BB436D
:104F300084839583A683B78380819181A281B38185
:104F40000196A11DB11D80839183A283B3838481C7
:104F50009581A681B78180302AEC92072AE9A207C1
:104F60002BE3B20708F781E060960FB6F894DEBF36
:104F70000FBECDBFCF91DF911F910F91FF90EF90AA
:104F8000DF90CF90BF90AF909F908F900895FC01DD
:104F900013C080509A4CAA49BB4384839583A6834F
:104FA000B78380819181A281B3810196A11DB11D3A
:104FB00080839183A283B38384819581A681B78105
:104FC00080302AEC92072AE9A2072BE3B20708F700
:104FD00008956093090870930A0880930B089093D2
:104FE0000C0820930D0830930E0840930F0850933F
:104FF000100808956F927F928F929F92AF92BF9206
:10500000CF92DF92EF92FF920F931F93FC0160808B
:10501000718082809380648175818681978161141B
:1050200071048104910409F469C022E462167104D8
:105030008104910418F020E030E066C05B016C014F
:10504000EE24FF24870150E03DC0FA2DEB2DE653FE
:1050500091E0EB1508F090E08C2D865621E08C1540
:1050600008F020E0792F780F91E0781708F090E0B1
:10507000292B8D2D855C31E08D1508F030E0622FF5
:10508000680F91E0681708F090E0232F292B2E0D70
:1050900091E02E1508F090E0492F4F0D91E04F154B
:1050A00008F090E0392F300F91E0301708F090E0D1
:1050B000910FAF2EBE2EC72ED62EE22EF42E032F2A
:1050C000192F5F5F852F90E0A0E0B0E0861597056F
:1050D000A805B90508F4B9CF9501A601B701C80123
:1050E000A3EBAA2EF6EEBF2EEEE0CE2EDD24EE24AC
:1050F000FF2400E010E00E94E73C06C023EB36EE00
:105100004EE050E00E94B64AC9011F910F91FF90F6
:10511000EF90DF90CF90BF90AF909F908F907F9057
:105120006F900895EF92FF920F931F93DF93CF93A9
:10513000CDB7DEB728970FB6F894DEBF0FBECDBF50
:105140007B018C0173708070907023EB36EE4EE023
:1051500050E00E94834A6D837E838F839887A801E5
:105160009701BAE05695479537952795BA95D1F7A7
:1051700029833A834B835C833A814B815C812896F7
:105180000FB6F894DEBF0FBECDBFCF91DF911F9158
:105190000F91FF90EF9008956F927F928F929F9260
:1051A000AF92BF92CF92DF92EF92FF920F931F9335
:1051B000FC0160807180828093806481758186812A
:1051C0009781611471048104910409F460C05B014A
:1051D0006C01EE24FF24870150E03DC0FA2DEB2D39
:1051E000E65391E0EB1508F090E08C2D865621E017
:1051F0008C1508F020E0792F780F91E0781708F0EF
:1052000090E0292B8D2D855C31E08D1508F030E084
:10521000622F680F91E0681708F090E0232F292B88
:105220002E0D91E02E1508F090E0492F4F0D91E0E2
:105230004F1508F090E0392F300F91E0301708F04B
:1052400090E0910FAF2EBE2EC72ED62EE22EF42E5A
:10525000032F192F5F5F852F90E0A0E0B0E0861547
:105260009705A805B90508F4B9CF9501A601B701BE
:10527000C801E3EBAE2E06EEB02E1EE0C12EDD24FB
:10528000EE24FF2400E010E00E94E73C06C023EB80
:1052900036EE4EE050E00E94B64AB901CA011F91B5
:1052A0000F91FF90EF90DF90CF90BF90AF909F90C5
:1052B0008F907F906F900895EF92FF920F931F93BE
:1052C000CF93DF93EC011C821D821E821F8280918E
:1052D000090890910A08A0910B08B0910C088883E6
:1052E0009983AA83BB83E0900D08F0900E0800918B
:1052F0000F0810911008EC82FD820E831F830E941C
:10530000AA2E90E0A0E0B0E0BC01CD0123EB36EE88
:105310004EE050E00E94834AE60EF71E081F191F58
:10532000EC82FD820E831F8313C080509A4CAA49E1
:10533000BB438C839D83AE83BF8388819981AA817F
:10534000BB810196A11DB11D88839983AA83BB836C
:105350008C819D81AE81BF8180302AEC92072AE941
:10536000A2072BE3B20708F7DF91CF911F910F91AE
:10537000FF90EF9008950F931F9301E012E00E94B9
:1053800066200E94A42E853128F4009306080E940E
:10539000163008C08AE090E00E940F2E1093060895
:1053A0000E940A3080911706853519F088E00E9426
:1053B0005C1F80917E10853511F388E00E945C1F90
:1053C000DECFCF92DF92EF92FF920F931F93CF9396
:1053D000DF937B018C01C0E7D8E0C801B7012AE068
:1053E00030E040E050E00E94B64A605DFE0161930B
:1053F0006F01C801B7012AE030E040E050E00E94B0
:10540000B64AC901DA017C018D01E114F1040105FC
:10541000110511F0E601E1CFF6011082E0E7F8E0B6
:1054200005C090818881819398832197EC17FD07AF
:10543000C0F380E798E00E94BF13DF91CF911F91E6
:105440000F91FF90EF90DF90CF9008953F924F9291
:105450005F926F927F928F929F92AF92BF92CF9204
:10546000DF92EF92FF920F931F93CF93DF938AEF18
:105470000E94A72E0E94E82F0E94932DD0907F05B6
:105480006D2D70E080E090E023EB36EE4EE050E0D2
:105490000E94834A7B018C0180910D0890910E0837
:1054A000A0910F08B0911008E80EF91E0A1F1B1FEB
:1054B000C801B7010E94B64AE61AF70A080B190B91
:1054C000E0920D08F0920E0800930F081093100858
:1054D000E0911208F091130890859923B9F4809116
:1054E0000608823019F48D2D0E94051DE0911208E6
:1054F000F0911308808560917F050E949517E091D7
:105500001208F0911308808560E005C0858188232A
:1055100029F0892F6D2D0E944F1804C0892F6D2D01
:105520000E9495178091090890910A08A0910B0894
:10553000B0910C0820910D0830910E0840910F0891
:10554000509110081BC0E12C76E3F72E75E6072F6B
:1055500074EC172FE20EF31E041F151FC801B701CC
:1055600023EB36EE4EE050E00E94B64AA8019701C8
:10557000261B370B480B590BD601C5015C016D0189
:105580000894A11CB11CC11CD11C20306AEC360748
:105590006AE946076BE35607B0F6809309089093D3
:1055A0000A08A0930B08B0930C0820930D083093C1
:1055B0000E0840930F0850931008E0911208F091E4
:1055C000130885818823B9F081858430A1F0878113
:1055D000823029F0882341F08681882311F485E008
:1055E00001C083E0818704C083E08187178216822F
:1055F00080850E942724E0911208F0911308858D80
:10560000968D892BE9F140854423D1F18185843041
:10561000B9F1218D328D80917F0590E028173907EF
:1056200090F4842F0E94F016E0911208F091130874
:1056300082E060850E94451FE0911208F0911308F6
:10564000128E118E04C0281B390B328F218FE091EE
:105650001208F09113081085818D928D892B81F4A9
:10566000812F0E94F01683E0612F0E94451FE09178
:105670001208F091130883E08187812F0E9427246C
:105680008CE492E00E94C94C109273038FEF90E07B
:105690000E94111381E090E00E94111382E090E0DB
:1056A0000E941113CCE5D7E060E6E62E6AEEF62EF6
:1056B000AA24BB24650151E0452E512C42E0342E32
:1056C00031E0632E712C812C912C4A2D8B818F3FE0
:1056D00011F487019DC01882882391F18C81843058
:1056E00079F12889398980917F0590E02817390759
:1056F00028F0281B390B398B288B02C0198A188A8D
:105700002A893B892817390728F0281B390B3B8B3E
:105710002A8B0EC06E897F898617970728F4681B2D
:10572000790B7B8B6A8B04C00E94A24A9B8B8A8B6D
:105730008A899B89892B21F48E899F899B8B8A8BEF
:105740008C81833009F04AC088899989892BF1F5C9
:105750008A81882391F08981882379F0D401C3015B
:105760000090020804C0880F991FAA1FBB1F0A944B
:10577000D2F78C879D87AE87BF871A8219821882DD
:105780002A8D3B8D888D998D2130310559F49D8B63
:105790008C8B3C828A899B89998B888B842F0E9471
:1057A000752314C09D8B8C8B215030408E899F892E
:1057B000AC01249FC001259F900D349F900D1124B2
:1057C000998B888B9B8B8A8B5B8E4A8E0889198973
:1057D0000115110519F00E151F0508F087018C81C0
:1057E0008230B1F481E592E00E94BF13C601B50199
:1057F0000E94E12983E592E00E94BF136A897B89B8
:1058000080E090E00E94E12988E592E00E94BF13C9
:105810000894A11CB11CC11CD11CA19658E0C13038
:10582000D50711F0780151CFE0911208F0911308DB
:1058300080850E9433170E946423F82E992787FDE4
:105840009095FC0125E0EE0FFF1F2A95E1F7E80F88
:10585000F91FE95AF84F82858093140881E26F2D71
:105860006802C0011124895A984F909304088093CC
:105870000308FF2089F0858D968D892B49F0C18D15
:10588000D28DCA3FD10520F4C017D107F0F019C05E
:105890000B3F1105C0F415C00531110590F0C8018A
:1058A00044978A3F910538F4EC018331910568F4FF
:1058B000C3E1D0E00AC00F50114028F4C6EED0E09A
:1058C00004C0E80102C0CAEFD0E0809114088093C0
:1058D0000508809103089091040890931308809321
:1058E0001208C0937F050E94AA2E90E001968C17A3
:1058F0009D0738F00E94AA2EC82FD0E02296C093B0
:105900007F05FF2011F0109206088C2F0E94A72E11
:105910000E944C300E94BC3CDF91CF911F910F91AF
:10592000FF90EF90DF90CF90BF90AF909F908F90BF
:105930007F906F905F904F903F900895109217085E
:1059400010922A0810923D080895CF93DF93EB013F
:10595000833010F08FEF21C0282F30E083E190E0FA
:10596000289FF001299FF00D389FF00D1124EB5E68
:10597000F74F5183408388819981AA81BB818383BA
:105980009483A583B6838C819D81AE81BF818783FB
:105990009087A187B287128281E0DF91CF9108952D
:1059A000833010F08FEF0895282F30E083E190E0EE
:1059B000289FF001299FF00D389FF00D1124EB5E18
:1059C000F74F128281E008951F93DF93CF93CDB7F5
:1059D000DEB728970FB6F894DEBF0FBECDBF182FE5
:1059E000833010F08FEF33C0CE0101960E945C2906
:1059F000212F30E083E190E0289FF001299FF00DF6
:105A0000389FF00D1124EB5EF74F83819481A581BF
:105A1000B68129813A814B815C81820F931FA41F3B
:105A2000B51F83879487A587B68787819085A185D1
:105A3000B2852D813E814F815885820F931FA41F0F
:105A4000B51F8787908BA18BB28B81E082832896CC
:105A50000FB6F894DEBF0FBECDBFCF91DF911F917F
:105A60000895CF92DF92EF92FF920F931F93DF93EF
:105A7000CF93CDB7DEB728970FB6F894DEBF0FBE31
:105A8000CDBF182F833010F08FEF3EC0CE010196AE
:105A90000E945C29212F30E083E190E0AC01249F3B
:105AA000C001259F900D349F900D112425E1C22E39
:105AB00028E0D22EC80ED91EF601238134814581FB
:105AC0005681E980FA800B811C812E0D3F1D401FFD
:105AD000511F238734874587568727813085418525
