:100000000C9438050C94C32F0C9457050C94570589
:100010000C9457050C9457050C9457050C945705F0
:100020000C9457050C943D2F0C9457050C945705D0
:100030000C9457050C9457050C9457050C94B82E46
:100040000C94B82E0C9457050C9457050C94570536
:100050000C9457050C9457050C9457050C945705B0
:100060000C9457050C9457050C9457050C945705A0
:100070000C9457050C9457050C9457050C94570590
:100080000C9457050C9457050C9457055D1E631E80
:10009000661E691E6C1E6F1E751E721E781E7B1EEC
:1000A0007E1E871E8A1E8D1E901E841E5A1E601E76
:1000B000931E961E811E571E08000000BE92244902
:1000C000123EABAAAA2ABECDCCCC4C3E000000808A
:1000D000BEABAAAAAA3E00000000BF000000803FFD
:1000E0000000000000084178D3BB4387D1133D19BD
:1000F0000E3CC3BD4282AD2B3E68EC8276BED98FEA
:10010000E1A93E4C80EFFFBE01C4FF7F3F0000002D
:10011000000007634236B79BD8A71A39685618AE55
:10012000BAAB558C1D3CB7CC5763BD6DEDFD753E2C
:10013000F6177231BF000000803F0D0A4E616E6FEE
:100140002D524B205461736B205374617469737426
:100150006963733A0D0A000D0A000D0A2020204F32
:10016000766572666C6F77204572726F7220537479
:10017000617475733A20000D0A2020204B65726E61
:10018000656C2056696F6C6174696F6E733A2000FC
:100190000D0A202020507265656D7074696F6E7352
:1001A0003A20000D0A202020537761702D696E736C
:1001B0003A20000D0A20202054696D65205B4D69AE
:1001C0006E2C4C6173742C4D61785D3A20000D0AE1
:1001D000202020546F74616C204350553A20000D4C
:1001E0000A20202049646C65205461736B204465AB
:1001F000657020536C6565702054696D653A200008
:100200000D0A202020546F74616C2053797374653B
:100210006D20557074696D653A2000205461736BD0
:100220002049443A2000554E4B4F574E00457874B4
:1002300065726E616C2052657365740042726F77EF
:100240006E204F757420446574656374004661695F
:100250006C656420746F20637265617465205365FA
:100260006D6170686F7265004661696C65642074C9
:100270006F20637265617465205369676E616C00FD
:100280004B65726E656C2066756E6374696F6E2067
:100290006E6F7420696D706C656D656E7465640059
:1002A000446576696365204472697665722045729B
:1002B000726F72005761746368646F672052657370
:1002C00074617274005357205761746368646F6778
:1002D00020526573746172740054696D6572204FA9
:1002E000766572666C6F7700556E68616E646C65DA
:1002F0006420496E746572727570742056656374FB
:100300006F72004C6F7720566F6C746167650045A3
:1003100078747261205461736B20737461727465B8
:10032000642C206973206E726B5F6366672E682091
:100330006F6B3F0049646C65206F72204B65726E75
:10034000656C20537461636B204F766572666C6FC9
:100350007700556E657870656374656420526573C7
:1003600074617274004475706C69636174656420B3
:100370005461736B204944005363686564756C6510
:1003800072204D69737365642057616B65757000E9
:100390005461736B20526573657276652056696F80
:1003A0006C61746564005265736572766520457290
:1003B000726F7220696E205363686564756C657234
:1003C00000496E76616C696420537461636B2050E0
:1003D0006F696E746572005461736B20537461634E
:1003E0006B204F766572666C6F7700537461636B38
:1003F00020776173206E6F7420646566696E656432
:10040000206173206C6172676520656E6F75676827
:1004100021005461736B20706572696F6420746F82
:100420006F206C617267652E20506572696F642061
:100430006D757374206265206C65737320746861D8
:100440006E203631207365636F6E64732E00293A17
:1004500020002A4E524B204552524F5228000D0A7E
:10046000535441434B2044554D500D0A0008082A6F
:100470001C08081C2A080840444A514040514A447C
:100480004014741C171410207F01010000000000AC
:100490000000000000081C2C08087F010101010178
:1004A0000101017F7F40404040404040407F0000CC
:1004B000000000000000000000000000007911278B
:1004C00011790000000000000000000000000000A2
:1004D000007F01010103605048447E3E4949493E86
:1004E000700C030C706349494963017F017F01630C
:1004F0005549414106017E010608557F55080F10F8
:100500007F100F4E7101714E384444384400000092
:10051000000000005F00000300030000143E143ED2
:100520001426497F493262152A54233649562050F1
:100530000003000000001C2241000041221C0000BA
:10054000140E140008083E080800600000000808A7
:10055000080800004000000060100804033E41410C
:10056000413E04027F00006251494542224149490F
:10057000360C0B087E084F494949313E49494932FA
:1005800061110905033649494936264949493E0062
:10059000220000000061000000081414222214143C
:1005A000141414222214140806015905023E415D58
:1005B000555E7E0909097E7F494949363E414141E0
:1005C000227F4141413E7F494949417F0909090153
:1005D0003E414949327F0808087F00007F00002023
:1005E0004040403F7F081422417F404040007F024E
:1005F00004027F7F021C207F3E4141413E7F09096A
:1006000009063E4151617E7F09192946264949491B
:100610003201017F01013F4040403F1F2040201F29
:100620003F4030403F6314081463030478040361BF
:10063000514945437F4100000000000000000000D8
:1006400000417F060106000040404040400102009A
:10065000000020545454787F48484830384444447B
:1006600028384444447F3854545418087E090901FA
:100670000C5252523E7F04040478047D40402020F6
:100680004040443D007F102844203E5149467C04B0
:100690007C04787C0804047838444444387E121280
:1006A000120C0C1212127E0478040408485454549C
:1006B00024043F4444403C40403C401C2040201C1B
:1006C0003C4030403C4428102844264848483E449A
:1006D00064544C4400083E410000007F000000418B
:1006E0003E080000000000000000000000000000C4
:1006F00000000000000000000000000020483E094B
:10070000020000000000000000000004047F040458
:1007100000000000000000000000000000000000D9
:1007200000000000000000000000000000000000C9
:1007300000000000000000000000000000000000B9
:1007400000000000000000000000000002040102A0
:100750000000000000000018180000000000000069
:100760000000000000000000000000000000000089
:100770000000000000000000000000000000000079
:100780000000000000000000000000000000000069
:10079000000000007900000000000000487E494988
:1007A00042000000000015167C1615000000000035
:1007B0000A5555552800010001003E635D6B3E005F
:1007C0000000000008142A142200000000000000AD
:1007D0000000003E41754B3E010101010100020590
:1007E0000200000000000000000000000000000007
:1007F0000000000000000000000000060F7F017FE5
:1008000000000000000000000000000000000007E1
:100810000507000022142A14080F003C20780F005E
:1008200048645800000000003048454020000000A7
:100830000000000000000000000000007229292ACA
:10084000717825242578702A252A707E097F4949E8
:100850000E5151711100000000007C5456554400A7
:100860000000000000000000000000000000000088
:100870000000000000000000000000000000000078
:1008800000007A0911227900000000000000000039
:100890000000000000003A454546393D4242423DD5
:1008A00022140814225C322A261D000000000000D9
:1008B0000000000000000000003C4140413C0000FE
:1008C000000000000000000000000000002055565D
:1008D00054782054565578205655567822515556FE
:1008E000792055545578000000000024547854585D
:1008F0000C525272123855565418385456551838EE
:1009000056555618385554551800497A4000004835
:100910007A4100004A794200004A78420000000013
:1009200000007A11090A7130494A483030484A4972
:1009300030304A494A303249494A31304A484A30CF
:1009400008082A080818643C2618384142207838DC
:1009500040422178384241227838424022780000D3
:1009600000000000000000000C5150513C6E616E10
:1009700000696E660000407A10F35A00A0724E18AB
:10098000090010A5D4E80000E87648170000E40B41
:1009900054020000CA9A3B000000E1F50500008007
:1009A000969800000040420F000000A08601000061
:1009B00000102700000000E80300000000640000B1
:1009C0000000000A00000000000100000000002CF0
:1009D00076D888DC674F0823DFC1DFAE59E1B1B7B5
:1009E00096E5E3E453C63AE651997696E8E6C28482
:1009F00026EB898C9B62ED407C6FFCEFBC9C9F409A
:100A0000F2BAA56FA5F490055A2AF75C936B6CF9BE
:100A1000676DC11BFCE0E40D47FEF520E6B500D094
:100A2000ED902E0300943577050080841E080000A9
:100A3000204E0A000000C80C333333330F986E1277
:100A4000831141EF8D2114893BE65516CFFEE6DB7D
:100A500018D1844B381BF77C1D901DA4BBE42420C7
:100A60003284725E228100C9F124ECA1E53D2700A9
:100A700011241FBECFEFD0E1DEBFCDBF13E0A0E059
:100A8000B1E0E6E4FDE900E00BBF02C007900D9283
:100A9000A638B107D9F718E0A6E8B3E001C01D9267
:100AA000AF3AB107E1F70E94F3070C94A14E0C9402
:100AB0006F2FAF92BF92DF92EF92FF920F931F932F
:100AC000DF93CF93CDB7DEB72A970FB6F894DEBF8A
:100AD0000FBECDBFD82E7E010894E11CF11C87010A
:100AE0009E01255F3F4F802F8E19D8018D938D0178
:100AF000A217B307C1F780E0A82E81E0B82E00D07E
:100B000000D0EDB7FEB73196ADB7BEB71296BC9226
:100B1000AE921197D7018D917D01828313820E943D
:100B2000C34C0F900F900F900F90E016F10639F71D
:100B300000D000D0EDB7FEB7319684E091E0ADB7BC
:100B4000BEB712969C938E931197D28213820E9405
:100B5000C34C0F900F900F900F90B1E0BD1520F493
:100B60008D2D81500E94590580E02A960FB6F89489
:100B7000DEBF0FBECDBFCF91DF911F910F91FF90D0
:100B8000EF90DF90BF90AF9008952F923F924F92D9
:100B90005F926F927F928F929F92AF92BF92CF920D
:100BA000DF92EF92FF920F931F9301E414E0C801CC
:100BB00063EA77E00E941230C80167E175E040E81F
:100BC00050E00E94733043E0A42EA0924904BB245D
:100BD000B394B0924804B0924A04B0924B0486E0B9
:100BE00090E0A0E0B0E080934C0490934D04A0937B
:100BF0004E04B0934F04109250041092510410927E
:100C0000520410925304B092640431E0C32ED12CEC
:100C1000E12CF12CC0925404D0925504E092560479
:100C2000F092570480E091EEA5EFB5E08093580470
:100C300090935904A0935A04B0935B0410925C04FF
:100C400010925D0410925E0410925F041092600492
:100C5000109261041092620410926304C8010E9411
:100C6000AD2603EF14E0C8016AE277E00E9412307B
:100C7000C8016FEB73E040E850E00E947330B0921F
:100C8000FB04B092FA04A092FC04B092FD04C0925E
:100C9000FE04D092FF04E0920005F092010510924C
:100CA000020510920305109204051092050582E0DA
:100CB0008093160523E0222E312C412C512C2092BA
:100CC000060530920705409208055092090590E804
:100CD000692E90EF792E9AEF892E92E0992E6092EC
:100CE0000A0570920B0580920C0590920D051092EA
:100CF0000E0510920F05109210051092110510921A
:100D00001205109213051092140510921505C801D2
:100D10000E94AD26C8010E94AD2607E913E0C80174
:100D20006AEE76E00E941230C80168EB76E040E897
:100D300050E00E947330B0929F03B0929E03A09245
:100D4000A003B092A103C092A203D092A303E092A9
:100D5000A403F092A5031092A6031092A703109289
:100D6000A8031092A90382E08093BA032092AA03F9
:100D70003092AB034092AC035092AD036092AE034D
:100D80007092AF038092B0039092B1031092B203BD
:100D90001092B3031092B4031092B5031092B603ED
:100DA0001092B7031092B8031092B903C8010E94C1
:100DB000AD261F910F91FF90EF90DF90CF90BF90E5
:100DC000AF909F908F907F906F905F904F903F90EB
:100DD0002F9008950F931F93CF93DF930E94E923E1
:100DE00000D000D0EDB7FEB7319623E131E0ADB7CA
:100DF000BEB712963C932E931197828313820E9462
:100E0000C34C00E010E00F900F900F900F90C2E2E3
:100E1000D1E082E090E00E94E6121123A1F400D01C
:100E200000D0EDB7FEB73196ADB7BEB71296DC93E2
:100E3000CE931197028313820E94C34C0F5F0F90D1
:100E40000F900F900F901F5F133009F410E00E9475
:100E50009125DFCF0F931F93CF93DF930E94E92358
:100E600000D000D0EDB7FEB731962FE331E0ADB73B
:100E7000BEB712963C932E931197828313820E94E1
:100E8000C34C00E010E00F900F900F900F90CEE455
:100E9000D1E081E090E00E94E6121123A1F400D09D
:100EA00000D0EDB7FEB73196ADB7BEB71296DC9362
:100EB000CE931197028313820E94C34C0F5F0F9051
:100EC0000F900F900F901F5F173009F410E00E94F1
:100ED0009125DFCF0F931F93CF93DF930E94E923D8
:100EE00000D000D0EDB7FEB731962BE631E0ADB7BC
:100EF000BEB712963C932E931197828313820E9461
:100F0000C34CC0E0D0E00F900F900F900F900AE715
:100F100011E08FEF90E00E94E61200D000D0EDB714
:100F2000FEB712830183D483C3830E94C34C0F9006
:100F30000F900F900F900E94E9230E94041A0E94C4
:100F400091252197E6CF0F931F93CF93DF9300D086
:100F500000D084E991E0ADB7BEB712969C938E9312
:100F6000119714961C921E9213970E94C34C0F90D7
:100F70000F900F900F900E94E92300D000D0EDB7A2
:100F8000FEB731962EEA31E0ADB7BEB712963C936C
:100F90002E931197828313820E94C34CC0E0D0E04D
:100FA0000F900F900F900F900DEB11E080E090E00C
:100FB0000E94E61200D000D0EDB7FEB71283018385
:100FC000D483C3830E94C34C0F900F900F900F9057
:100FD0000E949125C233D10521F40E94EE1C0E948B
:100FE00064142196E3CF0E94101387E090E00E94E2
:100FF00088130E94F61580E090E00E94FB128FEFAC
:1010000090E00E94FB1281E090E00E94FB1282E0DF
:1010100090E00E94FB1260E070E080E090E020E051
:1010200030E040E050E00E942A280E94C50581E09F
:1010300063E00E943B219093EE048093ED0481E0F5
:1010400065E00E943B21909398058093970581E08D
:1010500061E00E943B219093BE038093BD030E94F8
:10106000981580E090E0089590E00B979C012B5933
:101070003E4B880F991F880F991F280F391FF8942E
:10108000C09888E18FB9779BFECF3FB9779BFECFA1
:101090002FB9779BFECFC09A78940895F894C098A2
:1010A0001FB8779BFECF8FB1C09A789486FFF6CF9A
:1010B0000895F894C09887E08FB9779BFECFC09AC7
:1010C000C09886E08FB9779BFECFC09A7894089538
:1010D000809171070895DC01C09889EC8FB9779BE6
:1010E000FECF80E88FB9779BFECF92E09150FD0153
:1010F000E90FF11D80818FB9779BFECF9923B1F75E
:10110000C09AC0988BEC8FB9779BFECF80E88FB9DF
:10111000779BFECF92E09150FD01E90FF11D828196
:101120008FB9779BFECF9923B1F7C09A8C918093AA
:10113000720711968C9111978093730712968C9178
:1011400012978093740713968C9180937507089576
:10115000C09889E18FB9779BFECF83E08FB9779BE9
:10116000FECF86E08FB9779BFECFC09AC0988AE108
:101170008FB9779BFECF8EE08FB9779BFECF8EE045
:101180008FB9779BFECFC09A81E080936207089564
:10119000C09889E18FB9779BFECF81E08FB9779BAB
:1011A000FECF84EC8FB9779BFECFC09A1092620776
:1011B000089580916007909161070895282F30E08D
:1011C0002F713070206E306AC09885E18FB9779B9F
:1011D000FECF3FB9779BFECF2FB9779BFECFC09A4A
:1011E0000895209163073091640738603093640755
:1011F00020936307C09881E18FB9779BFECF3FB9F9
:10120000779BFECF2FB9779BFECFC09A0895209190
:10121000630730916407377F309364072093630737
:10122000C09881E18FB9779BFECF3FB9779BFECF06
:101230002FB9779BFECFC09A089581E08093700705
:1012400020916307309164072061309364072093F5
:101250006307C09881E18FB9779BFECF3FB9779B39
:10126000FECF2FB9779BFECFC09A089510927007DA
:1012700020916307309164072F7E30936407209399
:101280006307C09881E18FB9779BFECF3FB9779B09
:10129000FECF2FB9779BFECFC09A089581E080934F
:1012A0006D07C09883E08FB9779BFECFC09AC09836
:1012B00088E08FB9779BFECFC09A10927607089589
:1012C00081E080936D07C09883E08FB9779BFECF54
:1012D000C09AC09888E08FB9779BFECFC09A1092D1
:1012E0007607089510926D07C09886E08FB9779BB6
:1012F000FECFC09A10927607089580B390E024E064
:10130000969587952A95E1F78170089581B190E0CF
:1013100036E0969587953A95E1F78170089580B308
:1013200090E044E0969587954A95E1F7817008959D
:10133000DF93CF9300D000D00F92CDB7DEB70E99D8
:1013400002C080E0D1C1109271070E9B1AC0B799FC
:1013500018C0C0988FE78FB9779BFECF1FB8779BD7
:10136000FECF8FB1C09AC09888E08FB9779BFECF2F
:10137000C09AC09888E08FB9779BFECFC09A8FEF54
:10138000B3C1C0988FE78FB9779BFECF1FB8779B0B
:10139000FECF4FB1C09A4F77C1F4C0988FE78FB995
:1013A000779BFECF1FB8779BFECF8FB1C09AC098B6
:1013B00088E08FB9779BFECFC09AC09888E08FB93C
:1013C000779BFECFC09A8EEF8FC14C308CF0E091AE
:1013D0006507F0916607242F332727FD30952B50A2
:1013E00030408481992787FD9095821793077CF57B
:1013F000C0988FE78FB9779BFECF50E0242F33271B
:1014000027FD309504C01FB8779BFECF5F5F852F07
:1014100090E08217930714F4B799F5CFC09AC0985B
:101420008FE78FB9779BFECF1FB8779BFECF8FB129
:10143000C09AC09888E08FB9779BFECFC09AC098B9
:1014400088E08FB9779BFECFC09A8DEF4DC1E091B8
:101450006507F09166074C504383C0988FE78FB9BA
:10146000779BFECFFE0132969F012E5F3F4F1FB844
:10147000779BFECF8FB18193E217F307C1F7C09A34
:10148000E0916507F09166078A819B8155E096950A
:1014900087955A95E1F781708783C0988FE78FB958
:1014A000779BFECF1FB8779BFECFE0916507F09149
:1014B00066078FB18083C09AC0988FE78FB9779BFA
:1014C000FECF80E006C01FB8779BFECF8F5F8430D1
:1014D00011F0B799F8CFC09AC0988FE78FB9779B72
:1014E000FECF20E030E01FB8779BFECFE09165078C
:1014F000F09166078FB1E20FF31F81832F5F3F4F9B
:101500002230310581F7C09A8A8183FF4DC0C0988F
:101510008FE78FB9779BFECFECE5F7E01FB8779B9D
:10152000FECF8FB1819387E0E036F807B9F7C09A14
:10153000C09889E98FB9779BFECF80E88FB9779BF8
:10154000FECF92E09150E92FF0E0E45AF84F80810D
:101550008FB9779BFECF9923A9F7C09AC0988BE9E2
:101560008FB9779BFECF80E88FB9779BFECF92E053
:101570009150E92FF0E0E25AF84F80818FB9779BC4
:10158000FECF9923A9F7C09AC0988CE08FB9779BBA
:10159000FECFC09A81E080937107E0916507F091DA
:1015A0006607838184508383C0988FE78FB9779BC8
:1015B000FECF40E00FC01FB8779BFECFE0916507DC
:1015C000F09166078FB10580F681E02DE40FF11DE3
:1015D00080834F5FE0916507F0916607242F30E02C
:1015E0008381992787FD90952817390724F3C09A9E
:1015F000C0988FE78FB9779BFECF1FB8779BFECF40
:101600009FB1C09AC0988FE78FB9779BFECF99831F
:10161000FE0134969E012A5F3F4F1FB8779BFECF95
:101620008FB18193E217F307C1F7C09AE091650784
:10163000F09166078C81808750E040E00CC0E0911B
:101640006507F09166070580F681E02DE20FF31F34
:101650008081580F4F5FE0916507F0916607242F56
:1016600030E08381992787FD9095281739073CF34F
:1016700089815817C1F0C0988FE78FB9779BFECF4B
:101680001FB8779BFECF8FB1C09AC09888E08FB902
:10169000779BFECFC09AC09888E08FB9779BFECF2A
:1016A000C09A8CEF21C08D8187FF07C0809176079B
:1016B0008F5F8093760781E017C0C0988FE78FB95E
:1016C000779BFECF1FB8779BFECF8FB1C09AC09893
:1016D00088E08FB9779BFECFC09AC09888E08FB919
:1016E000779BFECFC09A8BEF0F900F900F900F90CB
:1016F0000F90CF91DF91089580917607882321F094
:1017000080917607109276070895C09888E08FB987
:10171000779BFECFC09AC09888E08FB9779BFECFA9
:10172000C09A0895992787FD9095382F2227206821
:10173000C09883E18FB9779BFECF3FB9779BFECFEF
:101740002FB9779BFECFC09A0895C09886E08FB9D5
:10175000779BFECFC09AC09882E18FB9779BFECF6E
:1017600085E08FB9779BFECF88E08FB9779BFECF5E
:10177000C09AC0988EE28FB9779BFECF88E18FB96F
:10178000779BFECF1FB8779BFECFC09A0E94850B38
:101790000895C09886E08FB9779BFECFC09AC09815
:1017A00082E18FB9779BFECF85E08FB9779BFECF23
:1017B0001FB8779BFECFC09AC0988EE28FB9779BF7
:1017C000FECF1FB8779BFECF1FB8779BFECFC09A86
:1017D0000E94850B0895C09886E08FB9779BFECF55
:1017E000C09AC09882E18FB9779BFECF85E08FB910
:1017F000779BFECF81E08FB9779BFECFC09A0E9486
:10180000850B0895C09882E18FB9779BFECF85E064
:101810008FB9779BFECF84E08FB9779BFECFC09ABC
:101820000E94850B0895282F30E02F703070809132
:10183000630790916407807F282B392B30936407CE
:1018400020936307C09881E18FB9779BFECF3FB9A2
:10185000779BFECF2FB9779BFECFC09A0895282F94
:1018600030E076E0220F331F7A95E1F730708091F7
:101870006307909164078F73282B392B309364078B
:1018800020936307C09881E18FB9779BFECF3FB962
:10189000779BFECF2FB9779BFECFC09A0895C09853
:1018A00084E08FB9779BFECFC09A0895C09886E0F8
:1018B0008FB9779BFECFC09A0895FF920F931F9325
:1018C000DF93CF9300D000D0CDB7DEB7DC014091DD
:1018D0006207442331F0C0988DE08FB9779BFECF2B
:1018E000C09A1A8212962C911297622F772767FD61
:1018F000709530E00BC01396ED91FC911497E80FB2
:10190000F91F8A819081890F8A833F5F832F90E03E
:101910008617970784F3245F29832C50442311F002
:10192000205F2983C09888E08FB9779BFECFC09A4B
:10193000C09888E08FB9779BFECFC09A0E99FECFF2
:101940008499FCCFF894C09889E08FB9779BFECF3B
:10195000C09AC09889E08FB9779BFECFC09AC09893
:101960008EE38FB9779BFECF89818FB9779BFECFAE
:10197000C09A81E498E89C838B83809170078823C8
:1019800021F081E698E89C838B83442329F08B81A6
:101990009C8188609C838B83C0988EE38FB9779BF2
:1019A000FECFFE0133969E012B5F3F4F80818FB9A2
:1019B000779BFECF3196E217F307C1F7C09AC09824
:1019C0008EE38FB9779BFECF809167078FB9779BA6
:1019D000FECFC09AC0988EE38FB9779BFECF20E0F0
:1019E00030E0F901EB59F84F84818FB9779BFECF36
:1019F0002F5F3F4F22303105A1F7C09AC0988EE388
:101A00008FB9779BFECFFD019D012E5F3F4F8081F7
:101A10008FB9779BFECF3196E217F307C1F7C09AD3
:101A2000C0988EE38FB9779BFECF20E030E0F901BC
:101A3000EB59F84F86818FB9779BFECF2F5F3F4FD1
:101A400022303105A1F7C09A442389F0C0988EE373
:101A50008FB9779BFECFE2E7F7E080818FB9779B64
:101A6000FECF319687E0E637F807B9F7C09AC098FD
:101A70008EE38FB9779BFECF20E00BC01396ED91DC
:101A8000FC911497E80FF91F80818FB9779BFECFE7
:101A90002F5F822F90E08617970784F3C09AC09833
:101AA0008EE38FB9779BFECF8A818FB9779BFECF6C
:101AB000C09A15968C91882399F180916D0788239F
:101AC00031F4C09883E08FB9779BFECFC09AC0985D
:101AD0001FB8779BFECF8FB1C09A81FFF8CF10E07F
:101AE000E5E0FE2EC098FFB8779BFECFC09AC09865
:101AF0001FB8779BFECF0FB1C09A1F5F153649F410
:101B0000789480916007909161070E94992190E0FC
:101B100042C084E690E00E94BC1303FFE3CF06C0FE
:101B2000C09884E08FB9779BFECFC09A7894849B4D
:101B3000FECF8499FECF80917007882381F084EADC
:101B400092E00E94BC13B79B0CC0C0988FE78FB97E
:101B5000779BFECF1FB8779BFECF8FB1C09A91E0E5
:101B60000DC0C09888E08FB9779BFECFC09AC0980F
:101B700088E08FB9779BFECFC09A90E0F894C09828
:101B800086E08FB9779BFECFC09A789480916707E3
:101B90008F5F80936707892F0F900F900F900F90A2
:101BA000CF91DF911F910F91FF900895CF92DF9217
:101BB000EF92FF920F931F93DF93CF9300D000D04B
:101BC000CDB7DEB77C018B016A010E94B62EC098AA
:101BD00088E08FB9779BFECFC09AC09888E08FB914
:101BE000779BFECFC09A0E99FECF8499FCCFF894D4
:101BF000C09889E08FB9779BFECFC09AC09889E0E2
:101C00008FB9779BFECFC09A1A82D70112963C916A
:101C1000432F552747FD509520E00CC0D701139660
:101C2000ED91FC911497E80FF91F8A819081890F3B
:101C30008A832F5F822F90E0841795077CF3932F80
:101C4000945F9983C0988EE38FB9779BFECF9FB93D
:101C5000779BFECFC09AF7018681882319F481E42F
:101C600098E802C081E698E89C838B83C0988EE355
:101C70008FB9779BFECFFE0133969E012B5F3F4FBE
:101C800080818FB9779BFECF3196E217F307C1F7BA
:101C9000C09AC0988EE38FB9779BFECF809167077B
:101CA0008FB9779BFECFC09AC0988EE38FB9779B90
:101CB000FECF20E030E0F901EB59F84F84818FB975
:101CC000779BFECF2F5F3F4F22303105A1F7C09A9F
:101CD000C0988EE38FB9779BFECFF70197012E5FF7
:101CE0003F4F80818FB9779BFECF3196E217F30784
:101CF000C1F7C09AC0988EE38FB9779BFECF20E0E2
:101D000030E0F901EB59F84F86818FB9779BFECF10
:101D10002F5F3F4F22303105A1F7C09AC801B601AD
:101D20000E944D2ED70115968C91882399F18091B0
:101D30006D07882331F4C09883E08FB9779BFECF7D
:101D4000C09AC0981FB8779BFECF8FB1C09A81FF11
:101D5000F8CF10E0F5E0DF2EC098DFB8779BFECF1C
:101D6000C09AC0981FB8779BFECF0FB1C09A1F5F73
:101D7000153649F4789480916007909161070E942C
:101D8000992180E060C084E690E00E94BC1303FFCC
:101D9000E3CF06C0C09884E08FB9779BFECFC09A8E
:101DA000C0988EE38FB9779BFECFF7018281482FD1
:101DB000552747FD509520E00CC0D7011396ED91B3
:101DC000FC911497E80FF91F80818FB9779BFECFA4
:101DD0002F5F822F90E0841795077CF3C09AC098FC
:101DE0008EE38FB9779BFECF8A818FB9779BFECF29
:101DF000C09A849BFECFF8948499FECFC09888E067
:101E00008FB9779BFECFC09AC09888E08FB9779B37
:101E1000FECFC09AC09889E08FB9779BFECFC09A59
:101E2000C09889E08FB9779BFECFC09AC09886E0B2
:101E30008FB9779BFECFC09A7894809167078F5FA8
:101E40008093670781E00F900F900F900F90CF91D4
:101E5000DF911F910F91FF90EF90DF90CF90089549
:101E6000DF93CF9300D0CDB7DEB79A838983909369
:101E70006C0780936B0784EF91E00E941B2EC09843
:101E80008AEE8FB9779BFECF80E88FB9779BFECF24
:101E9000FE0131969E012D5F3F4F80818FB9779B68
:101EA000FECF3196E217F307C1F7C09A84EF91E0B5
:101EB0000E941B2E0F900F90CF91DF9108954F92AB
:101EC0005F926F927F928F929F92AF92BF92CF92CA
:101ED000DF92EF92FF920F931F93DF93CF9300D087
:101EE000CDB7DEB7182F092F84E690E00E941B2E95
:101EF000212F302FC9016C0100E011E03E01089450
:101F0000611C711C33E0432E512C4C0E5D1EF601FA
:101F1000F080EE24818190E08E299F299A83898325
:101F200084E690E00E941B2EC098802F80688FB9B5
:101F3000779BFECFC80195958795807C8FB9779B5D
:101F4000FECF43015301F50180818FB9779BFECF0E
:101F50000894A11CB11C4A145B04A9F7C09A089408
:101F6000C11CD11C0E5F1F4FF1E000311F0779F635
:101F700084E690E00E941B2E20E131E040E451E035
:101F80001A821982C098842F80688FB9779BFECF00
:101F9000CA0195958795807C8FB9779BFECFF30119
:101FA00080818FB9779BFECF3196EA15FB05C1F78B
:101FB000C09AC098822F80688FB9779BFECFC901E5
:101FC00095958795807C8FB9779BFECFF3018081B3
:101FD0008FB9779BFECF3196EA15FB05C1F7C09A02
:101FE0002E5F3F4F4E5F5F4F81E02E31380741F645
:101FF00081E090E09A838983C0988EEC8FB9779BBB
:10200000FECF80E88FB9779BFECFF30180818FB937
:10201000779BFECF31964E165F06C1F7C09AC098E7
:102020008EE98FB9779BFECF80E88FB9779BFECF83
:10203000F40180818FB9779BFECF0894811C911C9D
:1020400048145904A9F7C09A0F900F90CF91DF91CF
:102050001F910F91FF90EF90DF90CF90BF90AF90C6
:102060009F908F907F906F905F904F900895F8941D
:10207000C09881E08FB9779BFECFC09A88EE93E03D
:102080000E941B2E78940895CF93DF93EC01C098A3
:1020900088E08FB9779BFECFC09AC09888E08FB94F
:1020A000779BFECFC09A862F0E943408D093660794
:1020B000C0936507DF91CF9108950E943408089579
:1020C000DF92EF92FF920F931F93DF93CF9300D095
:1020D000CDB7DEB78C01D62E5A8349837901DD9ABC
:1020E00088EE93E00E94BC13DE9881E090E00E94AD
:1020F000BC13DE9A84E690E00E94BC13F894C0986A
:1021000081E08FB9779BFECFC09A82EE92E09093E8
:10211000640780936307C09881E18FB9779BFECFF6
:1021200082E08FB9779BFECF82EE8FB9779BFECF8F
:10213000C09AC09882E18FB9779BFECF85E08FB9B6
:10214000779BFECF1FB8779BFECFC09AC0988CE1DB
:102150008FB9779BFECF1FB8779BFECF8FE78FB9E4
:10216000779BFECFC09AC09889E18FB9779BFECF4D
:1021700081E08FB9779BFECF84EC8FB9779BFECF40
:10218000C09AC09887E18FB9779BFECF8AE18FB95B
:10219000779BFECF86E58FB9779BFECFC09A84EF01
:1021A00091E00E941B2EC09888EE8FB9779BFECFDE
:1021B00080E88FB9779BFECFFE0131969E012D5F9F
:1021C0003F4F80818FB9779BFECF3196E217F3079F
:1021D000C1F7C09A84EF91E00E941B2E78948D2D58
:1021E0000E943408789410936607009365078981EC
:1021F0009A8190936A0780936907F0926C07E09246
:102200006B071092670710926D070E944E0810929C
:10221000700710926207109271070F900F90CF9184
:10222000DF911F910F91FF90EF90DF9008958091C3
:10223000EA010E9441118091E9010E944111089533
:102240008091EA010E9441118091E9010E94891167
:1022500008958FEF0895882329F48BB1881F88276C
:10226000881F0895813011F080E0089580919B00CF
:10227000881F8827881F08955F9BFECF5F988CB1C9
:102280000895382F8F3F09F442C0282F26952695B0
:10229000269581E090E002C0880F991F2A95E2F709
:1022A000982F232F30E02770307022303105E1F075
:1022B000233031053CF42115310571F02130310511
:1022C00031F50EC024303105B9F02430310584F0E9
:1022D00025303105E1F414C08BB3982B9BBB15C09E
:1022E00088B3982B98BB11C085B3982B95BB0DC0B4
:1022F00082B3982B92BB09C083B1982B93B905C0C8
:1023000080916200982B9093620081E008958FEF96
:102310000895382F8F3F09F443C0282F269526951E
:10232000269581E090E002C0880F991F2A95E2F778
:10233000982F9095232F30E0277030702230310590
:10234000E1F0233031053CF42115310571F02130E5
:10235000310531F50EC024303105B9F02430310596
:1023600084F025303105E1F414C08BB398239BBB76
:1023700015C088B3982398BB11C085B3982395BB2B
:102380000DC082B3982392BB09C083B1982393B93F
:1023900005C08091620098239093620081E00895C7
:1023A0008FEF0895282F8F3F69F190E0877090702C
:1023B00082309105A9F0833091052CF4009761F0EB
:1023C000019701F50BC08430910571F084309105BF
:1023D0004CF00597B9F40AC089B309C086B307C0A9
:1023E00083B305C080B303C081B101C080B190E068
:1023F00026952695269502C0959587952A95E2F70C
:10240000817008958FEF0895882319F080B58B7F30
:1024100002C080B5846080BD81E00895382F8F3F71
:1024200009F442C0282F26952695269581E090E054
:1024300002C0880F991F2A95E2F7982F232F30E0CA
:102440002770307022303105E1F0233031053CF443
:102450002115310571F02130310531F50EC02430E0
:102460003105B9F02430310584F025303105E1F42F
:1024700014C08BB398279BBB15C088B3982798BB13
:1024800011C085B3982795BB0DC082B3982792BB26
:1024900009C083B1982793B905C08091620098273D
:1024A0009093620081E008958FEF0895982F8F3FF9
:1024B00009F488C086958695869521E030E002C0B3
:1024C000220F331F8A95E2F7422F892F90E066236F
:1024D00009F047C02095877090708230910509F10E
:1024E0008330910534F4009771F0019709F06AC0C8
:1024F00011C08430910519F184309105CCF0059715
:1025000009F060C023C08AB328232ABB8BB3482BB1
:102510004BBB56C087B3282327BB88B3482B48BB87
:102520004FC084B3282324BB85B3482B45BB48C088
:1025300081B3282321BB82B3482B42BB41C082B167
:10254000282322B983B1482B43B93AC08091610056
:1025500028232093610080916200482B4093620001
:102560002FC08770907082309105C9F0833091053B
:102570002CF4009761F0019729F50DC08430910586
:10258000B1F0843091057CF00597E1F414C08AB372
:10259000482B4ABB15C087B3482B47BB11C084B337
:1025A000482B44BB0DC081B3482B41BB09C082B14D
:1025B000482B42B905C080916100482B40936100CF
:1025C00081E008958FEF08958FEF0895009711F43B
:1025D00080E004C08130910529F488E00E940E1249
:1025E00081E00895029711F08FEF089580E10E9435
:1025F0000E1281E00895009711F480E004C081304C
:10260000910529F488E00E94411181E00895029724
:1026100011F08FEF089580E10E94411181E008954B
:1026200080B5846080BD87E087BB88BB8FEF84BBAB
:1026300015BA82E082B987E68ABB80E48BBB80E56D
:102640008DB981E08EB980E090E00E94FB1281E0BC
:1026500090E00E94FB1282E090E00E94FB1283E077
:1026600090E00E94FB120895009711F480E004C0EE
:102670008130910529F488E00E94891181E0089554
:10268000029711F08FEF089580E10E94891181E097
:1026900008955D9BFECF5D988CB90895982F809129
:1026A0009B0085FFFCCF80919B008F7D80939B00DA
:1026B00090939C0008959093900089B986E0809350
:1026C00095005298599A8AB188618AB90895909371
:1026D00098008093990086E080939D00EAE9F0E0FD
:1026E00080818B7F8083ABE9B0E08C9182608C939A
:1026F000808188618083089580919B0087FFFCCF53
:1027000080919B008F7780939B0080919C0008951F
:10271000EF92FF920F931F930E945B1309E413E162
:102720008CE3E82E81E1F82EC801B7010E94094C24
:102730009093A8088093A708C801B7010E94094C8C
:102740009093A6088093A5081F910F91FF90EF909A
:102750000895CF93DF93EC0107C06091A7087091B3
:10276000A80890E00E94974CFE012196849188234E
:10277000A1F7DF91CF910895000000000000000054
:102780000197D1F70895FC0187E090E060810E94F5
:102790006C4D81E008950F931F93CF93DF938C01CD
:1027A000C8E0D0E0CE01F80161918F010E946C4D2C
:1027B0002196C831D105B1F781E0DF91CF911F910A
:1027C0000F910895FC0186E090E060810E946C4DBD
:1027D00081E008950E946C4D80E008950F931F934F
:1027E0008C0187E090E00E94644DF801808381E0D5
:1027F0001F910F9108950F931F93CF93DF938C0137
:10280000C8E0D0E0CE010E94644DF80181938F01B1
:102810002196C831D105B1F781E0DF91CF911F91A9
:102820000F9108950F931F938C0186E090E00E9412
:10283000644DF801808381E01F910F9108950F93FB
:102840001F938C0185E090E00E94644DF801808325
:1028500081E01F910F910895FF920F931F938C01B8
:1028600080E090E00E94644DF801838381E090E075
:102870000E94644DF801828382E090E00E94644DE2
:10288000F801818383E090E00E94644DF82EF80106
:10289000808384E090E00E94644DF8019181228160
:1028A000920F9F0D2381920F891711F08FEF01C0B6
:1028B00081E01F910F91FF9008950E94644D08954B
:1028C000F894089578940895F894FFCF85E690E001
:1028D00008950E94222A0895CF92DF92EF92FF92EC
:1028E0000F931F93CF93DF93EC018B016A018985CE
:1028F000823021F080912D08888301C01882809158
:102900002D08853020F087E060E00E943C1F89851B
:10291000823029F080912D088F5F80932D0880915F
:102920002D08882319F481E080932D088881992748
:1029300087FD909533E2E32EF12C8E9DF0018F9D63
:10294000F00D9E9DF00D1124E758F84F1183008380
:102950008881992787FD90958E9DF0018F9DF00DC0
:102960009E9DF00D1124E758F84F88858287888155
:10297000992787FD90958E9DF0018F9DF00D9E9D6E
:10298000F00D1124E758F84F83E08187888199275B
:1029900087FD90958E9DF0018F9DF00D9E9DF00D11
:1029A0001124E758F84F8BA1858B2881822F992716
:1029B00087FD90958E9DF0018F9DF00D9E9DF00DF1
:1029C0001124E758F84F20878881992787FD909533
:1029D0008E9DF0018F9DF00D9E9DF00D1124E75806
:1029E000F84F15820881112707FD1095CE010B962F
:1029F0000E943B280E9DF0010F9DF00D1E9DF00DD5
:102A00001124E758F84F968F858F8B859C85AD856F
:102A1000BE85CE97A105B10520F086E168810E94B0
:102A20003C1F0881112707FD1095CE014B960E948F
:102A30003B2823E2E22EF12C0E9DF0010F9DF00DBC
:102A40001E9DF00D1124E758F84F908F878B8881D9
:102A5000992787FD90958E9DF0018F9DF00D9E9D8D
:102A6000F00D1124E758F84F8789908D258D368D0C
:102A7000820F931F928F818F0881112707FD109578
:102A8000CE0143960E943B280E9DF0010F9DF00D54
:102A90001E9DF00D1124E758F84F90A3878F888171
:102AA000992787FD90958E9DF0018F9DF00D9E9D3D
:102AB000F00D1124E758F84F878D90A1948F838FE4
:102AC0008881992787FD90958E9DF0018F9DF00D4F
:102AD0009E9DF00D1124E758F84F81E090E092A3FD
:102AE00081A38881992787FD90958E9DF0018F9D08
:102AF000F00D9E9DF00D1124E758F84FD382C2824D
:102B00008881992787FD90958E9DF0018F9DF00D0E
:102B10009E9DF00D1124E758F84F81E08487DF91E6
:102B2000CF911F910F91FF90EF90DF90CF9008957C
:102B3000CF92DF92EF92FF920F931F93DF93CF9389
:102B40000F92CDB7DEB751E8E52E57E0F52E90E0B5
:102B5000F70100810F3FC1F041E8C42E47E0D42EB9
:102B600010E0911751F0F6018081081731F485E0EB
:102B7000602F99830E943C1F99811F5F23E230E000
:102B8000C20ED31E153069F79F5FE3E2F0E0EE0E50
:102B9000FF1E9530E9F60E947923482F552747FDFF
:102BA000509523E230E0429FF001439FF00D529F89
:102BB000F00D1124E758F84F32853093400823E296
:102BC0008202C00111248758984F90933F08809348
:102BD0003E089093300880932F08309331080E946C
:102BE0006E300E945F300E94C83CFFCF0F931F934E
:102BF000DF93CF93CDB7DEB7A4970FB6F894DEBFBF
:102C00000FBECDBF0E94812080932E088F3F21F4FC
:102C10008EE060E00E943C1F0E94992F80FF04C05C
:102C200086E060E00E943C1F0E94ED2F8F3F31F450
:102C30000E94043080E160E00E943C1F0E94F62F59
:102C40001092310810923F0810923E0810923008FE
:102C500010922F08109240080E949B1610923D0877
:102C60008FEF80932A0880932C0880932B08E1E84B
:102C7000F7E093E692838083B39628E0E033F2078F
:102C8000C9F7EAE7F8E0CF01059694838383F783D9
:102C9000E683FC0188E0E339F807A9F710927C0885
:102CA00010927B0814821382109234081092330819
:102CB0007997F0937807E09377078E010F5F1F4FA6
:102CC000C8016CEF79E20E941230C80168E376E037
:102CD00040E850E00E94733085E5809338061986FD
:102CE0001C861D861E861F86188A198A1A8A1B8AC8
:102CF0001C8A1D8A1E8A1F8A188E198E1A8E1B8E98
:102D00001C8E1D8E1E8E1F8E18A219A21AA21BA227
:102D100091E0988782E08A879B87C8010E94AD2650
:102D2000A4960FB6F894DEBF0FBECDBFCF91DF9152
:102D30001F910F91089510926504109266041092ED
:102D40006704109268041092690410926A04109249
:102D50006B0410926C04EDE9F5E01082118212828E
:102D600013821086118612861386148215821682AB
:102D700017821486158616861786108A118A128A7B
:102D8000138A108E118E128E138E148E158E7E96CF
:102D900086E0E333F80709F70895FC0180916504A4
:102DA00090916604A0916704B09168048083918338
:102DB000A283B3838091690490916A04A0916B040B
:102DC000B0916C0484839583A683B7830895382FCC
:102DD00090E0FC01B5E0EE0FFF1FBA95E1F7880F18
:102DE000991FE81BF90BE356FA4F858D813089F165
:102DF000832F90E0FC0175E0EE0FFF1F7A95E1F75D
:102E0000880F991FE81BF90BE356FA4F248D2F5FAB
:102E1000832F90E0FC0155E0EE0FFF1F5A95E1F77C
:102E2000880F991FE81BF90BE356FA4F248F2F3FA9
:102E300081F4832F90E0FC0135E0EE0FFF1F3A95FF
:102E4000E1F7880F991FE81BF90BE356FA4F81E071
:102E5000858F0895682F90E0FC0175E0EE0FFF1F4D
:102E60007A95E1F7880F991FE81BF90BE356FA4FA3
:102E7000858D813009F44FC0862F90E0FC0145E03C
:102E8000EE0FFF1F4A95E1F7880F991FE81BF90B1A
:102E9000E356FA4F148A158A168A178A862F90E00D
:102EA000FC0125E0EE0FFF1F2A95E1F7880F991F1F
:102EB000E81BF90BE356FA4F20893189428953897F
:102EC0002F5F3F4F4F4F5F4F862F90E0FC01A5E0F3
:102ED000EE0FFF1FAA95E1F7880F991FE81BF90B6A
:102EE000E356FA4F208B318B428B538B2E5F3F4F33
:102EF0004F4F5F4F81F4862F90E0FC0135E0EE0FDD
:102F0000FF1F3A95E1F7880F991FE81BF90BE3566D
:102F1000FA4F81E0858F08951F93182F90E0FC01F0
:102F2000A5E0EE0FFF1FAA95E1F7880F991FE81B98
:102F3000F90BE356FA4F858D813009F4A5C0812F36
:102F400090E09C0155E0220F331F5A95E1F7880F5E
:102F5000991F281B390B23563A4F812F90E0FC0113
:102F6000B5E0EE0FFF1FBA95E1F7880F991FE81B38
:102F7000F90BE356FA4F808D918DA28DB38D01969A
:102F8000A11DB11DF901808F918FA28FB38F462FA4
:102F900050E060E070E0812F90E09C01F5E0220FAE
:102FA000331FFA95E1F7880F991F281B390B235619
:102FB0003A4F812F90E0FC01B5E0EE0FFF1FBA956C
:102FC000E1F7880F991FE81BF90BE356FA4F848944
:102FD0009589A689B789840F951FA61FB71FF90188
:102FE000848B958BA68BB78B812F90E09C01F5E0AD
:102FF000220F331FFA95E1F7880F991F281B390B11
:1030000023563A4F812F90E0FC01B5E0EE0FFF1FF1
:10301000BA95E1F7880F991FE81BF90BE356FA4FB1
:1030200080819181A281B381480F591F6A1F7B1F44
:10303000F9014083518362837383812F90E0FC0107
:1030400035E0EE0FFF1F3A95E1F7880F991FE81B57
:10305000F90BE356FA4F808D918DA28DB38D8E5F63
:103060009F4FAF4FBF4F81F4812F90E0FC01B5E03F
:10307000EE0FFF1FBA95E1F7880F991FE81BF90BB8
:10308000E356FA4F81E0858F1F9108951F93182F03
:1030900090E0FC01B5E0EE0FFF1FBA95E1F7880F55
:1030A000991FE81BF90BE356FA4F858D813009F41F
:1030B000E4C0462F50E060E070E0812F90E09C017A
:1030C000F5E0220F331FFA95E1F7880F991F281BAF
:1030D000390B23563A4F812F90E0FC01B5E0EE0FFB
:1030E000FF1FBA95E1F7880F991FE81BF90BE3560C
:1030F000FA4F84899589A689B789840F951FA61FE1
:10310000B71FF90184879587A687B787812F90E03D
:103110009C01F5E0220F331FFA95E1F7880F991F04
:10312000281B390B23563A4F812F90E0FC01B5E064
:10313000EE0FFF1FBA95E1F7880F991FE81BF90BF7
:10314000E356FA4F80819181A281B381480F591FC4
:103150006A1F7B1FF9014083518362837383812F30
:1031600090E0FC0135E0EE0FFF1F3A95E1F7880F84
:10317000991FE81BF90BE356FA4F248135814681EC
:1031800057812115310541055105B9F0812F90E096
:10319000FC01B5E0EE0FFF1FBA95E1F7880F991F0C
:1031A000E81BF90BE356FA4F84859585A685B7850C
:1031B00082179307A407B50728F5812F90E09C019B
:1031C00075E0220F331F7A95E1F7880F991F281BAE
:1031D000390B23563A4F812F90E0FC0155E0EE0F5A
:1031E000FF1F5A95E1F7880F991FE81BF90BE3566B
:1031F000FA4F84859585A685B785F90184839583E3
:10320000A683B783812F90E0FC01B5E0EE0FFF1F8E
:10321000BA95E1F7880F991FE81BF90BE356FA4FAF
:103220002485358546855785812F90E0FC0175E022
:10323000EE0FFF1F7A95E1F7880F991FE81BF90B36
:10324000E356FA4F80859185A285B385821793074F
:10325000A407B50790F4812F90E0FC0115E0EE0F74
:10326000FF1F1A95E1F7880F991FE81BF90BE3562A
:10327000FA4F20873187428753871F910895CF9354
:10328000DF93282FEB01853010F08FEFBAC090E06C
:10329000FC0155E0EE0FFF1F5A95E1F7880F991FCB
:1032A000E81BF90BE356FA4F80819181A281B3812B
:1032B00088839983AA83BB83822F90E0FC0135E049
:1032C000EE0FFF1F3A95E1F7880F991FE81BF90BE6
:1032D000E356FA4F84819581A681B7818C839D83C3
:1032E000AE83BF83822F90E0FC01A5E0EE0FFF1FAD
:1032F000AA95E1F7880F991FE81BF90BE356FA4FDF
:1033000080859185A285B38588879987AA87BB87A1
:10331000822F90E0FC0165E0EE0FFF1F6A95E1F758
:10332000880F991FE81BF90BE356FA4F84859585A2
:10333000A685B7858C879D87AE87BF87822F90E053
:10334000FC0145E0EE0FFF1F4A95E1F7880F991F3A
:10335000E81BF90BE356FA4F80899189A289B3895A
:10336000888B998BAA8BBB8B822F90E0FC01B5E0F8
:10337000EE0FFF1FBA95E1F7880F991FE81BF90BB5
:10338000E356FA4F84899589A689B7898C8B9D8BE2
:10339000AE8BBF8B822F90E0FC0175E0EE0FFF1F1C
:1033A0007A95E1F7880F991FE81BF90BE356FA4F5E
:1033B000808D918DA28DB38D888F998FAA8FBB8FB1
:1033C000822F90E0FC0155E0EE0FFF1F5A95E1F7C8
:1033D000880F991FE81BF90BE356FA4F848D8C8FE9
:1033E000822F90E0FC0135E0EE0FFF1F3A95E1F7E8
:1033F000880F991FE81BF90BE356FA4F858D8D8FC7
:1034000081E0DF91CF910895DF92EF92FF920F93C9
:103410001F93DF93CF93CDB7DEB760970FB6F894C5
:10342000DEBF0FBECDBFD82E8BE192E00E94A91364
:1034300000D000D0EDB7FEB7319683EF91E0ADB785
:10344000BEB712969C938E931197D28213820E94DC
:10345000C34C0F900F900F900F90DD2009F080C0AB
:1034600080E092E00E94A913CE0101960E949D295E
:10347000EDB7FEB73A970FB6F894FEBF0FBEEDBF9B
:103480000DB71EB70F5F1F4F66EFE62E61E0F62EF9
:10349000F282E18289819A81AB81BC81F8018283C9
:1034A0009383A483B5836D817E818F81988520E489
:1034B00032E44FE050E00E94C24AD80116962D93A4
:1034C0003D934D935C9319970E94C34CEDB7FEB7A3
:1034D0003A960FB6F894FEBF0FBEEDBF8FED91E0A8
:1034E0000E94A9138DB79EB70A970FB6F8949EBF96
:1034F0000FBE8DBF0DB71EB70F5F1F4FADB7BEB765
:103500001296FC92EE921197809165049091660458
:10351000A0916704B0916804F80182839383A48327
:10352000B5836091690470916A0480916B049091F5
:103530006C0420E432E44FE050E00E94C24AD8011B
:1035400016962D933D934D935C9319970E94C34C0F
:10355000EDB7FEB73A960FB6F894FEBF0FBEEDBFBB
:103560008EEC91E00E94A9138D2D90E0FC0155E0B6
:10357000EE0FFF1F5A95E1F7880F991FE81BF90B13
:10358000E356FA4F60817181828193810E94D32832
:1035900029873A874B875C876D877E878F87988BD3
:1035A000DE011196FE01399688E001900D9281505E
:1035B000E1F78DB79EB70A970FB6F8949EBF0FBE7E
:1035C0008DBF0DB71EB70F5F1F4F86EF91E0ADB7F0
:1035D000BEB712969C938E93119789819A81AB8185
:1035E000BC81F80182839383A483B5836D817E813E
:1035F0008F81988520E432E44FE050E00E94C24A77
:10360000D80116962D933D934D935C9319970E9484
:10361000C34CEDB7FEB73A960FB6F894FEBF0FBE97
:10362000EDBF83EB91E00E94A9138D2D90E0FC018A
:1036300035E0EE0FFF1F3A95E1F7880F991FE81B61
:10364000F90BE356FA4F64817581868197810E9458
:10365000D32829873A874B875C876D877E878F873A
:10366000988BDE011196FE01399688E001900D924B
:103670008150E1F78DB79EB70A970FB6F8949EBFB9
:103680000FBE8DBF0DB71EB70F5F1F4F86E092E0D4
:10369000ADB7BEB712969C938E93119789819A818C
:1036A000AB81BC81F80182839383A483B5836D8150
:1036B0007E818F81988520E432E44FE050E00E94C3
:1036C000C24AD80116962D933D934D935C9319975A
:1036D0000E94C34CEDB7FEB73A960FB6F894FEBF02
:1036E0000FBEEDBF8D2D90E0FC0105E0EE0FFF1F3A
:1036F0000A95E1F7880F991FE81BF90BE356FA4F7B
:1037000064857585868597850E94D32829873A87A1
:103710004B875C876D877E878F87988BDE0111963C
:10372000FE01399688E001900D928150E1F78DB746
:103730009EB70A970FB6F8949EBF0FBE8DBF0DB708
:103740001EB70F5F1F4F86E092E0ADB7BEB712966F
:103750009C938E93119789819A81AB81BC81F801EA
:1037600082839383A483B5836D817E818F819885C5
:1037700020E432E44FE050E00E94C24AD80116969D
:103780002D933D934D935C9319970E94C34CEDB7D5
:10379000FEB73A960FB6F894FEBF0FBEEDBF8D2D63
:1037A00090E0FC01B5E0EE0FFF1FBA95E1F7880F3E
:1037B000991FE81BF90BE356FA4F608571858285E6
:1037C00093850E94D32829873A874B875C876D872A
:1037D0007E878F87988BDE011196FE01399688E0EF
:1037E00001900D928150E1F78DB79EB70A970FB601
:1037F000F8949EBF0FBE8DBF0DB71EB70F5F1F4F52
:1038000086EF91E0ADB7BEB712969C938E93119759
:1038100089819A81AB81BC81F80182839383A483DF
:10382000B5836D817E818F81988520E432E44FE0FD
:1038300050E00E94C24AD80116962D933D934D93B5
:103840005C9319970E94C34CEDB7FEB73A960FB63A
:10385000F894FEBF0FBEEDBF83EA91E00E94A9136A
:1038600000D000D000D008E112E0ADB7BEB712968C
:103870001C930E9311978D2D90E0FC0175E0EE0FD7
:10388000FF1F7A95E1F7880F991FE81BF90BE356A4
:10389000FA4F80899189A289B389EDB7FEB78383F6
:1038A0009483A583B6830E94C34C8DB79EB70696BA
:1038B0000FB6F8949EBF0FBE8DBF80E991E00E94C5
:1038C000A91300D000D000D0ADB7BEB712961C939C
:1038D0000E9311978D2D90E0FC0155E0EE0FFF1F28
:1038E0005A95E1F7880F991FE81BF90BE356FA4F39
:1038F000808D918DA28DB38DEDB7FEB783839483B8
:10390000A583B6830E94C34C8DB79EB706960FB6AB
:10391000F8949EBF0FBE8DBF87E791E00E94A91368
:1039200000D000D0ADB7BEB711960CE112E0EDB7F4
:10393000FEB7128301838D2D90E0FC0135E0EE0F80
:10394000FF1F3A95E1F7880F991FE81BF90BE35623
:10395000FA4F848D12968C93129713961C920E94A4
:10396000C34C0F900F900F900F908AE591E00E944A
:10397000A91300D000D0ADB7BEB71196EDB7FEB712
:10398000128301838D2D90E0FC0175E0EE0FFF1F87
:103990007A95E1F7880F991FE81BF90BE356FA4F68
:1039A000858D12968C93129713961C920E94C34C8D
:1039B0000F900F900F900F9087E591E00E94A91350
:1039C00060960FB6F894DEBF0FBECDBFCF91DF91EA
:1039D0001F910F91FF90EF90DF9008951F938AE35E
:1039E00091E00E94A91310E0812F0E94041A1F5F2A
:1039F0001530D1F71F91089590E0A0E0B0E0BC0130
:103A0000CD0123EB36EE4EE050E00E948F4A20912C
:103A1000690430916A0440916B0450916C04260F44
:103A2000371F481F591F2093690430936A0440933D
:103A30006B0450936C0485E694E00E940828089576
:103A4000E0913E08F0913F0884870895E0913E0898
:103A5000F0913F0884850895DC01FB0180913306D5
:103A6000882329F0808380913F048C9381E008951E
:103A7000DF93CF930F92CDB7DEB7198207C080EDE9
:103A800097E00E941B2E89818F5F8983898184360C
:103A9000B0F30F90CF91DF91089581E090E00E9404
:103AA00034130E94381D81E090E00E94FB120E94B6
:103AB000381D089581E090E00E9434130E94381D63
:103AC0000E94381D0E94381D81E090E00E94FB1288
:103AD0000E94381D0895FF920F931F93DF93CF9399
:103AE00000D00F92CDB7DEB700D000D000D0EDB738
:103AF000FEB731968E010F5F1F4FADB7BEB712965E
:103B00001C930E9311972FE132E033832283848339
:103B100015820E94D54CFF248DB79EB706960FB62E
:103B2000F8949EBF0FBE8DBF71C0A00FB11F8C91C6
:103B30008433D1F1853370F48133F9F0823320F48A
:103B4000803309F05CC016C0823311F1833309F071
:103B500056C023C08733C9F1883330F4853369F107
:103B6000863309F04CC02CC08833B1F1893309F099
:103B700046C03BC00E945A1D02C00E944D1D0E94BB
:103B80005A1D0E945A1D0E945A1D0E945A1D37C07C
:103B90000E944D1D0E944D1DF4CF0E944D1D0E949C
:103BA0004D1D0E944D1DEFCF0E944D1D0E944D1DC9
:103BB0000E944D1D0E944D1DE8CF0E944D1D02C068
:103BC0000E945A1D0E944D1D04C00E945A1D0E9451
:103BD0005A1D0E944D1D06C00E945A1D0E945A1D6A
:103BE0000E945A1D0E944D1D08C00E945A1D0E942D
:103BF0005A1D0E945A1D0E945A1D0E944D1D0E946E
:103C0000381D0E94381D0E94381DF394F801019060
:103C10000020E9F73197E01BF10BAF2DB0E0AE17B4
:103C2000BF0708F482CF0F900F900F90CF91DF91D4
:103C30001F910F91FF90089580913306882309F416
:103C40009BC082E594E00E94A91300D000D0EDB79C
:103C5000FEB731968FE192E0ADB7BEB712969C9356
:103C60008E93119780913F04828313820E94C34CEC
:103C70000F900F900F900F908EE494E00E94A91384
:103C800080913306883110F010923306809133060C
:103C900090E0FC013197E631F10508F04AC0EA5B9B
:103CA000FF4FEE0FFF1F0590F491E02D099482E184
:103CB00094E041C08BEE93E03EC087ED93E03BC0C3
:103CC00081EC93E038C086EA93E035C080E993E068
:103CD00032C088E793E02FC085E693E02CC082E5F0
:103CE00093E029C084E393E026C08FE093E023C0F3
:103CF00083E093E020C088EE92E01DC089ED92E061
:103D00001AC085EC92E017C084EB92E014C080EA00
:103D100092E011C080E892E00EC088E692E00BC00D
:103D20008DE492E008C08CE392E005C08DE292E061
:103D300002C086E292E00E94A9136091A7087091E8
:103D4000A8088DE090E00E94974C6091A7087091C0
:103D5000A8088AE090E00E94974C80913306803159
:103D600049F0833139F0843129F00E94F62F0E9406
:103D70006014FFCF1092330680E00895FF920F93F6
:103D80001F93082FF62E80E092E00E945D148F5F53
:103D9000809386038F3F11F41092860380918603EF
:103DA00016E0819FC00111248F5F9D4F602F0E94FC
:103DB000EA1380918603819FC00111248E5F9D4F7D
:103DC0006F2D0E94EA138091860323E0829FC00139
:103DD0001124880F991F20913508309136084091A1
:103DE000370850913808252F3327442755278D5FF2
:103DF0009D4F622F0E94EA1380918603819FC0012C
:103E0000112420913508309136084091370850919F
:103E100038089A01442755278C5F9D4F622F0E94D6
:103E2000EA1380918603819FC001112420913508F7
:103E3000309136084091370850913808232F342F9D
:103E4000452F55278B5F9D4F622F0E94EA1380916B
:103E50008603819FC00111248A5F9D4F60913508C0
:103E60000E94EA1380E092E0609186030E94EA13C8
:103E70001F910F91FF9008951F93182F8093330681
:103E800060933F040E94BE1E0E941C1E103149F028
:103E9000133139F0143129F00E94F62F0E9460147A
:103EA000FFCF1F91089580933306E0913E08F09173
:103EB0003F08608560933F040E94BE1E0E941C1E46
:103EC0000895992787FD909523E230E0829FF001C5
:103ED000839FF00D929FF00D1124E758F84FA281B7
:103EE000B3818C91853521F085E58C938FEF089512
:103EF000808191818050914110F481E0089582E1A8
:103F00000E94531F8FEF08956F927F928F929F921E
:103F1000AF92BF92CF92DF92EF92FF920F931F93D7
:103F2000CF93DF938EE594E00E94A91300D000D0D8
:103F300082E292E0ADB7BEB712969C938E93119732
:103F4000E0913E08F0913F088085992787FD909584
:103F500014969C938E9313970E94C34CE0913E0855
:103F6000F0913F08028113818BE292E0EDB7FEB73A
:103F700092838183148303830E94C34CEDB7FEB701
:103F8000319628E3C22E22E0D22EADB7BEB71296EC
:103F9000DC92CE921197D8018C91828313820E9479
:103FA000C34C95E4E92E92E0F92EEDB7FEB7F2820C
:103FB000E182E0913E08F0913F0880819181ADB7A8
:103FC000BEB714969C938E9313970E94C34C0FE434
:103FD00012E0EDB7FEB71283018380913E08909105
:103FE0003F08948383830E94C34CC9E7D7E0AA2487
:103FF000BB240F900F900F900F908FE5682E82E0FA
:10400000782E4601670178010A811B8100D000D01B
:1040100000D0EDB7FEB73196ADB7BEB712967C9221
:104020006E921197B382A282158304830E94C34CBF
:104030000F900F90EDB7FEB73196ADB7BEB71196A2
:104040008C92119712969C92D8018C918283138244
:104050000E94C34CEDB7FEB7C182D282888199819C
:10406000948383830E94C34CADB7BEB71196EC9284
:1040700011971296FC9212971496DC93CE93139795
:104080000E94C34C0894A11CB11CA3960F900F90E2
:104090000F900F90B5E0AB16B10409F0B5CFDF91EA
:1040A000CF911F910F91FF90EF90DF90CF90BF9035
:1040B000AF909F908F907F906F900895CF93DF93F4
:1040C000E0913E08F0913F08C281D3818881853517
:1040D00039F00E94841F81E00E94531F85E5888388
:1040E000E0913E08F0913F0880819181805091419C
:1040F00028F00E94841F82E10E94531FDF91CF911C
:1041000008954091EF045091F0046091F104709192
:10411000F20420E030E0DB01CA01022E04C0B695B3
:10412000A795979587950A94D2F781709070892BFF
:10413000D1F481E090E0A0E0B0E0022E04C0880F4E
:10414000991FAA1FBB1F0A94D2F7842B952BA62B6D
:10415000B72B8093EF049093F004A093F104B093F5
:10416000F204822F08952F5F3F4F2032310599F6D8
:104170008FEF0895E0913E08F0913F0865857685C0
:10418000878590890895EF92FF920F931F9321E006
:1041900030E040E050E004C0220F331F441F551FA1
:1041A0008A95D2F7E0913E08F0913F08E584F684C5
:1041B00007851089DA01C9018E219F21A023B1232F
:1041C0000097A105B10511F48FEF19C02095309526
:1041D00040955095E222F32204231523E586F686C6
:1041E0000787108B81899289A389B48982239323BD
:1041F000A423B523818B928BA38BB48B81E01F9179
:104200000F91FF90EF900895682F772767FD7095C5
:104210008091EF049091F004A091F104B091F20428
:10422000062E04C0B695A795979587950A94D2F760
:1042300081709070892B11F48FEF0895E0913E0802
:10424000F0913F0821E030E040E050E004C0220F50
:10425000331F441F551F6A95D2F785859685A7851C
:10426000B089822B932BA42BB52B85879687A787A4
:10427000B08B81E0089580E090E008958A529840E4
:1042800011F08FEF089580E0089580912C08882325
:1042900029F080E090E0A0E0B0E007C080912B081A
:1042A000992787FD9095A92FB92F80933406909375
:1042B0003506A0933606B093370608950E943E2136
:1042C0008F3F11F481E003C0813029F482E00E9425
:1042D000201D8FEF0895992787FD9095FC01EE0F23
:1042E000FF1FE80FF91FE65DF74F8FEF8083828392
:1042F000818380913D08815080933D0881E008953D
:104300000E943E218F3F11F481E003C0813029F4E7
:1043100082E00E94201D8FEF0895992787FD9095D8
:10432000FC01EE0FFF1FE80FF91FE65DF74F8281DA
:1043300008951F93CF93DF930E943E21182F8F3F44
:1043400011F481E003C0813029F482E00E94201D35
:104350008FEF3FC0992787FD9095EC01CC0FDD1FB3
:10436000C80FD91FC65DD74F9A818881981784F5E9
:104370000E9460148A818F5F8A83E0913E08F091E9
:104380003F081482E0E8F7E0212F332727FD30951E
:10439000432F532F63E08081823089F48285938597
:1043A000A485B58582179307A407B50741F46283F6
:1043B000118A108A10821286138614861586B39687
:1043C00088E0EF32F80739F70E9445210E94621415
:1043D00081E0DF91CF911F910895DF92EF92FF92DC
:1043E0000F931F9351E0E52EF12C012D112D04C0E8
:1043F000EE0CFF1C001F111F8A95D2F78091EF046D
:104400009091F004A091F104B091F2048E219F21CB
:10441000A023B1230097A105B10511F481E041C0AB
:104420000E946014E0E8F7E0DD2423E08081813021
:10443000B1F482859385A485B5858E219F21A02323
:10444000B1230097A105B10551F02283118A108A8A
:104450001082E286F38604871587DD24D394808159
:10446000823099F482859385A485B5858E159F0544
:10447000A007B10751F42283118A108A1082128694
:10448000138614861586DD24D394B39688E0EF3224
:10449000F80761F60E946214DD2011F081E004C08B
:1044A00082E00E94201D8FEF1F910F91FF90EF90EF
:1044B000DF900895EF92FF920F931F93CF93DF93B6
:1044C000C82FDD27C7FDD09561E0E62EF12C012D28
:1044D000112D0C2E04C0EE0CFF1C001F111F0A949E
:1044E000D2F78091EF049091F004A091F104B09183
:1044F000F2048E219F21A023B1230097A105B105CD
:1045000011F48FEF5CC00E946014E0E8F7E0A801AE
:104510009701209530954095509563E081818F3FBC
:1045200039F186819781A085B1858E159F05A007F9
:10453000B10731F4128613861486158610826283C1
:1045400086819781A085B18582239323A423B523F7
:1045500086839783A087B18782859385A485B58557
:1045600082239323A423B52382879387A487B587C7
:10457000B39688E0EF32F80789F62EEF3FEF4FEF62
:104580005FEF04C0220F331F441F551FCA95D2F797
:104590008091EF049091F004A091F104B091F204A5
:1045A00082239323A423B5238093EF049093F004F4
:1045B000A093F104B093F2040E94621481E0DF91B1
:1045C000CF911F910F91FF90EF9008951F93CF937C
:1045D000DF930E943E21182F8F3F11F481E003C02A
:1045E000813029F482E00E94201D8FEF41C00E949B
:1045F0006014C12FDD27C7FDD095FE01EE0FFF1F10
:10460000EC0FFD1FE65DF74F82818823B9F4E0913E
:104610003E08F0913F08878182608783812F992728
:1046200087FD9095A92FB92F818B928BA38BB48B8B
:104630000E94621480E090E00E94FF24FE01EE0FD1
:10464000FF1FEC0FFD1FE65DF74F828181508283D3
:10465000A0913E08B0913F0881811B968C931B97D7
:1046600081E014968C930E9462140E94452181E09F
:10467000DF91CF911F9108959B01AC01E0913E081D
:10468000F0913F0885859685A785B089822393237D
:10469000A423B5230097A105B10529F420E030E05B
:1046A00040E050E023C0218B328B438B548B81E060
:1046B000878300902E0804C0569547953795279517
:1046C0000A94D2F7C90181709070892B19F00E9469
:1046D000A32404C080E090E00E94FF24E0913E0803
:1046E000F0913F082189328943895489B901CA016F
:1046F0000895E0913308F091340880810895E091A5
:104700003308F091340803C00380F481E02D309722
:10471000D9F70895CF93DF93A0913308B09134086F
:10472000109709F453C0282F332727FD30958C911B
:1047300090E08217930779F41396ED91FC9114970A
:10474000F0933408E09333081282118212C0DA0128
:1047500041155105D9F18C9190E013964C91139726
:1047600014965C9114978217930789F722C0FA83F5
:10477000E983E0917707F0917807309749F4B09397
:104780007807A093770714961C921E9213970AC07D
:104790001496FC93EE931397B283A183B09378079A
:1047A000A0937707E0917707F09178071282118242
:1047B0000DC01196ED91FC9112974383548313968B
:1047C000CD91DC911497209791F6D3CFDF91CF91C3
:1047D0000895E0913E08F0913F08808508950E9479
:1047E0002230E0913E08F0913F0885818823B9F797
:1047F0000895FF920F931F93DF93CF93CDB7DEB74A
:1048000028970FB6F894DEBF0FBECDBF29833A8339
:104810004B835C836D837E838F8398870E945E20A9
:104820000E946014E0913E08F0913F0881E085838A
:1048300081E090E092A381A30E94B62EF82ECE01D3
:1048400001960E943B28E0913E08F0913F080F2D11
:1048500010E0800F911F908F878B87EF8F1570F07E
:104860000E94B02E0F5F1F4F90E00817190734F415
:104870008F2D8E5F80939C050E94B32E0E94621440
:104880000E94EF2381E028960FB6F894DEBF0FBE9A
:10489000CDBFCF91DF911F910F91FF9008958F921F
:1048A0009F92AF92BF92CF92DF92EF92FF920F93BF
:1048B0001F93DF93CF93CDB7DEB760970FB6F89411
:1048C000DEBF0FBECDBF29873A874B875C876D87D8
:1048D0007E878F87988BCE0101960E949D29CE01FD
:1048E000099609851A852B853C854D855E856F85E2
:1048F000788989809A80AB80BC80CD80DE80EF8013
:10490000F8840E9403278F3F59F029853A854B850B
:104910005C856D857E858F8598890E94F92381E06D
:1049200060960FB6F894DEBF0FBECDBFCF91DF917A
:104930001F910F91FF90EF90DF90CF90BF90AF90BD
:104940009F908F9008951F930E946014E0913E08FD
:10495000F0913F0881E0858386830E94B62E182F50
:10496000883F80F40E94B02E212F30E02F5F3F4F10
:1049700090E02817390734F4812F8E5F80939C05CF
:104980000E94B32E0E9462140E94EF2381E01F91C7
:1049900008951F93DF93CF93CDB7DEB728970FB657
:1049A000F894DEBF0FBECDBF29833A834B835C836F
:1049B0006D837E838F8398870E9460140E94B62E39
:1049C000182FCE0101960E943B288330910510F4E8
:1049D0008FEF0BC0E0913E08F0913F08810F911DD1
:1049E000908F878B0E94621481E028960FB6F8940E
:1049F000DEBF0FBECDBFCF91DF911F9108950F9302
:104A00001F938C010E946014E0913E08F0913F08D2
:104A100081E08583108F078B0E94B62E082F883F78
:104A200080F40E94B02E202F30E02F5F3F4F90E0A7
:104A30002817390734F4802F8E5F80939C050E94DD
:104A4000B32E0E9462140E94EF2381E01F910F9108
:104A50000895FF920F931F93CF93DF938C010E94D1
:104A60006014E0913E08F0913F0881E085830E9448
:104A7000B62EF82EE0913E08F0913F08C82FD0E006
:104A80000C0F1D1F108F078B87EF8F1568F00E948A
:104A9000B02E219690E0C817D90734F48F2D8E5F81
:104AA00080939C050E94B32E0E9462140E94EF2303
:104AB00081E0DF91CF911F910F91FF9008951F9397
:104AC000CF93DF93EC010E945E20209711F4C1E0A8
:104AD000D0E00E946014E0913E08F0913F0881E030
:104AE0008583D2A3C1A30E94B62E182F883F80F4DD
:104AF0000E94B02E212F30E02F5F3F4F90E028170B
:104B0000390734F4812F8E5F80939C050E94B32E69
:104B10000E9462140E94EF2381E0DF91CF911F91E8
:104B200008951F930E945E200E946014E0913E0849
:104B3000F0913F0881E090E092A381A381E085831A
:104B4000818D928D908F878B0E94B62E182F883F73
:104B500080F40E94B02E212F30E02F5F3F4F90E075
:104B60002817390734F4812F8E5F80939C050E94AB
:104B7000B32E0E9462140E94EF2381E01F910895DA
:104B8000E0913E08F0913F0880850E948A23E091E1
:104B90003E08F0913F0884E081870E94912581E0E2
:104BA0000895BF92CF92DF92EF92FF920F931F93DF
:104BB000CF93DF93B82E0091330810913408C09141
:104BC0007707D0917807209709F4BDC0011511052A
:104BD00009F470C00E9445212B2D332727FD309505
:104BE00083E290E0289FF001299FF00D389FF00D9F
:104BF0001124E758F84F858990E0A0E0B0E02091BB
:104C00003406309135064091360650913706281704
:104C100039074A075B0708F44DC0C18CD28C43E2C8
:104C200050E0BF01665F7F4F84E0E82EF12CEE0E6E
:104C3000FF1EDF011B96F8018081282F30E0249FA2
:104C4000F001259FF00D349FF00D1124E758F84F27
:104C5000818D928DC816D90668F18481882329F048
:104C60009385FB018081981728F1F70180818823C3
:104C700069F0249FF001259FF00D349FF00D112461
:104C8000E758F84F92858C919817A0F0249FF00177
:104C9000259FF00D349FF00D1124E758F84F9285B1
:104CA000FB018081981730F0F80103811481011510
:104CB000110509F6B882E0917707F0917807038033
:104CC000F481E02DF0937807E09377078091330823
:104CD0009091340808171907C1F40115110551F016
:104CE0001C830B831A821982D8011296DC93CE930F
:104CF000119706C01C821B821A821982D283C1833B
:104D0000D0933408C09333081EC0D80111968D91FA
:104D10009C9112970E171F0779F09A8389831C8341
:104D20000B831196ED91FC911297D483C383129655
:104D3000DC93CE93119707C01C821B829A838983D0
:104D4000F801D283C183DF91CF911F910F91FF9022
:104D5000EF90DF90CF90BF900895EF92FF920F9366
:104D60001F93CF93DF93EC0169817A814B815C8142
:104D70008D819E810E942D30BC018F81882369F036
:104D80004B815C81CE0120E030E000E010E0EE24B9
:104D9000FF240E946C141F8216C08881992787FD0A
:104DA000909523E230E0829FF001839FF00D929F67
:104DB000F00D1124E758F84F8185833011F08FEF03
:104DC0001BC0718360838881992787FD909523E2BA
:104DD00030E0829FF001839FF00D929FF00D11242F
:104DE000E758F84F8789908D892B29F482E08187D5
:104DF00088810E94D12581E0DF91CF911F910F9191
:104E0000FF90EF9008958F929F92AF92BF92CF92B2
:104E1000DF92EF92FF920F931F93DF93CF93CDB763
:104E2000DEB760970FB6F894DEBF0FBECDBFFC01B2
:104E300009831A832B833C834D835E836F8378873A
:104E400089869A86AB86BC86CD86DE86EF86F88A12
:104E500089819A81AB81BC812D813E814F815885AA
:104E6000E984FA840B851C85AD84BE84CF84D88800
:104E70008E159F05A007B107F0F1E816F9060A079D
:104E80001B0791F42A153B054C055D05A0F12A1975
:104E90003B094C095D09248335834683578310827F
:104EA0001182128213821CC02A153B054C055D0538
:104EB000C8F40197A109B1098E199F09A00BB10B84
:104EC00080839183A283B383205036434546544C5C
:104ED0002A193B094C095D0924833583468357838E
:104EE00081E00AC08E199F09A00BB10B80839183CA
:104EF000A283B383EDCF8FEF60960FB6F894DEBF39
:104F00000FBECDBFCF91DF911F910F91FF90EF901A
:104F1000DF90CF90BF90AF909F908F9008958F9229
:104F20009F92AF92BF92CF92DF92EF92FF920F9338
:104F30001F93DF93CF93CDB7DEB760970FB6F8948A
:104F4000DEBF0FBECDBFFC0109831A832B833C83D8
:104F50004D835E836F83788789869A86AB86BC860D
:104F6000CD86DE86EF86F88AAD80BE80CF80D8847D
:104F7000ED84FE840F85188989859A85AB85BC856B
:104F800029813A814B815C81820F931FA41FB51F39
:104F900080839183A283B383EA0CFB1C0C1D1D1D2F
:104FA000E482F5820683178313C080509A4CAA4985
:104FB000BB4384839583A683B78380819181A2813B
:104FC000B3810196A11DB11D80839183A283B38318
:104FD00084819581A681B78180302AEC92072AE9E5
:104FE000A2072BE3B20708F781E060960FB6F894AA
:104FF000DEBF0FBECDBFCF91DF911F910F91FF900C
:10500000EF90DF90CF90BF90AF909F908F900895DA
:10501000FC0113C080509A4CAA49BB4384839583FA
:10502000A683B78380819181A281B3810196A11D5E
:10503000B11D80839183A283B38384819581A681EE
:10504000B78180302AEC92072AE9A2072BE3B20746
:1050500008F70895609335087093360880933708F1
:10506000909338082093390830933A0840933B08CE
:1050700050933C0808956F927F928F929F92AF92C7
:10508000BF92CF92DF92EF92FF920F931F93FC019A
:105090006080718082809380648175818681978130
:1050A000611471048104910409F469C022E4621658
:1050B00071048104910418F020E030E066C05B01C7
:1050C0006C01EE24FF24870150E03DC0FA2DEB2D4A
:1050D000E65391E0EB1508F090E08C2D865621E028
:1050E0008C1508F020E0792F780F91E0781708F000
:1050F00090E0292B8D2D855C31E08D1508F030E096
:10510000622F680F91E0681708F090E0232F292B99
:105110002E0D91E02E1508F090E0492F4F0D91E0F3
:105120004F1508F090E0392F300F91E0301708F05C
:1051300090E0910FAF2EBE2EC72ED62EE22EF42E6B
:10514000032F192F5F5F852F90E0A0E0B0E0861558
:105150009705A805B90508F4B9CF9501A601B701CF
:10516000C801A3EBAA2EF6EEBF2EEEE0CE2EDD2474
:10517000EE24FF2400E010E00E94F33C06C023EB85
:1051800036EE4EE050E00E94C24AC9011F910F91D5
:10519000FF90EF90DF90CF90BF90AF909F908F9057
:1051A0007F906F900895EF92FF920F931F93DF937C
:1051B000CF93CDB7DEB728970FB6F894DEBF0FBEFA
:1051C000CDBF7B018C0173708070907023EB36EE45
:1051D0004EE050E00E948F4A6D837E838F839887D4
:1051E000A8019701BAE05695479537952795BA9546
:1051F000D1F729833A834B835C833A814B815C816D
:1052000028960FB6F894DEBF0FBECDBFCF91DF91C9
:105210001F910F91FF90EF9008956F927F928F9260
:105220009F92AF92BF92CF92DF92EF92FF920F9335
:105230001F93FC01608071808280938064817581FE
:1052400086819781611471048104910409F460C01E
:105250005B016C01EE24FF24870150E03DC0FA2D74
:10526000EB2DE65391E0EB1508F090E08C2D86567F
:1052700021E08C1508F020E0792F780F91E0781765
:1052800008F090E0292B8D2D855C31E08D1508F01C
:1052900030E0622F680F91E0681708F090E0232F4C
:1052A000292B2E0D91E02E1508F090E0492F4F0D7F
:1052B00091E04F1508F090E0392F300F91E0301752
:1052C00008F090E0910FAF2EBE2EC72ED62EE22E04
:1052D000F42E032F192F5F5F852F90E0A0E0B0E040
:1052E00086159705A805B90508F4B9CF9501A6015B
:1052F000B701C801E3EBAE2E06EEB02E1EE0C12EC4
:10530000DD24EE24FF2400E010E00E94F33C06C000
:1053100023EB36EE4EE050E00E94C24AB901CA01CA
:105320001F910F91FF90EF90DF90CF90BF90AF90C3
:105330009F908F907F906F900895EF92FF920F93C0
:105340001F93CF93DF93EC011C821D821E821F826C
:105350008091350890913608A0913708B0913808AF
:1053600088839983AA83BB83E0903908F0903A0838
:1053700000913B0810913C08EC82FD820E831F8354
:105380000E94B62E90E0A0E0B0E0BC01CD0123EB7E
:1053900036EE4EE050E00E948F4AE60EF71E081FE0
:1053A000191FEC82FD820E831F8313C080509A4C1C
:1053B000AA49BB438C839D83AE83BF838881998137
:1053C000AA81BB810196A11DB11D88839983AA83FF
:1053D000BB838C819D81AE81BF8180302AEC920796
:1053E0002AE9A2072BE3B20708F7DF91CF911F91BB
:1053F0000F91FF90EF9008950F931F9301E012E03B
:105400000E945E200E94B02E853128F4009332085D
:105410000E94223008C08AE090E00E941B2E109368
:1054200032080E94163080913806853519F088E0E0
:105430000E94531F80917E10853511F388E00E94F1
:10544000531FDECF4F925F926F927F928F929F9207
:10545000AF92BF92CF92DF92EF92FF920F931F9382
:10546000CF93DF938AEF0E94B32E0E94F42F0E9405
:105470009F2DD0909C056D2D70E080E090E023EB97
:1054800036EE4EE050E00E948F4A7B018C01809105
:10549000390890913A08A0913B08B0913C08E80E79
:1054A000F91E0A1F1B1FC801B7010E94C24AE61A53
:1054B000F70A080B190BE0923908F0923A080093AA
:1054C0003B0810933C08E0913E08F0913F0890851E
:1054D0009923B9F480913208823019F48D2D0E94FD
:1054E000FC1CE0913E08F0913F08808560919C058E
:1054F0000E948C17E0913E08F0913F08808560E0A3
:1055000005C08581882329F0892F6D2D0E944618BA
:1055100004C0892F6D2D0E948C17809135089091C1
:105520003608A0913708B091380820913908309199
:105530003A0840913B0850913C081BC0E12C66E3BF
:10554000F62E65E6062F64EC162FE20EF31E041FFE
:10555000151FC801B70123EB36EE4EE050E00E9464
:10556000C24AA8019701261B370B480B590BD601DD
:10557000C5015C016D010894A11CB11CC11CD11CAA
:1055800020306AEC36076AE946076BE35607B0F647
:105590008093350890933608A0933708B093380865
:1055A0002093390830933A0840933B0850933C08C5
:1055B000E0913E08F0913F0885818823B9F081850C
:1055C0008430A1F08781823029F0882341F08681E0
:1055D000882311F485E001C083E0818704C083E063
:1055E00081871782168280850E948A23E0913E0877
:1055F000F0913F08878D90A1892B09F459C040850F
:10560000442309F455C08185843009F451C0238DA9
:10561000348D80919C0590E02817390790F4842FF1
:105620000E94E716E0913E08F0913F0882E0608515
:105630000E943C1FE0913E08F0913F08148E138EAB
:1056400004C0281B390B348F238FE0913E08F09162
:105650003F081085838D948D892B51F5812F0E94F1
:10566000E716E0913E08F0913F088689833099F46F
:10567000878D90A1948F838F818D928D258D368D0E
:10568000820F931F928F818F812F0E948A23812FF7
:105690000E94D1250DC083E0612F0E943C1FE09144
:1056A0003E08F0913F0883E08187812F0E948A2382
:1056B000CEE7D7E0EE2440E6C42E4AEED42E31E009
:1056C000432E512C2AEF622E712C92E0F92E81E0AC
:1056D000882E912CA12CB12C8B818F3F09F4A6C070
:1056E0001882882391F18C81843079F12A893B8951
:1056F00080919C0590E02817390728F0281B390B6A
:105700003B8B2A8B02C01B8A1A8A2C893D89281759
:10571000390728F0281B390B3D8B2C8B0EC0688D68
:10572000798D8617970728F4681B790B7D8B6C8B16
:1057300004C00E94AE4A9D8B8C8B8C899D89892BDD
:1057400021F4888D998D9D8B8C8B8C81833009F011
:105750006DC08A899B89892B09F060C08A81882362
:1057600091F08981882379F0D501C40100902E0839
:1057700004C0880F991FAA1FBB1F0A94D2F78C87F9
:105780009D87AE87BF871A82198218822C8D3D8D26
:10579000488D598D8A8D9B8D2130310551F59F8B18
:1057A0008E8BFC828C899D899B8B8A8B452B11F477
:1057B0007B8A6A8A89898330C1F4E88DF98D2A8DC4
:1057C0003B8D8C899D89AC01249FC001259F900D44
:1057D000349F900D1124BF010E94AE4A8E899F898B
:1057E0006817790710F4FD8BEC8B8E2D0E94D12564
:1057F00015C09F8B8E8B21503040249FC001259F68
:10580000900D349F900D11249B8B8A8B9D8B8C8BDC
:10581000452B11F47B8A6A8A5D8E4C8E0A891B891E
:105820000115110519F00C151D0508F08601E3940A
:10583000A39655E0E51611F068014ECFE0913E08C1
:10584000F0913F0880850E942A170E947923E82E54
:10585000282F332727FD309583E290E0289FF00121
:10586000299FF00D389FF00D1124E758F84F8285DD
:105870008093400883E26E2D6802C001112487588E
:10588000984F9093300880932F08EE2089F0878DF1
:1058900090A1892B49F0C38DD48DCA3FD10520F446
:1058A000C017D107F8F01AC00B3F1105C8F416C095
:1058B0000531110598F09801245130402A3F3105F7
:1058C00038F4E9012331310568F4C3E1D0E00AC0BE
:1058D0000F50114028F4C6EED0E004C0E80102C029
:1058E000CAEFD0E0809140088093310880912F0862
:1058F0009091300890933F0880933E08C0939C0598
:105900000E94B62E90E001968C179D0738F00E94F9
:10591000B62EC82FD0E02296C0939C05EE2011F041
:10592000109232088C2F0E94B32E0E9458300E9491
:10593000C83CDF91CF911F910F91FF90EF90DF90C6
:10594000CF90BF90AF909F908F907F906F905F901F
:105950004F900895109243081092560810926908CB
:105960000895CF93DF93EB01833010F08FEF21C0C8
:10597000282F30E083E190E0289FF001299FF00D6F
:10598000389FF00D1124EF5BF74F518340838881DE
:105990009981AA81BB8183839483A583B6838C81FB
:1059A0009D81AE81BF8187839087A187B287128254
:1059B00081E0DF91CF910895833010F08FEF08954B
:1059C000282F30E083E190E0289FF001299FF00D1F
:1059D000389FF00D1124EF5BF74F128281E008959C
:1059E0001F93DF93CF93CDB7DEB728970FB6F89408
:1059F000DEBF0FBECDBF182F833010F08FEF33C046
:105A0000CE0101960E949D29212F30E083E190E094
:105A1000289FF001299FF00D389FF00D1124EF5BB6
:105A2000F74F83819481A581B68129813A814B8189
:105A30005C81820F931FA41FB51F83879487A5875E
:105A4000B68787819085A185B2852D813E814F8162
:105A50005885820F931FA41FB51F8787908BA18B3A
:105A6000B28B81E0828328960FB6F894DEBF0FBE1A
:105A7000CDBFCF91DF911F910895CF92DF92EF922A
:105A8000FF920F931F93DF93CF93CDB7DEB7289785
:105A90000FB6F894DEBF0FBECDBF182F833010F0C5
:105AA0008FEF3EC0CE0101960E949D29212F30E04C
:105AB00083E190E0AC01249FC001259F900D349FAD
:105AC000900D112421E4C22E28E0D22EC80ED91E3A
:105AD000F6012381348145815681E980FA800B816A
