:100000000C94AE050C94BB300C94CD050C94CD052E
:100010000C94CD050C94CD050C94CD050C94CD0518
:100020000C94CD050C9435300C94CD050C94CD0575
:100030000C94CD050C94CD050C94CD050C94B02FEB
:100040000C94B02F0C94CD050C94CD050C94CD05DB
:100050000C94CD050C94CD050C94CD050C94CD05D8
:100060000C94CD050C94CD050C94CD050C94CD05C8
:100070000C94CD050C94CD050C94CD050C94CD05B8
:100080000C94CD050C94CD050C94CD05181F1E1FA6
:10009000211F241F271F2A1F301F2D1F331F361F0C
:1000A000391F421F451F481F4B1F3F1F151F1B1F96
:1000B0004E1F511F3C1F121F08000000BE92244912
:1000C000123EABAAAA2ABECDCCCC4C3E000000808A
:1000D000BEABAAAAAA3E00000000BF000000803FFD
:1000E0000000000000084178D3BB4387D1133D19BD
:1000F0000E3CC3BD4282AD2B3E68EC8276BED98FEA
:10010000E1A93E4C80EFFFBE01C4FF7F3F0000002D
:10011000000007634236B79BD8A71A39685618AE55
:10012000BAAB558C1D3CB7CC5763BD6DEDFD753E2C
:10013000F6177231BF000000803F5461736B3420AA
:1001400072656C65617365642073656D6170686F5D
:100150007265310D0A005461736B3420686F6C64F2
:10016000696E672073656D6170686F7265310D0A25
:10017000005461736B3420616363657373696E67E8
:100180002073656D6170686F7265310D0A0054618E
:10019000736B332072656C65617365642073656D84
:1001A0006170686F7265310D0A000D0A2054617329
:1001B0006B3320686F6C64696E672073656D617066
:1001C000686F726531200D0A005461736B332061D2
:1001D0006363657373696E672073656D6170686FC3
:1001E0007265310D0A004572726F7220637265612B
:1001F00074696E672073656D0D0A004572726F72C7
:10020000206372656174696E672073656D0D0A0005
:100210004572726F72206372656174696E672073D4
:10022000656D20310D0A000D0A4E616E6F2D524B27
:10023000205461736B2053746174697374696373C0
:100240003A0D0A000D0A000D0A2020204F76657233
:10025000666C6F77204572726F722053746174758B
:10026000733A20000D0A2020204B65726E656C20C9
:1002700056696F6C6174696F6E733A20000D0A20C5
:100280002020507265656D7074696F6E733A20003E
:100290000D0A202020537761702D696E733A20007B
:1002A0000D0A20202054696D65205B4D696E2C4C31
:1002B0006173742C4D61785D3A20000D0A20202076
:1002C000546F74616C204350553A20000D0A202071
:1002D0002049646C65205461736B2044656570200F
:1002E000536C6565702054696D653A20000D0A20D5
:1002F0002020546F74616C2053797374656D2055A0
:100300007074696D653A2000205461736B20494414
:100310003A2000554E4B4F574E0045787465726E2B
:10032000616C2052657365740042726F776E204F66
:10033000757420446574656374004661696C656416
:1003400020746F206372656174652053656D617000
:10035000686F7265004661696C656420746F206324
:100360007265617465205369676E616C004B6572DC
:100370006E656C2066756E6374696F6E206E6F7447
:1003800020696D706C656D656E746564004465769A
:1003900069636520447269766572204572726F7276
:1003A000005761746368646F67205265737461728B
:1003B00074005357205761746368646F67205265F7
:1003C00073746172740054696D6572204F76657242
:1003D000666C6F7700556E68616E646C6564204969
:1003E0006E7465727275707420566563746F7200F6
:1003F0004C6F7720566F6C74616765004578747236
:1004000061205461736B20737461727465642C2075
:100410006973206E726B5F6366672E68206F6B3F37
:100420000049646C65206F72204B65726E656C20AC
:10043000537461636B204F766572666C6F770055FD
:100440006E6578706563746564205265737461725B
:1004500074004475706C69636174656420546173E1
:100460006B204944005363686564756C6572204D68
:1004700069737365642057616B65757000546173AF
:100480006B20526573657276652056696F6C617476
:1004900065640052657365727665204572726F728D
:1004A00020696E205363686564756C657200496EDF
:1004B00076616C696420537461636B20506F696E60
:1004C000746572005461736B20537461636B204FC9
:1004D000766572666C6F7700537461636B20776129
:1004E00073206E6F7420646566696E656420617345
:1004F000206C6172676520656E6F756768210054B6
:1005000061736B20706572696F6420746F6F206C0B
:10051000617267652E20506572696F64206D757316
:1005200074206265206C657373207468616E203678
:1005300031207365636F6E64732E00293A20002AA0
:100540004E524B204552524F5228000D0A535441EF
:10055000434B2044554D500D0A0008082A1C08083A
:100560001C2A080840444A514040514A44401474EF
:100570001C171410207F0101000000000000000083
:100580000000081C2C08087F010101010101010184
:100590007F7F40404040404040407F0000000000DE
:1005A0000000000000000000000079112711790010
:1005B00000000000000000000000000000007F01BB
:1005C000010103605048447E3E4949493E700C0396
:1005D0000C706349494963017F017F0163554941BB
:1005E0004106017E010608557F55080F107F100F48
:1005F0004E7101714E384444384400000000000040
:10060000005F00000300030000143E143E1426495E
:100610007F493262152A5423364956205000030080
:100620000000001C2241000041221C0000140E1496
:100630000008083E080800600000000808080800DC
:10064000004000000060100804033E4141413E04A8
:10065000027F0000625149454222414949360C0B54
:10066000087E084F494949313E49494932611109DB
:1006700005033649494936264949493E00220000CA
:100680000000610000000814142222141414141431
:10069000222214140806015905023E415D555E7E72
:1006A0000909097E7F494949363E414141227F413E
:1006B00041413E7F494949417F090909013E41497C
:1006C00049327F0808087F00007F0000204040403A
:1006D0003F7F081422417F404040007F0204027F98
:1006E0007F021C207F3E4141413E7F090909063EB1
:1006F0004151617E7F091929462649494932010144
:100700007F01013F4040403F1F2040201F3F4030BD
:10071000403F63140814630304780403615149459E
:10072000437F410000000000000000000000417F06
:100730000601060000404040404001020000002049
:10074000545454787F484848303844444428384406
:1007500044447F3854545418087E0909010C5252FD
:10076000523E7F04040478047D40402020404044F1
:100770003D007F102844203E5149467C047C04788B
:100780007C0804047838444444387E1212120C0C5D
:100790001212127E04780404084854545424043F6E
:1007A0004444403C40403C401C2040201C3C4030E5
:1007B000403C4428102844264848483E4464544C51
:1007C0004400083E410000007F000000413E080058
:1007D0000000000000000000000000000000000019
:1007E00000000000000000000020483E0902000058
:1007F000000000000000000004047F04040000006A
:1008000000000000000000000000000000000000E8
:1008100000000000000000000000000000000000D8
:1008200000000000000000000000000000000000C8
:1008300000000000000000000002040102000000AF
:100840000000000018180000000000000000000078
:100850000000000000000000000000000000000098
:100860000000000000000000000000000000000088
:100870000000000000000000000000000000000078
:10088000007900000000000000487E494942000055
:1008900000000015167C161500000000000A5555D2
:1008A000552800010001003E635D6B3E0000000022
:1008B0000008142A142200000000000000000000BC
:1008C0003E41754B3E01010101010002050200009D
:1008D0000000000000000000000000000000000018
:1008E0000000000000000000060F7F017F000000F4
:1008F00000000000000000000000000007050700E5
:100900000022142A14080F003C20780F0048645875
:1009100000000000003048454020000000000000BA
:100920000000000000000000007229292A717825CB
:10093000242578702A252A707E097F49490E515155
:10094000711100000000007C545655440000000066
:100950000000000000000000000000000000000097
:100960000000000000000000000000000000007A0D
:1009700009112279000000000000000000000000C2
:100980000000003A454546393D4242423D221408A6
:1009900014225C322A261D00000000000000000026
:1009A0000000000000003C4140413C00000000000D
:1009B0000000000000000000000020555654782080
:1009C000545655782056555678225155567920550B
:1009D000545578000000000024547854580C5252AA
:1009E00072123855565418385456551838565556AC
:1009F00018385554551800497A400000487A41008B
:100A0000004A794200004A78420000000000007A63
:100A100011090A7130494A483030484A4930304A51
:100A2000494A303249494A31304A484A3008082A4E
:100A3000080818643C261838414220783840422182
:100A40007838424122783842402278000000000085
:100A500000000000000C5150513C6E616E00696E48
:100A6000660000407A10F35A00A0724E1809001078
:100A7000A5D4E80000E87648170000E40B54020013
:100A800000CA9A3B000000E1F5050000809698003E
:100A9000000040420F000000A08601000000102767
:100AA00000000000E80300000000640000000000F7
:100AB0000A00000000000100000000002C76D88829
:100AC000DC674F0823DFC1DFAE59E1B1B796E5E33C
:100AD000E453C63AE651997696E8E6C28426EB8955
:100AE0008C9B62ED407C6FFCEFBC9C9F40F2BAA5F2
:100AF0006FA5F490055A2AF75C936B6CF9676DC18A
:100B00001BFCE0E40D47FEF520E6B500D0ED902E8D
:100B10000300943577050080841E080000204E0AEB
:100B2000000000C80C333333330F986E1283114129
:100B3000EF8D2114893BE65516CFFEE6DB18D184F4
:100B40004B381BF77C1D901DA4BBE424203284721B
:100B50005E228100C9F124ECA1E53D2711241FBECE
:100B6000CFEFD0E1DEBFCDBF13E0A0E0B1E0E0EA1F
:100B7000FFE900E00BBF02C007900D92AE3AB1074B
:100B8000D9F718E0AEEAB3E001C01D92A23DB1076B
:100B9000E1F70E947B080C94CE4F0C946730AF9223
:100BA000BF92DF92EF92FF920F931F93DF93CF9349
:100BB000CDB7DEB72A970FB6F894DEBF0FBECDBF14
:100BC000D82E7E010894E11CF11C87019E01255F4F
:100BD0003F4F802F8E19D8018D938D01A217B30737
:100BE000C1F780E0A82E81E0B82E00D000D0EDB78C
:100BF000FEB73196ADB7BEB71296BC92AE921197C2
:100C0000D7018D917D01828313820E94BB4D0F908D
:100C10000F900F900F90E016F10639F700D000D03A
:100C2000EDB7FEB7319684E091E0ADB7BEB712964E
:100C30009C938E931197D28213820E94BB4D0F908A
:100C40000F900F900F90B1E0BD1520F48D2D8150C5
:100C50000E94CF0580E02A960FB6F894DEBF0FBE43
:100C6000CDBFCF91DF911F910F91FF90EF90DF905B
:100C7000BF90AF9008957F928F929F92AF92BF9254
:100C8000CF92DF92EF92FF920F931F9309E614E049
:100C9000C80169EF77E00E940A31C8016FE375E08F
:100CA00040E850E00E946B31772473947092710495
:100CB00070927004709272047092730482E090E0FB
:100CC000A0E0B0E08093740490937504A093760440
:100CD000B093770480E095E6ADECBDE180937804B5
:100CE00090937904A0937A04B0937B0470928C045F
:100CF00021E0822E912CA12CB12C80927C04909228
:100D00007D04A0927E04B0927F048093800490932F
:100D10008104A0938204B0938304109284041092FF
:100D20008504109286041092870410928804109211
:100D3000890410928A0410928B04C8010E949A2799
:100D40000BE115E0C80161EA77E00E940A31C801B1
:100D500067EE73E040E850E00E946B3183E08093DF
:100D600023057092220570922405709225058092C9
:100D7000260590922705A0922805B0922905C12C3E
:100D800091EED92E95EFE92E95E0F92EC0922A0525
:100D9000D0922B05E0922C05F0922D0582E08093F5
:100DA0003E0510922E0510922F05109230051092DC
:100DB0003105C0923205D0923305E0923405F092AD
:100DC00035051092360510923705109238051092AD
:100DD000390510923A0510923B0510923C0510928D
:100DE0003D05C8010E949A270FEB13E0C80169E492
:100DF00077E00E940A31C80160EE76E040E850E0FA
:100E00000E946B3184E08093C7037092C603709296
:100E1000C8037092C9038092CA039092CB03A09238
:100E2000CC03B092CD031092CE031092CF03109258
:100E3000D0031092D1038093E2031092D203109258
:100E4000D3031092D4031092D503C092D603D0924C
:100E5000D703E092D803F092D9031092DA031092EC
:100E6000DB031092DC031092DD031092DE0310927C
:100E7000DF031092E0031092E1031F910F91FF90A6
:100E8000EF90DF90CF90BF90AF909F908F907F902A
:100E900008950F931F93CF93DF930E94B32400D044
:100EA00000D0EDB7FEB7319623E131E0ADB7BEB764
:100EB00012963C932E931197828313820E94BB4D0E
:100EC00000E013E00F900F900F900F90C2E2D1E07E
:100ED00081E090E00E94801300D000D0EDB7FEB713
:100EE0003196ADB7BEB71296DC93CE9311970283BD
:100EF00013820E94BB4D0F900F900F900F90112303
:100F000071F481E791E00E9443148091150590915E
:100F100016050E94B02386E591E00E9443141F5FEE
:100F2000133059F480911505909116050E946322A3
:100F30008AE391E00E94431410E00E945B260F5F59
:100F4000C7CF0F931F93CF93DF930E94B32400D09A
:100F500000D0EDB7FEB7319625E331E0ADB7BEB7AF
:100F600012963C932E931197828313820E94BB4D5D
:100F700000E017E00F900F900F900F90C4E4D1E0C5
:100F800081E090E00E94801300D000D0EDB7FEB762
:100F90003196ADB7BEB71296DC93CE93119702830C
:100FA00013820E94BB4D0F900F900F900F90112352
:100FB00071F489EC91E00E944314809115059091A1
:100FC00016050E94B0238AEA91E00E9443141F5F35
:100FD000173059F480911505909116050E946322EF
:100FE0008EE891E00E94431410E00E945B260F5FA0
:100FF000C7CF0F931F93CF93DF9300D000D087E527
:1010000091E0ADB7BEB712969C938E93119714964C
:101010001C921E9213970E94BB4D0F900F900F9041
:101020000F900E94B32400D000D0EDB7FEB73196E8
:1010300021E731E0ADB7BEB712963C932E931197DE
:10104000828313820E94BB4DC0E0D0E00F900F90CE
:101050000F900F9000E811E080E090E00E94801374
:1010600000D000D0EDB7FEB712830183D483C383D1
:101070000E94BB4D0F900F900F900F900E945B2627
:101080002196EACF0F931F93CF93DF930E94B3244F
:1010900000D000D0EDB7FEB7319623E931E0ADB70F
:1010A000BEB712963C932E931197828313820E94AF
:1010B000BB4DC0E0D0E00F900F900F900F9002EA70
:1010C00011E08FEF90E00E94801300D000D0EDB7C8
:1010D000FEB712830183D483C3830E94BB4D0F905C
:1010E0000F900F900F900E94B3240E94BF1A0E948D
:1010F0005B262197E6CF0E94AA1387E090E00E942A
:1011000022140E94B11680E090E00E9495138FEFA8
:1011100090E00E94951381E090E00E94951382E098
:1011200090E00E94951360E070E080E090E020E0A5
:1011300030E040E050E00E9419290E943B0681E027
:1011400063E00E9405229093160580931505892B74
:1011500021F480E192E00E94431481E065E00E9466
:1011600005229093C0058093BF05892B21F48BEF56
:1011700091E00E94431481E061E00E940522909377
:10118000E6038093E503892B21F486EE91E00E942B
:1011900043140E94521680E090E0089590E00B976F
:1011A0009C012B593E4B880F991F880F991F280FC0
:1011B000391FF894C09888E18FB9779BFECF3FB96B
:1011C000779BFECF2FB9779BFECFC09A7894089576
:1011D000F894C0981FB8779BFECF8FB1C09A7894CF
:1011E00086FFF6CF0895F894C09887E08FB9779B73
:1011F000FECFC09AC09886E08FB9779BFECFC09A89
:1012000078940895809199070895DC01C09889EC3D
:101210008FB9779BFECF80E88FB9779BFECF92E0A6
:101220009150FD01E90FF11D80818FB9779BFECFB1
:101230009923B1F7C09AC0988BEC8FB9779BFECFFA
:1012400080E88FB9779BFECF92E09150FD01E90FC6
:10125000F11D82818FB9779BFECF9923B1F7C09A98
:101260008C9180939A0711968C91119780939B078C
:1012700012968C91129780939C0713968C91809371
:101280009D070895C09889E18FB9779BFECF83E0D1
:101290008FB9779BFECF86E08FB9779BFECFC09A40
:1012A000C0988AE18FB9779BFECF8EE08FB9779B8C
:1012B000FECF8EE08FB9779BFECFC09A81E08093FE
:1012C0008A070895C09889E18FB9779BFECF81E0A6
:1012D0008FB9779BFECF84EC8FB9779BFECFC09AF6
:1012E00010928A0708958091880790918907089540
:1012F000282F30E02F713070206E306AC09885E161
:101300008FB9779BFECF3FB9779BFECF2FB9779BE5
:10131000FECFC09A089520918B0730918C073860DA
:1013200030938C0720938B07C09881E18FB9779B0E
:10133000FECF3FB9779BFECF2FB9779BFECFC09AE8
:10134000089520918B0730918C07377F30938C075D
:1013500020938B07C09881E18FB9779BFECF3FB96F
:10136000779BFECF2FB9779BFECFC09A089581E07F
:101370008093980720918B0730918C0720613093E0
:101380008C0720938B07C09881E18FB9779BFECFA4
:101390003FB9779BFECF2FB9779BFECFC09A0895B8
:1013A0001092980720918B0730918C072F7E3093F5
:1013B0008C0720938B07C09881E18FB9779BFECF74
:1013C0003FB9779BFECF2FB9779BFECFC09A089588
:1013D00081E080939507C09883E08FB9779BFECF1B
:1013E000C09AC09888E08FB9779BFECFC09A1092C0
:1013F0009E07089581E080939507C09883E08FB998
:10140000779BFECFC09AC09888E08FB9779BFECFBC
:10141000C09A10929E07089510929507C09886E092
:101420008FB9779BFECFC09A10929E07089580B324
:1014300090E024E0969587952A95E1F781700895CC
:1014400081B190E036E0969587953A95E1F7817005
:10145000089580B390E044E0969587954A95E1F72A
:1014600081700895DF93CF9300D000D00F92CDB755
:10147000DEB70E9902C080E0D1C1109299070E9B91
:101480001AC0B79918C0C0988FE78FB9779BFECF65
:101490001FB8779BFECF8FB1C09AC09888E08FB9F4
:1014A000779BFECFC09AC09888E08FB9779BFECF1C
:1014B000C09A8FEFB3C1C0988FE78FB9779BFECFEB
:1014C0001FB8779BFECF4FB1C09A4F77C1F4C09839
:1014D0008FE78FB9779BFECF1FB8779BFECF8FB179
:1014E000C09AC09888E08FB9779BFECFC09AC09809
:1014F00088E08FB9779BFECFC09A8EEF8FC14C30BA
:101500008CF0E0918D07F0918E07242F332727FD73
:1015100030952B5030408481992787FD9095821714
:1015200093077CF5C0988FE78FB9779BFECF50E08B
:10153000242F332727FD309504C01FB8779BFECF9B
:101540005F5F852F90E08217930714F4B799F5CF6A
:10155000C09AC0988FE78FB9779BFECF1FB8779B53
:10156000FECF8FB1C09AC09888E08FB9779BFECF2D
:10157000C09AC09888E08FB9779BFECFC09A8DEF54
:101580004DC1E0918D07F0918E074C504383C09878
:101590008FE78FB9779BFECFFE0132969F012E5FBA
:1015A0003F4F1FB8779BFECF8FB18193E217F307B0
:1015B000C1F7C09AE0918D07F0918E078A819B81D7
:1015C00055E0969587955A95E1F781708783C09885
:1015D0008FE78FB9779BFECF1FB8779BFECFE09147
:1015E0008D07F0918E078FB18083C09AC0988FE7E6
:1015F0008FB9779BFECF80E006C01FB8779BFECFE8
:101600008F5F843011F0B799F8CFC09AC0988FE7F8
:101610008FB9779BFECF20E030E01FB8779BFECFDD
:10162000E0918D07F0918E078FB1E20FF31F818358
:101630002F5F3F4F2230310581F7C09A8A8183FFA7
:101640004DC0C0988FE78FB9779BFECFE4E8F7E0F5
:101650001FB8779BFECF8FB1819387E0E838F807FA
:10166000B9F7C09AC09889E98FB9779BFECF80E817
:101670008FB9779BFECF92E09150E92FF0E0EC57C5
:10168000F84F80818FB9779BFECF9923A9F7C09A35
:10169000C0988BE98FB9779BFECF80E88FB9779B95
:1016A000FECF92E09150E92FF0E0EA57F84F8081A9
:1016B0008FB9779BFECF9923A9F7C09AC0988CE089
:1016C0008FB9779BFECFC09A81E080939907E09114
:1016D0008D07F0918E07838184508383C0988FE7B4
:1016E0008FB9779BFECF40E00FC01FB8779BFECF2E
:1016F000E0918D07F0918E078FB10580F681E02D86
:10170000E40FF11D80834F5FE0918D07F0918E070C
:10171000242F30E08381992787FD9095281739077A
:1017200024F3C09AC0988FE78FB9779BFECF1FB87C
:10173000779BFECF9FB1C09AC0988FE78FB9779BF8
:10174000FECF9983FE0134969E012A5F3F4F1FB85A
:10175000779BFECF8FB18193E217F307C1F7C09A51
:10176000E0918D07F0918E078C81808750E040E0FA
:101770000CC0E0918D07F0918E070580F681E02D79
:10178000E20FF31F8081580F4F5FE0918D07F091BA
:101790008E07242F30E08381992787FD90952817A5
:1017A00039073CF389815817C1F0C0988FE78FB98A
:1017B000779BFECF1FB8779BFECF8FB1C09AC098A2
:1017C00088E08FB9779BFECFC09AC09888E08FB928
:1017D000779BFECFC09A8CEF21C08D8187FF07C019
:1017E00080919E078F5F80939E0781E017C0C0980D
:1017F0008FE78FB9779BFECF1FB8779BFECF8FB156
:10180000C09AC09888E08FB9779BFECFC09AC098E5
:1018100088E08FB9779BFECFC09A8BEF0F900F9027
:101820000F900F900F90CF91DF91089580919E07B8
:10183000882321F080919E0710929E070895C098FA
:1018400088E08FB9779BFECFC09AC09888E08FB9A7
:10185000779BFECFC09A0895992787FD9095382FE2
:1018600022272068C09883E18FB9779BFECF3FB9CC
:10187000779BFECF2FB9779BFECFC09A0895C09873
:1018800086E08FB9779BFECFC09AC09882E18FB96E
:10189000779BFECF85E08FB9779BFECF88E08FB92D
:1018A000779BFECFC09AC0988EE28FB9779BFECF10
:1018B00088E18FB9779BFECF1FB8779BFECFC09A88
:1018C0000E941F0C0895C09886E08FB9779BFECFC9
:1018D000C09AC09882E18FB9779BFECF85E08FB91F
:1018E000779BFECF1FB8779BFECFC09AC0988EE241
:1018F0008FB9779BFECF1FB8779BFECF1FB8779B22
:10190000FECFC09A0E941F0C0895C09886E08FB940
:10191000779BFECFC09AC09882E18FB9779BFECFAC
:1019200085E08FB9779BFECF81E08FB9779BFECFA3
:10193000C09A0E941F0C0895C09882E18FB9779BCE
:10194000FECF85E08FB9779BFECF84E08FB9779B80
:10195000FECFC09A0E941F0C0895282F30E02F70F0
:10196000307080918B0790918C07807F282B392BCA
:1019700030938C0720938B07C09881E18FB9779BB8
:10198000FECF3FB9779BFECF2FB9779BFECFC09A92
:101990000895282F30E076E0220F331F7A95E1F783
:1019A000307080918B0790918C078F73282B392B87
:1019B00030938C0720938B07C09881E18FB9779B78
:1019C000FECF3FB9779BFECF2FB9779BFECFC09A52
:1019D0000895C09884E08FB9779BFECFC09A089590
:1019E000C09886E08FB9779BFECFC09A0895FF928A
:1019F0000F931F93DF93CF9300D000D0CDB7DEB706
:101A0000DC0140918A07442331F0C0988DE08FB902
:101A1000779BFECFC09A1A8212962C911297622F52
:101A2000772767FD709530E00BC01396ED91FC9120
:101A30001497E80FF91F8A819081890F8A833F5F8D
:101A4000832F90E08617970784F3245F29832C5017
:101A5000442311F0205F2983C09888E08FB9779BD9
:101A6000FECFC09AC09888E08FB9779BFECFC09A0E
:101A70000E99FECF8499FCCFF894C09889E08FB975
:101A8000779BFECFC09AC09889E08FB9779BFECF35
:101A9000C09AC0988EE38FB9779BFECF89818FB9AA
:101AA000779BFECFC09A81E498E89C838B838091DA
:101AB0009807882321F081E698E89C838B83442350
:101AC00029F08B819C8188609C838B83C0988EE3F6
:101AD0008FB9779BFECFFE0133969E012B5F3F4F60
:101AE00080818FB9779BFECF3196E217F307C1F75C
:101AF000C09AC0988EE38FB9779BFECF80918F07F5
:101B00008FB9779BFECFC09AC0988EE38FB9779B31
:101B1000FECF20E030E0F901E357F84F84818FB920
:101B2000779BFECF2F5F3F4F22303105A1F7C09A40
:101B3000C0988EE38FB9779BFECFFD019D012E5F8C
:101B40003F4F80818FB9779BFECF3196E217F30725
:101B5000C1F7C09AC0988EE38FB9779BFECF20E083
:101B600030E0F901E357F84F86818FB9779BFECFBC
:101B70002F5F3F4F22303105A1F7C09A442389F0EF
:101B8000C0988EE38FB9779BFECFEAE9F7E08081BA
:101B90008FB9779BFECF319687E0EE39F807B9F71A
:101BA000C09AC0988EE38FB9779BFECF20E00BC020
:101BB0001396ED91FC911497E80FF91F80818FB96E
:101BC000779BFECF2F5F822F90E08617970784F3D5
:101BD000C09AC0988EE38FB9779BFECF8A818FB968
:101BE000779BFECFC09A15968C91882399F18091AE
:101BF0009507882331F4C09883E08FB9779BFECF97
:101C0000C09AC0981FB8779BFECF8FB1C09A81FF52
:101C1000F8CF10E0E5E0FE2EC098FFB8779BFECF2E
:101C2000C09AC0981FB8779BFECF0FB1C09A1F5FB4
:101C3000153649F4789480918807909189070E941D
:101C4000632290E042C084E690E00E94561403FFB5
:101C5000E3CF06C0C09884E08FB9779BFECFC09ACF
:101C60007894849BFECF8499FECF80919807882337
:101C700081F084EA92E00E945614B79B0CC0C09891
:101C80008FE78FB9779BFECF1FB8779BFECF8FB1C1
:101C9000C09A91E00DC0C09888E08FB9779BFECFC5
:101CA000C09AC09888E08FB9779BFECFC09A90E029
:101CB000F894C09886E08FB9779BFECFC09A78944D
:101CC00080918F078F5F80938F07892F0F900F90E0
:101CD0000F900F90CF91DF911F910F91FF9008957A
:101CE000CF92DF92EF92FF920F931F93DF93CF93E8
:101CF00000D000D0CDB7DEB77C018B016A010E9415
:101D0000AE2FC09888E08FB9779BFECFC09AC0985D
:101D100088E08FB9779BFECFC09A0E99FECF849949
:101D2000FCCFF894C09889E08FB9779BFECFC09A1A
:101D3000C09889E08FB9779BFECFC09A1A82D701ED
:101D400012963C91432F552747FD509520E00CC03B
:101D5000D7011396ED91FC911497E80FF91F8A8132
:101D60009081890F8A832F5F822F90E084179507D7
:101D70007CF3932F945F9983C0988EE38FB9779B00
:101D8000FECF9FB9779BFECFC09AF701868188234B
:101D900019F481E498E802C081E698E89C838B837B
:101DA000C0988EE38FB9779BFECFFE0133969E01DC
:101DB0002B5F3F4F80818FB9779BFECF3196E21723
:101DC000F307C1F7C09AC0988EE38FB9779BFECF17
:101DD00080918F078FB9779BFECFC09AC0988EE312
:101DE0008FB9779BFECF20E030E0F901E357F84F41
:101DF00084818FB9779BFECF2F5F3F4F2230310513
:101E0000A1F7C09AC0988EE38FB9779BFECFF701F8
:101E100097012E5F3F4F80818FB9779BFECF319620
:101E2000E217F307C1F7C09AC0988EE38FB9779B8A
:101E3000FECF20E030E0F901E357F84F86818FB9FB
:101E4000779BFECF2F5F3F4F22303105A1F7C09A1D
:101E5000C801B6010E94452FD70115968C918823A1
:101E600099F180919507882331F4C09883E08FB968
:101E7000779BFECFC09AC0981FB8779BFECF8FB1DB
:101E8000C09A81FFF8CF10E0F5E0DF2EC098DFB8F0
:101E9000779BFECFC09AC0981FB8779BFECF0FB13B
:101EA000C09A1F5F153649F4789480918807909105
:101EB00089070E94632280E060C084E690E00E946F
:101EC000561403FFE3CF06C0C09884E08FB9779B18
:101ED000FECFC09AC0988EE38FB9779BFECFF701F3
:101EE0008281482F552747FD509520E00CC0D7012F
:101EF0001396ED91FC911497E80FF91F80818FB92B
:101F0000779BFECF2F5F822F90E0841795077CF39D
:101F1000C09AC0988EE38FB9779BFECF8A818FB924
:101F2000779BFECFC09A849BFECFF8948499FECF16
:101F3000C09888E08FB9779BFECFC09AC09888E0A0
:101F40008FB9779BFECFC09AC09889E08FB9779BF5
:101F5000FECFC09AC09889E08FB9779BFECFC09A18
:101F6000C09886E08FB9779BFECFC09A7894809115
:101F70008F078F5F80938F0781E00F900F900F90F6
:101F80000F90CF91DF911F910F91FF90EF90DF9015
:101F9000CF900895DF93CF9300D0CDB7DEB79A836B
:101FA0008983909394078093930784EF91E00E9434
:101FB000132FC0988AEE8FB9779BFECF80E88FB938
:101FC000779BFECFFE0131969E012D5F3F4F8081B2
:101FD0008FB9779BFECF3196E217F307C1F7C09A0E
:101FE00084EF91E00E94132F0F900F90CF91DF911B
:101FF00008954F925F926F927F928F929F92AF92CD
:10200000BF92CF92DF92EF92FF920F931F93DF93D5
:10201000CF9300D0CDB7DEB7182F092F84E690E01C
:102020000E94132F212F302FC9016C0100E011E015
:102030003E010894611C711C33E0432E512C4C0E60
:102040005D1EF601F080EE24818190E08E299F29AB
:102050009A83898384E690E00E94132FC098802F92
:1020600080688FB9779BFECFC80195958795807C56
:102070008FB9779BFECF43015301F50180818FB962
:10208000779BFECF0894A11CB11C4A145B04A9F7EE
:10209000C09A0894C11CD11C0E5F1F4FF1E00031A3
:1020A0001F0779F684E690E00E94132F20E131E0CB
:1020B00040E451E01A821982C098842F80688FB959
:1020C000779BFECFCA0195958795807C8FB9779BCA
:1020D000FECFF30180818FB9779BFECF3196EA1551
:1020E000FB05C1F7C09AC098822F80688FB9779B93
:1020F000FECFC90195958795807C8FB9779BFECFE0
:10210000F30180818FB9779BFECF3196EA15FB05ED
:10211000C1F7C09A2E5F3F4F4E5F5F4F81E02E3177
:10212000380741F681E090E09A838983C0988EEC6D
:102130008FB9779BFECF80E88FB9779BFECFF301F5
:1021400080818FB9779BFECF31964E165F06C1F71F
:10215000C09AC0988EE98FB9779BFECF80E88FB97F
:10216000779BFECFF40180818FB9779BFECF0894D7
:10217000811C911C48145904A9F7C09A0F900F9024
:10218000CF91DF911F910F91FF90EF90DF90CF9053
:10219000BF90AF909F908F907F906F905F904F9087
:1021A0000895F894C09881E08FB9779BFECFC09ACC
:1021B00088EE93E00E94132F78940895CF93DF93D5
:1021C000EC01C09888E08FB9779BFECFC09AC09889
:1021D00088E08FB9779BFECFC09A862F0E94CE08E9
:1021E000D0938E07C0938D07DF91CF9108950E9401
:1021F000CE080895DF92EF92FF920F931F93DF9323
:10220000CF9300D0CDB7DEB78C01D62E5A83498349
:102210007901DD9A88EE93E00E945614DE9881E001
:1022200090E00E945614DE9A84E690E00E945614D4
:10223000F894C09881E08FB9779BFECFC09A82EE68
:1022400092E090938C0780938B07C09881E18FB9BF
:10225000779BFECF82E08FB9779BFECF82EE8FB95E
:10226000779BFECFC09AC09882E18FB9779BFECF53
:1022700085E08FB9779BFECF1FB8779BFECFC09AC2
:10228000C0988CE18FB9779BFECF1FB8779BFECFAC
:102290008FE78FB9779BFECFC09AC09889E18FB93D
:1022A000779BFECF81E08FB9779BFECF84EC8FB90F
:1022B000779BFECFC09AC09887E18FB9779BFECFFE
:1022C0008AE18FB9779BFECF86E58FB9779BFECFEA
:1022D000C09A84EF91E00E94132FC09888EE8FB9C6
:1022E000779BFECF80E88FB9779BFECFFE013196BA
:1022F0009E012D5F3F4F80818FB9779BFECF319636
:10230000E217F307C1F7C09A84EF91E00E94132F00
:1023100078948D2D0E94CE08789410938E070093A8
:102320008D0789819A819093920780939107F0920B
:102330009407E092930710928F07109295070E94DE
:10234000E8081092980710928A07109299070F9048
:102350000F90CF91DF911F910F91FF90EF90DF9041
:1023600008958091D6010E94DB118091D5010E94D1
:10237000DB1108958091D6010E94DB118091D50177
:102380000E94231208958FEF0895882329F48BB1BA
:10239000881F8827881F0895813011F080E00895F4
:1023A00080919B00881F8827881F08955F9BFECF20
:1023B0005F988CB10895382F8F3F09F442C0282FC1
:1023C00026952695269581E090E002C0880F991FFA
:1023D0002A95E2F7982F232F30E0277030702230B3
:1023E0003105E1F0233031053CF42115310571F060
:1023F0002130310531F50EC024303105B9F02430DB
:10240000310584F025303105E1F414C08BB3982BED
:102410009BBB15C088B3982B98BB11C085B3982B74
:1024200095BB0DC082B3982B92BB09C083B1982B8A
:1024300093B905C080916200982B9093620081E06F
:1024400008958FEF0895382F8F3F09F443C0282F48
:1024500026952695269581E090E002C0880F991F69
:102460002A95E2F7982F9095232F30E0277030704F
:1024700022303105E1F0233031053CF421153105DE
:1024800071F02130310531F50EC024303105B9F03D
:102490002430310584F025303105E1F414C08BB3CC
:1024A00098239BBB15C088B3982398BB11C085B3F4
:1024B000982395BB0DC082B3982392BB09C083B10A
:1024C000982393B905C0809162009823909362008D
:1024D00081E008958FEF0895282F8F3F69F190E0F4
:1024E0008770907082309105A9F0833091052CF4AB
:1024F000009761F0019701F50BC08430910571F0F0
:10250000843091054CF00597B9F40AC089B309C02D
:1025100086B307C083B305C080B303C081B101C0D7
:1025200080B190E026952695269502C095958795D1
:102530002A95E2F7817008958FEF0895882319F0A6
:1025400080B58B7F02C080B5846080BD81E0089536
:10255000382F8F3F09F442C0282F269526952695BF
:1025600081E090E002C0880F991F2A95E2F7982F2A
:10257000232F30E02770307022303105E1F0233016
:1025800031053CF42115310571F02130310531F56B
:102590000EC024303105B9F02430310584F02530E7
:1025A0003105E1F414C08BB398279BBB15C088B3E9
:1025B000982798BB11C085B3982795BB0DC082B3EF
:1025C000982792BB09C083B1982793B905C0809121
:1025D000620098279093620081E008958FEF08953C
:1025E000982F8F3F09F488C086958695869521E0BF
:1025F00030E002C0220F331F8A95E2F7422F892F65
:1026000090E0662309F047C0209587709070823073
:10261000910509F18330910534F4009771F0019729
:1026200009F06AC011C08430910519F18430910518
:10263000CCF0059709F060C023C08AB328232ABBD9
:102640008BB3482B4BBB56C087B3282327BB88B31B
:10265000482B48BB4FC084B3282324BB85B3482BE9
:1026600045BB48C081B3282321BB82B3482B42BB62
:1026700041C082B1282322B983B1482B43B93AC063
:102680008091610028232093610080916200482B93
:10269000409362002FC08770907082309105C9F01E
:1026A000833091052CF4009761F0019729F50DC056
:1026B00084309105B1F0843091057CF00597E1F408
:1026C00014C08AB3482B4ABB15C087B3482B47BBFD
:1026D00011C084B3482B44BB0DC081B3482B41BB10
:1026E00009C082B1482B42B905C080916100482BD6
:1026F0004093610081E008958FEF08958FEF089572
:10270000009711F480E004C08130910529F488E03D
:102710000E94A81281E00895029711F08FEF0895AA
:1027200080E10E94A81281E00895009711F480E0F2
:1027300004C08130910529F488E00E94DB1181E01A
:102740000895029711F08FEF089580E10E94DB1148
:1027500081E0089580B5846080BD87E087BB88BB39
:102760008FEF84BB15BA82E082B987E68ABB80E42A
:102770008BBB80E58DB981E08EB980E090E00E944E
:10278000951381E090E00E94951382E090E00E9412
:10279000951383E090E00E9495130895009711F43B
:1027A00080E004C08130910529F488E00E94231262
:1027B00081E00895029711F08FEF089580E10E9463
:1027C000231281E008955D9BFECF5D988CB908953A
:1027D000982F80919B0085FFFCCF80919B008F7D7F
:1027E00080939B0090939C0008959093900089B9EA
:1027F00086E0809395005298599A8AB188618AB987
:102800000895909398008093990086E080939D00AE
:10281000EAE9F0E080818B7F8083ABE9B0E08C91C6
:1028200082608C93808188618083089580919B0071
:1028300087FFFCCF80919B008F7780939B008091D6
:102840009C000895EF92FF920F931F930E94F5133F
:1028500003EE13E186EDE82E81E1F82EC801B70101
:102860000E94014D9093CB088093CA08C801B7011C
:102870000E94014D9093C9088093C8081F910F9141
:10288000FF90EF900895CF93DF93EC0107C0609124
:10289000CA087091CB0890E00E948F4DFE012196EE
:1028A00084918823A1F7DF91CF9108950000000063
:1028B000000000000197D1F70895FC0187E090E047
:1028C00060810E94994E81E008950F931F93CF93EA
:1028D000DF938C01C8E0D0E0CE01F80161918F0157
:1028E0000E94994E2196C831D105B1F781E0DF9160
:1028F000CF911F910F910895FC0186E090E06081D7
:102900000E94994E81E008950E94994E80E00895BA
:102910000F931F938C0187E090E00E94914EF80185
:10292000808381E01F910F9108950F931F93CF93A0
:10293000DF938C01C8E0D0E0CE010E94914EF801F7
:1029400081938F012196C831D105B1F781E0DF91E4
:10295000CF911F910F9108950F931F938C0186E0E3
:1029600090E00E94914EF801808381E01F910F91C9
:1029700008950F931F938C0185E090E00E94914E83
:10298000F801808381E01F910F910895FF920F93CA
:102990001F938C0180E090E00E94914EF8018383A8
:1029A00081E090E00E94914EF801828382E090E005
:1029B0000E94914EF801818383E090E00E94914E45
:1029C000F82EF801808384E090E00E94914EF80197
:1029D00091812281920F9F0D2381920F891711F00F
:1029E0008FEF01C081E01F910F91FF9008950E9429
:1029F000914E0895F894089578940895F894FFCF2F
:102A000085E690E008950E94112B0895EF92FF92C1
:102A10000F931F93CF93DF93EC018B017A0189858C
:102A2000823021F080915008888301C01882809103
:102A30005008853020F087E060E00E94F71F89850C
:102A4000823029F0809150088F5F809350088091E8
:102A50005008882319F481E08093500888819927D1
:102A600087FD9095FC0135E0EE0FFF1F3A95E1F7E9
:102A7000880F991FE80FF91FEF55F84F1183008356
:102A80008881992787FD9095FC0115E0EE0FFF1FC7
:102A90001A95E1F7880F991FE80FF91FEF55F84FC6
:102AA000888582878881992787FD9095FC01A5E01C
:102AB000EE0FFF1FAA95E1F7880F991FE80FF91F86
:102AC000EF55F84F83E081878881992787FD90959E
:102AD000FC0165E0EE0FFF1F6A95E1F7880F991F73
:102AE000E80FF91FEF55F84F8BA1858B2881822FB6
:102AF000992787FD9095FC0145E0EE0FFF1F4A9551
:102B0000E1F7880F991FE80FF91FEF55F84F20875D
:102B10008881992787FD9095FC0105E0EE0FFF1F46
:102B20000A95E1F7880F991FE80FF91FEF55F84F45
:102B300015820881112707FD1095CE010B960E9482
:102B40002A29F801B5E0EE0FFF1FBA95E1F7000F53
:102B5000111FE00FF11FEF55F84F958F848F8B8574
:102B60009C85AD85BE85CE97A105B10520F086E197
:102B700068810E94F71F0881112707FD1095CE017B
:102B80004B960E942A29F80175E0EE0FFF1F7A95F7
:102B9000E1F7000F111FE00FF11FEF55F84F978B72
:102BA000868B8881992787FD9095FC0155E0EE0F73
:102BB000FF1F5A95E1F7880F991FE80FF91FEF558E
:102BC000F84F86899789248D358D820F931F918FB9
:102BD000808F0881112707FD1095CE0143960E9432
:102BE0002A29F80135E0EE0FFF1F3A95E1F7000FB3
:102BF000111FE00FF11FEF55F84F978F868F8881D7
:102C0000992787FD9095FC01B5E0EE0FFF1FBA955F
:102C1000E1F7880F991FE80FF91FEF55F84F868DE0
:102C2000978D938F828F8881992787FD9095FC01DE
:102C300075E0EE0FFF1F7A95E1F7880F991FE80FF7
:102C4000F91FEF55F84F81E090E091A380A38881B0
:102C5000992787FD9095FC0154E0EE0FFF1F5A95D0
:102C6000E1F7E80FF91FEE0FFF1FED55F84FF18266
:102C7000E0828881992787FD9095FC0135E0EE0F71
:102C8000FF1F3A95E1F7880F991FE80FF91FEF55DD
:102C9000F84F81E08487DF91CF911F910F91FF90D2
:102CA000EF900895CF92DF92EF92FF920F931F93D0
:102CB000DF93CF930F92CDB7DEB779EAE72E77E0B7
:102CC000F72E90E0F70100810F3FC1F069EAC62EB0
:102CD00067E0D62E10E0911751F0F60180810817B9
:102CE00031F485E0602F99830E94F71F99811F5F5F
:102CF00022E230E0C20ED31E153069F79F5FE2E298
:102D0000F0E0EE0EFF1E9530E9F60E944324282FD6
:102D1000332727FD3095F90155E0EE0FFF1F5A9537
:102D2000E1F7220F331FE20FF31FEF55F84F328503
:102D30003093630822E28202C00111248F55984F1C
:102D4000909362088093610890935308809352088F
:102D5000309354080E9466310E9457310E94C03D52
:102D6000FFCF0F931F93DF93CF93CDB7DEB7A49719
:102D70000FB6F894DEBF0FBECDBF0E944B218093EB
:102D800051088F3F21F48EE060E00E94F71F0E94FF
:102D9000913080FF04C086E060E00E94F71F0E942F
:102DA000E5308F3F31F40E94FC3080E160E00E940A
:102DB000F71F0E94EE301092540810926208109291
:102DC00061081092530810925208109263080E94F2
:102DD0005617109260088FEF80934D0880934F082C
:102DE00080934E08E9EAF7E093E692838083B296F7
:102DF00028E0E335F207C9F7EDE9F8E0CF010596E1
:102E000094838383F783E683FC0188E0E63BF8073D
:102E1000A9F710929F0810929E08148213821092B4
:102E20005708109256087997F093A007E0939F07F0
:102E30008E010F5F1F4FC8016BEE7AE20E940A31CC
:102E4000C80160E676E040E850E00E946B3185E51D
:102E50008093600619861C861D861E861F86188A2A
:102E6000198A1A8A1B8A1C8A1D8A1E8A1F8A188E32
:102E7000198E1A8E1B8E1C8E1D8E1E8E1F8E18A2F2
:102E800019A21AA21BA291E0988782E08A879B87E9
:102E9000C8010E949A27A4960FB6F894DEBF0FBE11
:102EA000CDBFCF91DF911F910F91089510928D04A6
:102EB00010928E0410928F0410929004109291043C
:102EC000109292041092930410929404E5ECF5E0B1
:102ED0001082118212821382108611861286138646
:102EE0001482158216821782148615861686178616
:102EF000108A118A128A138A108E118E128E138EE6
:102F0000148E158E7E9686E0EB35F80709F7089546
:102F1000FC0180918D0490918E04A0918F04B0915A
:102F2000900480839183A283B383809191049091D4
:102F30009204A0919304B091940484839583A68312
:102F4000B7830895382F90E0FC01B5E0EE0FFF1F26
:102F5000BA95E1F7880F991FE81BF90BEB53FA4F6D
:102F6000858D813089F1832F90E0FC0175E0EE0FB3
:102F7000FF1F7A95E1F7880F991FE81BF90BEB53B8
:102F8000FA4F248D2F5F832F90E0FC0155E0EE0F68
:102F9000FF1F5A95E1F7880F991FE81BF90BEB53B8
:102FA000FA4F248F2F3F81F4832F90E0FC0135E00E
:102FB000EE0FFF1F3A95E1F7880F991FE81BF90BF9
:102FC000EB53FA4F81E0858F0895682F90E0FC0164
:102FD00075E0EE0FFF1F7A95E1F7880F991FE81B48
:102FE000F90BEB53FA4F858D813009F44FC0862FD2
:102FF00090E0FC0145E0EE0FFF1F4A95E1F7880FD6
:10300000991FE81BF90BEB53FA4F148A158A168A9D
:10301000178A862F90E0FC0125E0EE0FFF1F2A950E
:10302000E1F7880F991FE81BF90BEB53FA4F208942
:103030003189428953892F5F3F4F4F4F5F4F862F12
:1030400090E0FC01A5E0EE0FFF1FAA95E1F7880FC5
:10305000991FE81BF90BEB53FA4F208B318B428BF6
:10306000538B2E5F3F4F4F4F5F4F81F4862F90E081
:10307000FC0135E0EE0FFF1F3A95E1F7880F991F2D
:10308000E81BF90BEB53FA4F81E0858F08951F93EE
:10309000182F90E0FC01A5E0EE0FFF1FAA95E1F7C5
:1030A000880F991FE81BF90BEB53FA4F858D813080
:1030B00009F4A5C0812F90E09C0155E0220F331F39
:1030C0005A95E1F7880F991F281B390B2B533A4F5C
:1030D000812F90E0FC01B5E0EE0FFF1FBA95E1F7FC
:1030E000880F991FE81BF90BEB53FA4F808D918DD8
:1030F000A28DB38D0196A11DB11DF901808F918F15
:10310000A28FB38F462F50E060E070E0812F90E0F7
:103110009C01F5E0220F331FFA95E1F7880F991F04
:10312000281B390B2B533A4F812F90E0FC01B5E05F
:10313000EE0FFF1FBA95E1F7880F991FE81BF90BF7
:10314000EB53FA4F84899589A689B789840F951F17
:10315000A61FB71FF901848B958BA68BB78B812F88
:1031600090E09C01F5E0220F331FFA95E1F7880FFC
:10317000991F281B390B2B533A4F812F90E0FC01EC
:10318000B5E0EE0FFF1FBA95E1F7880F991FE81B16
:10319000F90BEB53FA4F80819181A281B381480FE3
:1031A000591F6A1F7B1FF901408351836283738318
:1031B000812F90E0FC0135E0EE0FFF1F3A95E1F71B
:1031C000880F991FE81BF90BEB53FA4F808D918DF7
:1031D000A28DB38D8E5F9F4FAF4FBF4F81F4812F74
:1031E00090E0FC01B5E0EE0FFF1FBA95E1F7880F04
:1031F000991FE81BF90BEB53FA4F81E0858F1F9164
:1032000008951F93182F90E0FC01B5E0EE0FFF1F0B
:10321000BA95E1F7880F991FE81BF90BEB53FA4FAA
:10322000858D813009F4E4C0462F50E060E070E005
:10323000812F90E09C01F5E0220F331FFA95E1F712
:10324000880F991F281B390B2B533A4F812F90E081
:10325000FC01B5E0EE0FFF1FBA95E1F7880F991F4B
:10326000E81BF90BEB53FA4F84899589A689B78936
:10327000840F951FA61FB71FF90184879587A6871E
:10328000B787812F90E09C01F5E0220F331FFA955C
:10329000E1F7880F991F281B390B2B533A4F812FC9
:1032A00090E0FC01B5E0EE0FFF1FBA95E1F7880F43
:1032B000991FE81BF90BEB53FA4F80819181A28192
:1032C000B381480F591F6A1F7B1FF9014083518347
:1032D00062837383812F90E0FC0135E0EE0FFF1FC6
:1032E0003A95E1F7880F991FE81BF90BEB53FA4F5A
:1032F00024813581468157812115310541055105CC
:10330000B9F0812F90E0FC01B5E0EE0FFF1FBA95F8
:10331000E1F7880F991FE81BF90BEB53FA4F8485EF
:103320009585A685B78582179307A407B50728F565
:10333000812F90E09C0175E0220F331F7A95E1F711
:10334000880F991F281B390B2B533A4F812F90E080
:10335000FC0155E0EE0FFF1F5A95E1F7880F991F0A
:10336000E81BF90BEB53FA4F84859585A685B78545
:10337000F90184839583A683B783812F90E0FC01B4
:10338000B5E0EE0FFF1FBA95E1F7880F991FE81B14
:10339000F90BEB53FA4F2485358546855785812FE8
:1033A00090E0FC0175E0EE0FFF1F7A95E1F7880FC2
:1033B000991FE81BF90BEB53FA4F80859185A28585
:1033C000B38582179307A407B50790F4812F90E087
:1033D000FC0115E0EE0FFF1F1A95E1F7880F991F0A
:1033E000E81BF90BEB53FA4F20873187428753874D
:1033F0001F910895CF93DF93282FEB01853010F0B4
:103400008FEFBAC090E0FC0155E0EE0FFF1F5A9518
:10341000E1F7880F991FE81BF90BEB53FA4F8081F6
:103420009181A281B38188839983AA83BB83822FF0
:1034300090E0FC0135E0EE0FFF1F3A95E1F7880FB1
:10344000991FE81BF90BEB53FA4F84819581A681F4
:10345000B7818C839D83AE83BF83822F90E0FC0174
:10346000A5E0EE0FFF1FAA95E1F7880F991FE81B53
:10347000F90BEB53FA4F80859185A285B385888738
:103480009987AA87BB87822F90E0FC0165E0EE0F49
:10349000FF1F6A95E1F7880F991FE81BF90BEB53A3
:1034A000FA4F84859585A685B7858C879D87AE87DD
:1034B000BF87822F90E0FC0145E0EE0FFF1F4A9589
:1034C000E1F7880F991FE81BF90BEB53FA4F80893E
:1034D0009189A289B389888B998BAA8BBB8B822F08
:1034E00090E0FC01B5E0EE0FFF1FBA95E1F7880F01
:1034F000991FE81BF90BEB53FA4F84899589A6892C
:10350000B7898C8B9D8BAE8BBF8B822F90E0FC019B
:1035100075E0EE0FFF1F7A95E1F7880F991FE81B02
:10352000F90BEB53FA4F808D918DA28DB38D888F5F
:10353000998FAA8FBB8F822F90E0FC0155E0EE0F90
:10354000FF1F5A95E1F7880F991FE81BF90BEB5302
:10355000FA4F848D8C8F822F90E0FC0135E0EE0FC6
:10356000FF1F3A95E1F7880F991FE81BF90BEB5302
:10357000FA4F858D8D8F81E0DF91CF910895DF9295
:10358000EF92FF920F931F93DF93CF93CDB7DEB7E8
:1035900060970FB6F894DEBF0FBECDBFD82E88E07F
:1035A00093E00E94431400D000D0EDB7FEB73196EF
:1035B0008FED91E0ADB7BEB712969C938E931197A5
:1035C000D28213820E94BB4D0F900F900F900F90EC
:1035D000DD2009F080C08DEE92E00E944314CE0100
:1035E00001960E948C2AEDB7FEB73A970FB6F89471
:1035F000FEBF0FBEEDBF0DB71EB70F5F1F4F62EED0
:10360000E62E61E0F62EF282E18289819A81AB8119
:10361000BC81F80182839383A483B5836D817E810D
:103620008F81988520E432E44FE050E00E94BA4B4D
:10363000D80116962D933D934D935C9319970E9454
:10364000BB4DEDB7FEB73A960FB6F894FEBF0FBE6E
:10365000EDBF8CEC92E00E9443148DB79EB70A97A1
:103660000FB6F8949EBF0FBE8DBF0DB71EB70F5F8C
:103670001F4FADB7BEB71296FC92EE921197809194
:103680008D0490918E04A0918F04B0919004F80164
:1036900082839383A483B583609191047091920493
:1036A000809193049091940420E432E44FE050E040
:1036B0000E94BA4BD80116962D933D934D935C937F
:1036C00019970E94BB4DEDB7FEB73A960FB6F89426
:1036D000FEBF0FBEEDBF8BEB92E00E9443148D2D19
:1036E00090E0FC0155E0EE0FFF1F5A95E1F7880FBF
:1036F000991FE81BF90BEB53FA4F608171818281AE
:1037000093810E94C22929873A874B875C876D87FE
:103710007E878F87988BDE011196FE01399688E0AF
:1037200001900D928150E1F78DB79EB70A970FB6C1
:10373000F8949EBF0FBE8DBF0DB71EB70F5F1F4F12
:1037400082EE91E0ADB7BEB712969C938E9311971F
:1037500089819A81AB81BC81F80182839383A483A0
:10376000B5836D817E818F81988520E432E44FE0BE
:1037700050E00E94BA4BD80116962D933D934D937D
:103780005C9319970E94BB4DEDB7FEB73A960FB602
:10379000F894FEBF0FBEEDBF80EA92E00E94431492
:1037A0008D2D90E0FC0135E0EE0FFF1F3A95E1F71B
:1037B000880F991FE81BF90BEB53FA4F6481758151
:1037C000868197810E94C22929873A874B875C8727
:1037D0006D877E878F87988BDE011196FE01399663
:1037E00088E001900D928150E1F78DB79EB70A975E
:1037F0000FB6F8949EBF0FBE8DBF0DB71EB70F5FFB
:103800001F4F82EF91E0ADB7BEB712969C938E9397
:10381000119789819A81AB81BC81F801828393835E
:10382000A483B5836D817E818F81988520E432E405
:103830004FE050E00E94BA4BD80116962D933D936D
:103840004D935C9319970E94BB4DEDB7FEB73A9626
:103850000FB6F894FEBF0FBEEDBF8D2D90E0FC01BA
:1038600005E0EE0FFF1F0A95E1F7880F991FE81B8F
:10387000F90BEB53FA4F64857585868597850E9411
:10388000C22929873A874B875C876D877E878F8718
:10389000988BDE011196FE01399688E001900D9219
:1038A0008150E1F78DB79EB70A970FB6F8949EBF87
:1038B0000FBE8DBF0DB71EB70F5F1F4F82EF91E098
:1038C000ADB7BEB712969C938E93119789819A815A
:1038D000AB81BC81F80182839383A483B5836D811E
:1038E0007E818F81988520E432E44FE050E00E9491
:1038F000BA4BD80116962D933D934D935C9319972F
:103900000E94BB4DEDB7FEB73A960FB6F894FEBFD6
:103910000FBEEDBF8D2D90E0FC01B5E0EE0FFF1F57
:10392000BA95E1F7880F991FE81BF90BEB53FA4F93
:1039300060857185828593850E94C22929873A878F
:103940004B875C876D877E878F87988BDE0111960A
:10395000FE01399688E001900D928150E1F78DB714
:103960009EB70A970FB6F8949EBF0FBE8DBF0DB7D6
:103970001EB70F5F1F4F82EE91E0ADB7BEB7129634
:103980009C938E93119789819A81AB81BC81F801B8
:1039900082839383A483B5836D817E818F81988593
:1039A00020E432E44FE050E00E94BA4BD801169672
:1039B0002D933D934D935C9319970E94BB4DEDB7AA
:1039C000FEB73A960FB6F894FEBF0FBEEDBF80E982
:1039D00092E00E94431400D000D000D004E012E036
:1039E000ADB7BEB712961C930E9311978D2D90E034
:1039F000FC0175E0EE0FFF1F7A95E1F7880F991F24
:103A0000E81BF90BEB53FA4F80899189A289B3899E
:103A1000EDB7FEB783839483A583B6830E94BB4D25
:103A20008DB79EB706960FB6F8949EBF0FBE8DBF9A
:103A30008DE792E00E94431400D000D000D0ADB7D3
:103A4000BEB712961C930E9311978D2D90E0FC013A
:103A500055E0EE0FFF1F5A95E1F7880F991FE81BFD
:103A6000F90BEB53FA4F808D918DA28DB38DEDB78D
:103A7000FEB783839483A583B6830E94BB4D8DB725
:103A80009EB706960FB6F8949EBF0FBE8DBF84E614
:103A900092E00E94431400D000D0ADB7BEB711969B
:103AA00008E012E0EDB7FEB7128301838D2D90E0A0
:103AB000FC0135E0EE0FFF1F3A95E1F7880F991FE3
:103AC000E81BF90BEB53FA4F848D12968C931297E7
:103AD00013961C920E94BB4D0F900F900F900F9069
:103AE00087E492E00E94431400D000D0ADB7BEB787
:103AF0001196EDB7FEB7128301838D2D90E0FC0186
:103B000075E0EE0FFF1F7A95E1F7880F991FE81B0C
:103B1000F90BEB53FA4F858D12968C9312971396EF
:103B20001C920E94BB4D0F900F900F900F9084E459
:103B300092E00E94431460960FB6F894DEBF0FBE69
:103B4000CDBFCF91DF911F910F91FF90EF90DF904C
:103B500008951F9387E292E00E94431410E0812FA2
:103B60000E94BF1A1F5F1530D1F71F91089590E092
:103B7000A0E0B0E0BC01CD0123EB36EE4EE050E01A
:103B80000E94874B209191043091920440919304BC
:103B900050919404260F371F481F591F20939104FA
:103BA0003093920440939304509394048DE894E0EE
:103BB0000E94F7280895E0916108F09162088487D7
:103BC0000895E0916108F091620884850895DC0110
:103BD000FB0180915B06882329F080838091670434
:103BE0008C9381E00895DF93CF930F92CDB7DEB72A
:103BF000198207C080ED97E00E94132F89818F5FA3
:103C0000898389818436B0F30F90CF91DF91089535
:103C100081E090E00E94CE130E94F31D81E090E0CD
:103C20000E9495130E94F31D089581E090E00E9488
:103C3000CE130E94F31D0E94F31D0E94F31D81E02C
:103C400090E00E9495130E94F31D0895FF920F9338
:103C50001F93DF93CF9300D00F92CDB7DEB700D084
:103C600000D000D0EDB7FEB731968E010F5F1F4F29
:103C7000ADB7BEB712961C930E9311972BE032E0AE
:103C800033832283848315820E94024EFF248DB7E2
:103C90009EB706960FB6F8949EBF0FBE8DBF71C03B
:103CA000A00FB11F8C918433D1F1853370F481332F
:103CB000F9F0823320F4803309F05CC016C08233FF
:103CC00011F1833309F056C023C08733C9F188331B
:103CD00030F4853369F1863309F04CC02CC0883349
:103CE000B1F1893309F046C03BC00E94151E02C0E5
:103CF0000E94081E0E94151E0E94151E0E94151E7D
:103D00000E94151E37C00E94081E0E94081EF4CF94
:103D10000E94081E0E94081E0E94081EEFCF0E94EB
:103D2000081E0E94081E0E94081E0E94081EE8CF5E
:103D30000E94081E02C00E94151E0E94081E04C098
:103D40000E94151E0E94151E0E94081E06C00E9499
:103D5000151E0E94151E0E94151E0E94081E08C0F6
:103D60000E94151E0E94151E0E94151E0E94151EFF
:103D70000E94081E0E94F31D0E94F31D0E94F31D65
:103D8000F394F80101900020E9F73197E01BF10B63
:103D9000AF2DB0E0AE17BF0708F482CF0F900F90A1
:103DA0000F90CF91DF911F910F91FF900895809117
:103DB0005B06882309F49BC08FE395E00E944314BF
:103DC00000D000D0EDB7FEB731968BE092E0ADB7F2
:103DD000BEB712969C938E9311978091670482834D
:103DE00013820E94BB4D0F900F900F900F908BE3AA
:103DF00095E00E94431480915B06883110F0109288
:103E00005B0680915B0690E0FC013197E631F1059D
:103E100008F04AC0EA5BFF4FEE0FFF1F0590F491D8
:103E2000E02D09948FEF94E041C088ED94E03EC00E
:103E300084EC94E03BC08EEA94E038C083E994E0DF
:103E400035C08DE794E032C085E694E02FC082E56E
:103E500094E02CC08FE394E029C081E294E026C076
:103E60008CEF93E023C080EF93E020C085ED93E0DA
:103E70001DC086EC93E01AC082EB93E017C081EA84
:103E800093E014C08DE893E011C08DE693E00EC07E
:103E900085E593E00BC08AE393E008C089E293E0F4
:103EA00005C08AE193E002C083E193E00E944314DD
:103EB0006091CA087091CB088DE090E00E948F4D10
:103EC0006091CA087091CB088AE090E00E948F4D03
:103ED00080915B06803149F0833139F0843129F0DB
:103EE0000E94EE300E94FA14FFCF10925B0680E031
:103EF0000895FF920F931F93082FF62E80E092E013
:103F00000E94F7148F5F8093AE038F3F11F41092DD
:103F1000AE038091AE0316E0819FC00111248F5F34
:103F20009D4F602F0E9484148091AE03819FC00139
:103F300011248E5F9D4F6F2D0E9484148091AE03DB
:103F400023E0829FC0011124880F991F20915808F7
:103F50003091590840915A0850915B08252F33271A
:103F6000442755278D5F9D4F622F0E9484148091B6
:103F7000AE03819FC0011124209158083091590847
:103F800040915A0850915B089A01442755278C5F4D
:103F90009D4F622F0E9484148091AE03819FC001C7
:103FA0001124209158083091590840915A08509195
:103FB0005B08232F342F452F55278B5F9D4F622F92
:103FC0000E9484148091AE03819FC00111248A5FF6
:103FD0009D4F609158080E94841480E092E06091A7
:103FE000AE030E9484141F910F91FF9008951F93B8
:103FF000182F80935B06609367040E94791F0E94CC
:10400000D71E103149F0133139F0143129F00E94D4
:10401000EE300E94FA14FFCF1F91089580935B0643
:10402000E0916108F09162086085609367040E94E6
:10403000791F0E94D71E0895282F332727FD30951A
:10404000F90154E0EE0FFF1F5A95E1F7E20FF31F5D
:10405000EE0FFF1FED55F84F0190F081E02D8081AC
:10406000853521F085E580838FEF0895F90195E08E
:10407000EE0FFF1F9A95E1F7220F331FE20FF31F98
:10408000EF55F84F808191818050914110F481E08B
:10409000089582E10E940E208FEF08956F927F9223
:1040A0008F929F92AF92BF92CF92DF92EF92FF9248
:1040B0000F931F93CF93DF938BE495E00E944314FB
:1040C00000D000D08EE092E0ADB7BEB712969C93C0
:1040D0008E931197E0916108F0916208808599278D
:1040E00087FD909514969C938E9313970E94BB4DD9
:1040F000E0916108F09162080281138187E192E00A
:10410000EDB7FEB792838183148303830E94BB4D76
:10411000EDB7FEB73196A4E2CA2EA2E0DA2EADB713
:10412000BEB71296DC92CE921197D8018C91828301
:1041300013820E94BB4D71E3E72E72E0F72EEDB7BC
:10414000FEB7F282E182E0916108F091620880811D
:104150009181ADB7BEB714969C938E9313970E942E
:10416000BB4D0BE312E0EDB7FEB7128301838091E4
:10417000610890916208948383830E94BB4DC1EAD9
:10418000D7E0AA24BB240F900F900F900F906BE400
:10419000662E62E0762E4601670178010A811B8156
:1041A00000D000D000D0EDB7FEB73196ADB7BEB7A6
:1041B00012967C926E921197B382A2821583048329
:1041C0000E94BB4D0F900F90EDB7FEB73196ADB783
:1041D000BEB711968C92119712969C92D8018C9131
:1041E000828313820E94BB4DEDB7FEB7C182D2829B
:1041F00088819981948383830E94BB4DADB7BEB7FC
:104200001196EC9211971296FC9212971496DC93E9
:10421000CE9313970E94BB4D0894A11CB11CA2968B
:104220000F900F900F900F90B5E0AB16B10409F00E
:10423000B5CFDF91CF911F910F91FF90EF90DF905D
:10424000CF90BF90AF909F908F907F906F90089588
:10425000CF93DF93E0916108F0916208C281D3812E
:104260008881853539F00E944E2081E00E940E2021
:1042700085E58883E0916108F091620880819181F1
:104280008050914128F00E944E2082E10E940E2031
:10429000DF91CF91089540911705509118056091D5
:1042A000190570911A0520E030E0DB01CA01022EE9
:1042B00004C0B695A795979587950A94D2F7817013
:1042C0009070892BD1F481E090E0A0E0B0E0022E64
:1042D00004C0880F991FAA1FBB1F0A94D2F7842B12
:1042E000952BA62BB72B8093170590931805A093B9
:1042F0001905B0931A05822F08952F5F3F4F203282
:10430000310599F68FEF0895E0916108F091620808
:1043100065857685878590890895EF92FF920F9342
:104320001F9321E030E040E050E004C0220F331F33
:10433000441F551F8A95D2F7E0916108F0916208F9
:10434000E584F68407851089DA01C9018E219F2151
:10435000A023B1230097A105B10511F48FEF19C077
:104360002095309540955095E222F32204231523A1
:10437000E586F6860787108B81899289A389B4899F
:1043800082239323A423B523818B928BA38BB48B9D
:1043900081E01F910F91FF90EF900895682F77278C
:1043A00067FD70958091170590911805A0911905EA
:1043B000B0911A05062E04C0B695A79597958795D6
:1043C0000A94D2F781709070892B11F48FEF0895C1
:1043D000E0916108F091620821E030E040E050E0B7
:1043E00004C0220F331F441F551F6A95D2F78585DD
:1043F0009685A785B089822B932BA42BB52B858717
:104400009687A787B08B81E0089580E090E00895BB
:104410008D54984011F08FEF089580E008958091B9
:104420004F08882329F080E090E0A0E0B0E007C0CA
:1044300080914E08992787FD9095A92FB92F8093D9
:104440005C0690935D06A0935E06B0935F060895A8
:104450000E9408228F3F11F481E003C0813029F4CB
:1044600082E00E94DB1D8FEF0895992787FD9095CC
:10447000FC01EE0FFF1FE80FF91FE35BF74F8FEF13
:10448000808382838183809160088150809360085B
:1044900081E008950E9408228F3F11F481E003C05B
:1044A000813029F482E00E94DB1D8FEF0895992767
:1044B00087FD9095FC01EE0FFF1FE80FF91FE35BEE
:1044C000F74F828108951F93CF93DF930E940822B4
:1044D000182F8F3F11F481E003C0813029F482E06E
:1044E0000E94DB1D8FEF3FC0992787FD9095EC015F
:1044F000CC0FDD1FC80FD91FC35BD74F9A818881AE
:10450000981784F50E94FA148A818F5F8A83E0915C
:104510006108F09162081482E8EAF7E0212F33275E
:1045200027FD3095432F532F63E08081823089F43B
:1045300082859385A485B58582179307A407B5075F
:1045400041F46283108A17861082128613861486BD
:104550001586B29688E0E235F80739F70E940F22F7
:104560000E94FC1481E0DF91CF911F910895DF92AA
:10457000EF92FF920F931F9351E0E52EF12C012D46
:10458000112D04C0EE0CFF1C001F111F8A95D2F7DD
:104590008091170590911805A0911905B0911A0501
:1045A0008E219F21A023B1230097A105B10511F40D
:1045B00081E041C00E94FA14E8EAF7E0DD2423E03C
:1045C00080818130B1F482859385A485B5858E2163
:1045D0009F21A023B1230097A105B10551F02283AB
:1045E000108A17861082E286F38604871587DD24F9
:1045F000D3948081823099F482859385A485B58592
:104600008E159F05A007B10751F42283108A1786E3
:1046100010821286138614861586DD24D394B296F2
:1046200088E0E235F80761F60E94FC14DD2011F005
:1046300081E004C082E00E94DB1D8FEF1F910F918B
:10464000FF90EF90DF900895EF92FF920F931F93EA
:10465000CF93DF93C82FDD27C7FDD09561E0E62E0D
:10466000F12C012D112D0C2E04C0EE0CFF1C001F8F
:10467000111F0A94D2F78091170590911805A09107
:104680001905B0911A058E219F21A023B12300970F
:10469000A105B10511F48FEF5CC00E94FA14E8EA9D
:1046A000F7E0A8019701209530954095509563E07B
:1046B00081818F3F39F186819781A085B1858E15E3
:1046C0009F05A007B10731F412861386148615865C
:1046D0001082628386819781A085B185822393238E
:1046E000A423B52386839783A087B187828593858A
:1046F000A485B58582239323A423B523828793873A
:10470000A487B587B29688E0E235F80789F62EEFE0
:104710003FEF4FEF5FEF04C0220F331F441F551FC1
:10472000CA95D2F78091170590911805A0911905A7
:10473000B0911A0582239323A423B52380931705F0
:1047400090931805A0931905B0931A050E94FC14C4
:1047500081E0DF91CF911F910F91FF90EF9008952D
:104760001F93CF93DF930E940822182F8F3F11F4DD
:1047700081E003C0813029F482E00E94DB1D8FEFCD
:1047800041C00E94FA14C12FDD27C7FDD095FE015C
:10479000EE0FFF1FEC0FFD1FE35BF74F82818823B5
:1047A000B9F4E0916108F0916208878182608783A3
:1047B000812F992787FD9095A92FB92F818B928BF7
:1047C000A38BB48B0E94FC1480E090E00E94C9256A
:1047D000FE01EE0FFF1FEC0FFD1FE35BF74F828121
:1047E00081508283A0916108B091620881811B96FB
:1047F0008C931B9781E014968C930E94FC140E946A
:104800000F2281E0DF91CF911F9108959B01AC01B0
:10481000E0916108F091620885859685A785B08949
:1048200082239323A423B5230097A105B10529F47E
:1048300020E030E040E050E023C0218B328B438BFE
:10484000548B81E087830090510804C056954795AA
:10485000379527950A94D2F7C90181709070892BFA
:1048600019F00E946D2504C080E090E00E94C925E7
:10487000E0916108F0916208218932894389548965
:10488000B901CA010895E0915608F0915708808156
:104890000895E0915608F091570803C00380F48111
:1048A000E02D3097D9F70895CF93DF93A091560864
:1048B000B0915708109709F453C0282F332727FDCC
:1048C00030958C9190E08217930779F41396ED91CF
:1048D000FC911497F0935708E093560812821182C6
:1048E00012C0DA0141155105D9F18C9190E013966F
:1048F0004C91139714965C9114978217930789F73C
:1049000022C0FA83E983E0919F07F091A0073097D6
:1049100049F4B093A007A0939F0714961C921E928F
:1049200013970AC01496FC93EE931397B283A18356
:10493000B093A007A0939F07E0919F07F091A00775
:10494000128211820DC01196ED91FC911297438352
:1049500054831396CD91DC911497209791F6D3CF81
:10496000DF91CF910895E0916108F0916208808510
:1049700008950E941A31E0916108F09162088581E2
:104980008823B9F70895FF920F931F93DF93CF9376
:10499000CDB7DEB728970FB6F894DEBF0FBECDBFF8
:1049A00029833A834B835C836D837E838F839887CF
:1049B0000E9428210E94FA14E0916108F091620897
:1049C00081E0858381E090E091A380A30E94AE2FD7
:1049D000F82ECE0101960E942A29E0916108F091FB
:1049E00062080F2D10E0800F911F978B868B87EF49
:1049F0008F1570F00E94A82F0F5F1F4F90E00817CF
:104A0000190734F48F2D8E5F8093C4050E94AB2F5D
:104A10000E94FC140E94B92481E028960FB6F894F5
:104A2000DEBF0FBECDBFCF91DF911F910F91FF90E1
:104A300008958F929F92AF92BF92CF92DF92EF92A2
:104A4000FF920F931F93DF93CF93CDB7DEB760979D
:104A50000FB6F894DEBF0FBECDBF29873A874B87CC
:104A60005C876D877E878F87988BCE0101960E9429
:104A70008C2ACE01099609851A852B853C854D85A2
:104A80005E856F85788989809A80AB80BC80CD8077
:104A9000DE80EF80F8840E94F2278F3F59F029854D
:104AA0003A854B855C856D857E858F8598890E94CA
:104AB000C32481E060960FB6F894DEBF0FBECDBF71
:104AC000CF91DF911F910F91FF90EF90DF90CF90EA
:104AD000BF90AF909F908F9008951F930E94FA14FB
:104AE000E0916108F091620881E0858386830E94ED
:104AF000AE2F182F883F80F40E94A82F212F30E07E
:104B00002F5F3F4F90E02817390734F4812F8E5FD5
:104B10008093C4050E94AB2F0E94FC140E94B9240C
:104B200081E01F9108951F93DF93CF93CDB7DEB738
:104B300028970FB6F894DEBF0FBECDBF29833A8306
:104B40004B835C836D837E838F8398870E94FA14E6
:104B50000E94AE2F182FCE0101960E942A29833081
:104B6000910510F48FEF0BC0E0916108F09162089D
:104B7000810F911D978B868B0E94FC1481E02896F3
:104B80000FB6F894DEBF0FBECDBFCF91DF911F915E
:104B900008950F931F938C010E94FA14E09161080D
:104BA000F091620881E08583178B068B0E94AE2FFF
:104BB000082F883F80F40E94A82F202F30E02F5F1D
:104BC0003F4F90E02817390734F4802F8E5F809391
:104BD000C4050E94AB2F0E94FC140E94B92481E0FE
:104BE0001F910F910895FF920F931F93CF93DF931F
:104BF0008C010E94FA14E0916108F091620881E052
:104C000085830E94AE2FF82EE0916108F091620832
:104C1000C82FD0E00C0F1D1F178B068B87EF8F1549
:104C200068F00E94A82F219690E0C817D90734F4A5
:104C30008F2D8E5F8093C4050E94AB2F0E94FC14C1
:104C40000E94B92481E0DF91CF911F910F91FF90D5
:104C500008951F93CF93DF93EC010E9428212097A2
:104C600011F4C1E0D0E00E94FA14E0916108F091E3
:104C7000620881E08583D1A3C0A30E94AE2F182FC4
:104C8000883F80F40E94A82F212F30E02F5F3F4FF4
:104C900090E02817390734F4812F8E5F8093C40584
:104CA0000E94AB2F0E94FC140E94B92481E0DF9186
:104CB000CF911F9108951F930E9428210E94FA14FA
:104CC000E0916108F091620881E090E091A380A3F7
:104CD00081E08583808D918D978B868B0E94AE2F8E
:104CE000182F883F80F40E94A82F212F30E02F5FDB
:104CF0003F4F90E02817390734F4812F8E5F80935F
:104D0000C4050E94AB2F0E94FC140E94B92481E0CC
:104D10001F910895E0916108F091620880850E94DA
:104D20005424E0916108F091620884E081870E9438
:104D30005B2681E00895DF92EF92FF920F931F931D
:104D4000CF93DF93D82E0091560810915708C09149
:104D50009F07D091A007209709F4E4C00115110521
:104D600009F497C00E940F228D2D992787FD9095F9
:104D7000FC0155E0EE0FFF1F5A95E1F7880F991FD0
:104D8000E80FF91FEF55F84F858990E0A0E0B0E0FB
:104D900020915C0630915D0640915E0650915F0661
:104DA000281739074A075B0708F473C0E08CF18CB9
:104DB000DF011A96BF016C5F7F4FAF01455F5F4F08
:104DC000F8012081822F90E0FC0135E0EE0FFF1FFB
:104DD0003A95E1F7880F991FE80FF91FEF55F84F43
:104DE000808D918DE816F90608F453C0822F90E06B
:104DF000FC0135E0EE0FFF1F3A95E1F7880F991F90
:104E0000E80FF91FEF55F84F8481882391F0822F26
:104E100090E0FC0135E0EE0FFF1F3A95E1F7880FB7
:104E2000991FE80FF91FEF55F84F93858C9198174C
:104E300080F1FB018081882399F0822F90E0FC01B2
:104E400035E0EE0FFF1F3A95E1F7880F991FE80F45
:104E5000F91FEF55F84F9285FA0180819817C8F035
:104E6000822F90E0FC0135E0EE0FFF1F3A95E1F74D
:104E7000880F991FE80FF91FEF55F84F92858C9115
:104E8000981738F0F801038114810115110509F014
:104E900097CFD882E0919F07F091A0070380F4811B
:104EA000E02DF093A007E0939F0780915608909122
:104EB000570808171907C1F40115110551F01C8393
:104EC0000B831A821982D8011296DC93CE93119724
:104ED00006C01C821B821A821982D283C183D0939E
:104EE0005708C09356081EC0D80111968D919C9109
:104EF00012970E171F0779F09A8389831C830B83FF
:104F00001196ED91FC911297D483C3831296DC9392
:104F1000CE93119707C01C821B829A838983F80164
:104F2000D283C183DF91CF911F910F91FF90EF90BA
:104F3000DF900895EF92FF920F931F93CF93DF932B
:104F4000EC0169817A814B815C818D819E810E9417
:104F50002531BC018F81882369F04B815C81CE01B2
:104F600020E030E000E010E0EE24FF240E9406156F
:104F70001F8217C08881992787FD9095FC01B5E0B5
:104F8000EE0FFF1FBA95E1F7880F991FE80FF91F81
:104F9000EF55F84F8185833011F08FEF1CC071837E
:104FA00060838881992787FD9095FC0175E0EE0F5D
:104FB000FF1F7A95E1F7880F991FE80FF91FEF554A
:104FC000F84F86899789892B29F482E08187888127
:104FD0000E949B2681E0DF91CF911F910F91FF905E
:104FE000EF9008958F929F92AF92BF92CF92DF92EF
:104FF000EF92FF920F931F93DF93CF93CDB7DEB75E
:1050000060970FB6F894DEBF0FBECDBFFC010983D9
:105010001A832B833C834D835E836F8378878986D5
:105020009A86AB86BC86CD86DE86EF86F88A898135
:105030009A81AB81BC812D813E814F815885E98465
:10504000FA840B851C85AD84BE84CF84D8888E15E8
:105050009F05A007B107F0F1E816F9060A071B073C
:1050600091F42A153B054C055D05A0F12A193B0971
:105070004C095D092483358346835783108211824E
:10508000128213821CC02A153B054C055D05C8F42D
:105090000197A109B1098E199F09A00BB10B80835B
:1050A0009183A283B383205036434546544C2A193A
:1050B0003B094C095D09248335834683578381E08E
:1050C0000AC08E199F09A00BB10B80839183A28324
:1050D000B383EDCF8FEF60960FB6F894DEBF0FBEAF
:1050E000CDBFCF91DF911F910F91FF90EF90DF9097
:1050F000CF90BF90AF909F908F9008958F929F9286
:10510000AF92BF92CF92DF92EF92FF920F931F93D5
:10511000DF93CF93CDB7DEB760970FB6F894DEBFBD
:105120000FBECDBFFC0109831A832B833C834D83C3
:105130005E836F83788789869A86AB86BC86CD86A8
:10514000DE86EF86F88AAD80BE80CF80D884ED847D
:10515000FE840F85188989859A85AB85BC85298150
:105160003A814B815C81820F931FA41FB51F8083FE
:105170009183A283B383EA0CFB1C0C1D1D1DE482EA
:10518000F5820683178313C080509A4CAA49BB430B
:1051900084839583A683B78380819181A281B38123
:1051A0000196A11DB11D80839183A283B383848165
:1051B0009581A681B78180302AEC92072AE9A2075F
:1051C0002BE3B20708F781E060960FB6F894DEBFD4
:1051D0000FBECDBFCF91DF911F910F91FF90EF9048
:1051E000DF90CF90BF90AF909F908F900895FC017B
:1051F00013C080509A4CAA49BB4384839583A683ED
:10520000B78380819181A281B3810196A11DB11DD7
:1052100080839183A283B38384819581A681B781A2
:1052200080302AEC92072AE9A2072BE3B20708F79D
:105230000895609358087093590880935A08909382
:105240005B0820935C0830935D0840935E085093A0
:105250005F0808956F927F928F929F92AF92BF9254
:10526000CF92DF92EF92FF920F931F93FC01608029
:1052700071808280938064817581868197816114B9
:1052800071048104910409F469C022E46216710476
:105290008104910418F020E030E066C05B016C01ED
:1052A000EE24FF24870150E03DC0FA2DEB2DE6539C
:1052B00091E0EB1508F090E08C2D865621E08C15DE
:1052C00008F020E0792F780F91E0781708F090E04F
:1052D000292B8D2D855C31E08D1508F030E0622F93
:1052E000680F91E0681708F090E0232F292B2E0D0E
:1052F00091E02E1508F090E0492F4F0D91E04F15E9
:1053000008F090E0392F300F91E0301708F090E06E
:10531000910FAF2EBE2EC72ED62EE22EF42E032FC7
:10532000192F5F5F852F90E0A0E0B0E0861597050C
:10533000A805B90508F4B9CF9501A601B701C801C0
:10534000A3EBAA2EF6EEBF2EEEE0CE2EDD24EE2449
:10535000FF2400E010E00E94EB3D06C023EB36EE98
:105360004EE050E00E94BA4BC9011F910F91FF908F
:10537000EF90DF90CF90BF90AF909F908F907F90F5
:105380006F900895EF92FF920F931F93DF93CF9347
:10539000CDB7DEB728970FB6F894DEBF0FBECDBFEE
:1053A0007B018C0173708070907023EB36EE4EE0C1
:1053B00050E00E94874B6D837E838F839887A8017E
:1053C0009701BAE05695479537952795BA95D1F745
:1053D00029833A834B835C833A814B815C81289695
:1053E0000FB6F894DEBF0FBECDBFCF91DF911F91F6
:1053F0000F91FF90EF9008956F927F928F929F92FE
:10540000AF92BF92CF92DF92EF92FF920F931F93D2
:10541000FC016080718082809380648175818681C7
:105420009781611471048104910409F460C05B01E7
:105430006C01EE24FF24870150E03DC0FA2DEB2DD6
:10544000E65391E0EB1508F090E08C2D865621E0B4
:105450008C1508F020E0792F780F91E0781708F08C
:1054600090E0292B8D2D855C31E08D1508F030E022
:10547000622F680F91E0681708F090E0232F292B26
:105480002E0D91E02E1508F090E0492F4F0D91E080
:105490004F1508F090E0392F300F91E0301708F0E9
:1054A00090E0910FAF2EBE2EC72ED62EE22EF42EF8
:1054B000032F192F5F5F852F90E0A0E0B0E08615E5
:1054C0009705A805B90508F4B9CF9501A601B7015C
:1054D000C801E3EBAE2E06EEB02E1EE0C12EDD2499
:1054E000EE24FF2400E010E00E94EB3D06C023EB19
:1054F00036EE4EE050E00E94BA4BB901CA011F914E
:105500000F91FF90EF90DF90CF90BF90AF909F9062
:105510008F907F906F900895EF92FF920F931F935B
:10552000CF93DF93EC011C821D821E821F8280912B
:10553000580890915908A0915A08B0915B08888347
:105540009983AA83BB83E0905C08F0905D0800918A
:105550005E0810915F08EC82FD820E831F830E941B
:10556000AE2F90E0A0E0B0E0BC01CD0123EB36EE21
:105570004EE050E00E94874BE60EF71E081F191FF1
:10558000EC82FD820E831F8313C080509A4CAA497F
:10559000BB438C839D83AE83BF8388819981AA811D
:1055A000BB810196A11DB11D88839983AA83BB830A
:1055B0008C819D81AE81BF8180302AEC92072AE9DF
:1055C000A2072BE3B20708F7DF91CF911F910F914C
:1055D000FF90EF9008950F931F9301E012E00E9457
:1055E00028210E94A82F853128F4009355080E9495
:1055F0001A3108C08AE090E00E94132F10935508DA
:105600000E940E3180916006853519F088E00E9475
:105610000E2080917E10853511F388E00E940E20C7
:10562000DECF2F923F924F925F926F927F928F9236
:105630009F92AF92BF92CF92DF92EF92FF920F9321
:105640001F93CF93DF938AEF0E94AB2F0E94EC3021
:105650000E94972ED090C4056D2D70E080E090E000
:1056600023EB36EE4EE050E00E94874B7B018C012D
:1056700080915C0890915D08A0915E08B0915F08F0
:10568000E80EF91E0A1F1B1FC801B7010E94BA4B82
:10569000E61AF70A080B190BE0925C08F0925D0815
:1056A00000935E0810935F08E0916108F091620832
:1056B00090859923B9F480915508823019F48D2D85
:1056C0000E94B71DE0916108F091620880856091A9
:1056D000C4050E944718E0916108F0916208808536
:1056E00060E005C08581882329F0892F6D2D0E94F7
:1056F000011904C0892F6D2D0E9447188091580808
:1057000090915908A0915A08B0915B0820915C08CB
:1057100030915D0840915E0850915F081BC0E12CFC
:10572000F6E3FF2EF5E60F2FF4EC1F2FE20EF31E2B
:10573000041F151FC801B70123EB36EE4EE050E001
:105740000E94BA4BA8019701261B370B480B590B37
:10575000D601C5015C016D010894A11CB11CC11CDE
:10576000D11C20306AEC36076AE946076BE356071E
:10577000B0F68093580890935908A0935A08B093B4
:105780005B0820935C0830935D0840935E0850935B
:105790005F08E0916108F091620885818823B9F083
:1057A00081858430A1F08781823029F0882341F0FF
:1057B0008681882311F485E001C083E0818704C0DD
:1057C00083E081871782168280850E945424E091AD
:1057D0006108F0916208868D978D892BE9F14085EB
:1057E0004423D1F181858430B9F1228D338D8091AC
:1057F000C40590E02817390790F4842F0E94A2175F
:10580000E0916108F091620882E060850E94F71FD4
:10581000E0916108F0916208138E128E04C0281B7B
:10582000390B338F228FE0916108F0916208E08498
:10583000828D938D892B81F48E2D0E94A21783E097
:105840006E2D0E94F71FE0916108F091620883E0DD
:1058500081878E2D0E9454248CE592E00E94CD4DCC
:105860001092AF03C6EAD7E000E61AEEAA24BB24E2
:10587000E7E72E2EE2E03E2E71E0472E512C61E04C
:10588000662E712C812C912C4A2D75018B818F3FB6
:1058900009F4C2C01882882391F18C81843079F197
:1058A00029893A898091C40590E02817390728F0A2
:1058B000281B390B3A8B298B02C01A8A198A2B892B
:1058C0003C892817390728F0281B390B3C8B2B8B78
:1058D0000EC06F89788D8617970728F4681B790B9F
:1058E0007C8B6B8B04C00E94A64B9C8B8B8B8B8913
:1058F0009C89892B21F48F89988D9C8B8B8B8C8133
:10590000833009F04CC089899A89892B09F03FC0FE
:105910008A81882391F08981882379F0D401C30199
:105920000090510804C0880F991FAA1FBB1F0A943A
:10593000D2F78C879D87AE87BF871A82198218821B
:105940002B8D3C8D898D9A8D2130310561F49E8B94
:105950008D8B82E08C838B899C899A8B898B842F99
:105960000E949B2614C09E8B8D8B215030408F89C6
:10597000988DDC012A9FC0012B9F900D3A9F900DBE
:1059800011249A8B898B9C8B8B8B5C8E4B8EC98858
:10599000DA88C114D10419F0C016D10608F06801E4
:1059A00000D000D000D0EDB7FEB73196ADB7BEB78E
:1059B00012963C922E921197E282F3828B899C89F7
:1059C000958384830E94BB4D2091AF034DB75EB792
:1059D0004A5F5F4F0FB6F8945EBF0FBE4DBF2223E4
:1059E000A9F0822F90E0FC0155E0EE0FFF1F5A95C1
:1059F000E1F7880F991FE80FF91FEF55F84F2B8932
:105A00003C89808D918D2817390728F48C8182304C
:105A100011F4A092AF0386010894A11CB11CA296B8
:105A200055E0A516B10409F02FCFE0916108F0917F
:105A3000620880850E94E5170E944324E82E99277A
:105A400087FD9095FC0135E0EE0FFF1F3A95E1F7D9
:105A5000880F991FE80FF91FEF55F84F8285809343
:105A6000630882E26E2D6802C00111248F55984FA1
:105A70009093530880935208EE2089F0868D978D7D
:105A8000892B49F0C28DD38DCA3FD10520F4C017B0
:105A9000D107F0F019C00B3F1105C0F415C0053156
:105AA000110590F0C80144978A3F910538F4EC0144
:105AB0008331910568F4C3E1D0E00AC00F50114072
:105AC00028F4C6EED0E004C0E80102C0CAEFD0E07E
:105AD00080916308809354088091520890915308F4
