:100000000C9417050C9494260C9436050C94360524
:100010000C9436050C9436050C9436050C94360574
:100020000C9436050C940E260C9436050C9436056B
:100030000C9436050C9436050C9436050C948925E1
:100040000C9489250C9436050C9436050C943605D1
:100050000C9436050C9436050C9436050C94360534
:100060000C9436050C9436050C9436050C94360524
:100070000C9436050C9436050C9436050C94360514
:100080000C9436050C9436050C9436056C167216D5
:10009000751678167B167E168416811687168A16B4
:1000A0008D16961699169C169F16931669166F163E
:1000B000A216A5169016661608000000BE922449E6
:1000C000123EABAAAA2ABECDCCCC4C3E000000808A
:1000D000BEABAAAAAA3E00000000BF000000803FFD
:1000E0000000000000084178D3BB4387D1133D19BD
:1000F0000E3CC3BD4282AD2B3E68EC8276BED98FEA
:10010000E1A93E4C80EFFFBE01C4FF7F3F0000002D
:10011000000007634236B79BD8A71A39685618AE55
:10012000BAAB558C1D3CB7CC5763BD6DEDFD753E2C
:10013000F6177231BF000000803F4552524F5220E7
:1001400073657474696E6720726573657276650D88
:100150000A004552524F52206372656174696E679E
:1001600020726573657276650D0A005461736B20A9
:10017000313A204552524F5220636F6E73756D694C
:100180006E6720726573657276650D0A004552527E
:100190004F522073657474696E672072657365725F
:1001A00076650D0A004552524F52206372656174A4
:1001B000696E6720726573657276650D0A00444F3B
:1001C000482C2052657365727665206572726F7275
:1001D0002068616E646C65722063616C6C65642E6E
:1001E0002E2E0D0A00554E4B4F574E004578746524
:1001F000726E616C2052657365740042726F776E27
:10020000204F757420446574656374004661696CA1
:10021000656420746F206372656174652053656D39
:100220006170686F7265004661696C656420746F07
:1002300020637265617465205369676E616C004B61
:1002400065726E656C2066756E6374696F6E206E84
:100250006F7420696D706C656D656E7465640044C3
:1002600065766963652044726976657220457272AD
:100270006F72005761746368646F672052657374AE
:10028000617274005357205761746368646F67200C
:10029000526573746172740054696D6572204F7693
:1002A0006572666C6F7700556E68616E646C65642C
:1002B00020496E7465727275707420566563746F30
:1002C00072004C6F7720566F6C74616765004578DB
:1002D000747261205461736B20737461727465640D
:1002E0002C206973206E726B5F6366672E68206FC7
:1002F0006B3F0049646C65206F72204B65726E65C0
:100300006C20537461636B204F766572666C6F77F7
:1003100000556E657870656374656420526573740A
:10032000617274004475706C696361746564205413
:1003300061736B204944005363686564756C657232
:10034000204D69737365642057616B657570005447
:1003500061736B20526573657276652056696F6CA8
:1003600061746564005265736572766520457272CA
:100370006F7220696E205363686564756C657200E6
:10038000496E76616C696420537461636B20506FB1
:10039000696E746572005461736B20537461636B92
:1003A000204F766572666C6F7700537461636B20C3
:1003B000776173206E6F7420646566696E65642072
:1003C0006173206C6172676520656E6F7567682167
:1003D000005461736B20706572696F6420746F6F75
:1003E000206C617267652E20506572696F64206DA4
:1003F000757374206265206C657373207468616E18
:10040000203631207365636F6E64732E00293A20A5
:10041000002A4E524B204552524F5228000D0A538B
:100420005441434B2044554D500D0A0008082A1CE6
:1004300008081C2A080840444A514040514A444098
:1004400014741C171410207F01010000000000002C
:1004500000000000081C2C08087F010101010101B7
:1004600001017F7F40404040404040407F0000000D
:1004700000000000000000000000000079112711BA
:1004800079000000000000000000000000000000F3
:100490007F01010103605048447E3E4949493E7056
:1004A0000C030C706349494963017F017F01635567
:1004B00049414106017E010608557F55080F107F0E
:1004C000100F4E7101714E38444438440000000052
:1004D0000000005F00000300030000143E143E14FF
:1004E00026497F493262152A542336495620500046
:1004F00003000000001C2241000041221C000014E7
:100500000E140008083E08080060000000080808F3
:100510000800004000000060100804033E41414113
:100520003E04027F0000625149454222414949365A
:100530000C0B087E084F494949313E49494932610F
:10054000110905033649494936264949493E0022E1
:10055000000000006100000008141422221414148A
:100560001414222214140806015905023E415D5557
:100570005E7E0909097E7F494949363E4141412253
:100580007F4141413E7F494949417F090909013E77
:10059000414949327F0808087F00007F0000204061
:1005A00040403F7F081422417F404040007F0204CA
:1005B000027F7F021C207F3E4141413E7F090909A5
:1005C000063E4151617E7F09192946264949493233
:1005D00001017F01013F4040403F1F2040201F3F5D
:1005E0004030403F631408146303047804036151EE
:1005F0004945437F4100000000000000000000006A
:10060000417F0601060000404040404001020000DA
:100610000020545454787F48484830384444442893
:10062000384444447F3854545418087E0909010C56
:100630005252523E7F04040478047D404020204002
:1006400040443D007F102844203E5149467C047CB4
:1006500004787C0804047838444444387E1212122A
:100660000C0C1212127E04780404084854545424CA
:10067000043F4444403C40403C401C2040201C3C43
:100680004030403C4428102844264848483E4464B2
:10069000544C4400083E410000007F000000413EF1
:1006A0000800000000000000000000000000000042
:1006B000000000000000000000000020483E090289
:1006C0000000000000000000000004047F0404009B
:1006D000000000000000000000000000000000001A
:1006E000000000000000000000000000000000000A
:1006F00000000000000000000000000000000000FA
:1007000000000000000000000000000204010200E0
:1007100000000000000018180000000000000000A9
:1007200000000000000000000000000000000000C9
:1007300000000000000000000000000000000000B9
:1007400000000000000000000000000000000000A9
:100750000000007900000000000000487E49494286
:10076000000000000015167C161500000000000AAD
:100770005555552800010001003E635D6B3E0000A9
:1007800000000008142A14220000000000000000ED
:1007900000003E41754B3E010101010100020502CE
:1007A0000000000000000000000000000000000049
:1007B00000000000000000000000060F7F017F0025
:1007C000000000000000000000000000000007051D
:1007D00007000022142A14080F003C20780F00485C
:1007E0006458000000000030484540200000000030
:1007F00000000000000000000000007229292A719A
:100800007825242578702A252A707E097F49490E8B
:100810005151711100000000007C545655440000F5
:1008200000000000000000000000000000000000C8
:1008300000000000000000000000000000000000B8
:10084000007A091122790000000000000000000079
:1008500000000000003A454546393D4242423D22F3
:10086000140814225C322A261D000000000000003B
:1008700000000000000000003C4140413C0000003E
:100880000000000000000000000000002055565449
:100890007820545655782056555678225155567919
:1008A0002055545578000000000024547854580C0A
:1008B00052527212385556541838545655183856E4
:1008C000555618385554551800497A400000487A52
:1008D0004100004A794200004A78420000000000CE
:1008E000007A11090A7130494A483030484A493083
:1008F000304A494A303249494A31304A484A300838
:10090000082A080818643C261838414220783840E4
:100910004221783842412278384240227800000053
:10092000000000000000000C5150513C6E616E0050
:10093000696E660000407A10F35A00A0724E1809E2
:100940000010A5D4E80000E87648170000E40B5436
:10095000020000CA9A3B000000E1F5050000809605
:100960009800000040420F000000A0860100000037
:10097000102700000000E8030000000064000000F1
:1009800000000A00000000000100000000002C76BA
:10099000D888DC674F0823DFC1DFAE59E1B1B796D5
:1009A000E5E3E453C63AE651997696E8E6C2842632
:1009B000EB898C9B62ED407C6FFCEFBC9C9F40F20E
:1009C000BAA56FA5F490055A2AF75C936B6CF9678A
:1009D0006DC11BFCE0E40D47FEF520E6B500D0ED4F
:1009E000902E0300943577050080841E08000020B7
:1009F0004E0A000000C80C333333330F986E128355
:100A00001141EF8D2114893BE65516CFFEE6DB1828
:100A1000D1844B381BF77C1D901DA4BBE4242032ED
:100A200084725E228100C9F124ECA1E53D271124E6
:100A30001FBECFEFD0E1DEBFCDBF12E0A0E0B1E03E
:100A4000E8EEFAE800E00BBF02C007900D92A43F69
:100A5000B107D9F716E0A4EFB2E001C01D92A634A9
:100A6000B107E1F70E94AC060C9472450C94402645
:100A700088E096E090930D0380930C038EE294E05F
:100A800090930903809308038EEA93E090930B03FD
:100A900080930A0381E080930F0380930E03809379
:100AA00010038093110381E090E0A0E0B0E0809318
:100AB000120390931303A0931403B093150380E0E3
:100AC00095E6ADECBDE18093160390931703A093D8
:100AD0001803B093190310921A0310921B0310927B
:100AE0001C0310921D0380E890EFAAEFB2E0809300
:100AF0001E0390931F03A0932003B0932103109231
:100B000022031092230310922403109225031092C3
:100B1000260310922703109228031092290387E0DE
:100B200093E00E94121E08958EEB91E00E944A12FB
:100B30000895EF92FF920F931F93DF93CF93CDB75A
:100B4000DEB728970FB6F894DEBF0FBECDBF0E9468
:100B50009723082F8F3F21F482E591E00E944A12EB
:100B60008AE090E0A0E0B0E089839A83AB83BC8305
:100B70001D821E821F821886802FBE016F5F7F4FED
:100B80004AE050E020E030E00E94C1238F3F21F492
:100B90008AE391E00E944A120E942E1C00D000D0ED
:100BA000EDB7FEB7319620E031E0ADB7BEB7129693
:100BB0003C932E931197828313820E94944310E0FA
:100BC0000F900F900F900F908FE0E82E81E0F82E9D
:100BD000802F0E948E248F3FC1F08FEF90E00E9403
:100BE000871100D000D0EDB7FEB73196ADB7BEB7D4
:100BF0001296FC92EE921197128313820E949443F4
:100C00001F5F0F900F900F900F900E94D61DE0CFA6
:100C1000AF92BF92CF92DF92FF920F931F93DF9319
:100C2000CF93CDB7DEB728970FB6F894DEBF0FBECF
:100C3000CDBF0E949723F82E8FEFF81621F485EA96
:100C400091E00E944A128AE090E0A0E0B0E089833F
:100C50009A83AB83BC831D821E821F8218868F2DD0
:100C6000BE016F5F7F4F4AE050E024E935E00E940B
:100C7000C1238F3F21F48DE891E00E944A1200D0F9
:100C800000D08EE191E0ADB7BEB712969C938E93E3
:100C9000119714961C921E9213970E9494430F90E2
:100CA0000F900F900F900E942E1C00D000D0EDB737
:100CB000FEB7319628E331E0ADB7BEB712963C934C
:100CC0002E931197828313820E94944300E010E0D8
:100CD0000F900F900F900F9027E4A22E21E0B22EDC
:100CE00096E5C92E91E0D92E80E090E00E94871110
:100CF00000D000D0EDB7FEB7B282A1821483038387
:100D00000E9494430F900F900F900F908F2D0E9490
:100D10008E248F3F21F48BE691E00E944A128F2DA2
:100D20000E94C32400D000D0ADB7BEB71296DC92AB
:100D3000CE921197992787FD909514969C938E9348
:100D400013970E9494430F900F900F900F900E9462
:100D5000D61D0F5F1F4FC8CF0E94B11187E090E0F2
:100D60000E9429120E948A1480E090E00E949C1147
:100D70008FEF90E00E949C1181E090E00E94D511DD
:100D800082E090E00E949C1160E070E080E090E0E2
:100D900020E030E040E050E00E948D1F0E943805C6
:100DA0000E942D1480E090E0089590E00B979C0144
:100DB0002B593E4B880F991F880F991F280F391FF9
:100DC000F894C09888E18FB9779BFECF3FB9779BA5
:100DD000FECF2FB9779BFECFC09A78940895F894F0
:100DE000C0981FB8779BFECF8FB1C09A789486FFCA
:100DF000F6CF0895F894C09887E08FB9779BFECF1F
:100E0000C09AC09886E08FB9779BFECFC09A78943D
:100E100008958091EB040895DC01C09889EC8FB9A6
:100E2000779BFECF80E88FB9779BFECF92E0915001
:100E3000FD01E90FF11D80818FB9779BFECF9923CA
:100E4000B1F7C09AC0988BEC8FB9779BFECF80E842
:100E50008FB9779BFECF92E09150FD01E90FF11D14
:100E600082818FB9779BFECF9923B1F7C09A8C917D
:100E70008093EC0411968C9111978093ED04129657
:100E80008C9112978093EE0413968C918093EF04CB
:100E90000895C09889E18FB9779BFECF83E08FB921
:100EA000779BFECF86E08FB9779BFECFC09AC09824
:100EB0008AE18FB9779BFECF8EE08FB9779BFECF0B
:100EC0008EE08FB9779BFECFC09A81E08093DC04DF
:100ED0000895C09889E18FB9779BFECF81E08FB9E3
:100EE000779BFECF84EC8FB9779BFECFC09A109290
:100EF000DC0408958091DA049091DB040895282F92
:100F000030E02F713070206E306AC09885E18FB963
:100F1000779BFECF3FB9779BFECF2FB9779BFECF54
:100F2000C09A08952091DD043091DE04386030933A
:100F3000DE042093DD04C09881E18FB9779BFECF5A
:100F40003FB9779BFECF2FB9779BFECFC09A08950C
:100F50002091DD043091DE04377F3093DE0420934E
:100F6000DD04C09881E18FB9779BFECF3FB9779BB5
:100F7000FECF2FB9779BFECFC09A089581E0809372
:100F8000EA042091DD043091DE0420613093DE0418
:100F90002093DD04C09881E18FB9779BFECF3FB9E4
:100FA000779BFECF2FB9779BFECFC09A0895109202
:100FB000EA042091DD043091DE042F7E3093DE04BC
:100FC0002093DD04C09881E18FB9779BFECF3FB9B4
:100FD000779BFECF2FB9779BFECFC09A089581E013
:100FE0008093E704C09883E08FB9779BFECFC09AC7
:100FF000C09888E08FB9779BFECFC09A1092F0041A
:10100000089581E08093E704C09883E08FB9779BCF
:10101000FECFC09AC09888E08FB9779BFECFC09A68
:101020001092F00408951092E704C09886E08FB9FA
:10103000779BFECFC09A1092F004089580B390E0A1
:1010400024E0969587952A95E1F78170089581B1FE
:1010500090E036E0969587953A95E1F7817008958E
:1010600080B390E044E0969587954A95E1F78170CA
:101070000895DF93CF9300D000D00F92CDB7DEB7A5
:101080000E9902C080E0D1C11092EB040E9B1AC0F1
:10109000B79918C0C0988FE78FB9779BFECF1FB85C
:1010A000779BFECF8FB1C09AC09888E08FB9779BAD
:1010B000FECFC09AC09888E08FB9779BFECFC09AC8
:1010C0008FEFB3C1C0988FE78FB9779BFECF1FB862
:1010D000779BFECF4FB1C09A4F77C1F4C0988FE78E
:1010E0008FB9779BFECF1FB8779BFECF8FB1C09A89
:1010F000C09888E08FB9779BFECFC09AC09888E0EF
:101100008FB9779BFECFC09A8EEF8FC14C308CF099
:10111000E091DF04F091E004242F332727FD309580
:101120002B5030408481992787FD90958217930733
:101130007CF5C0988FE78FB9779BFECF50E0242FC6
:10114000332727FD309504C01FB8779BFECF5F5F24
:10115000852F90E08217930714F4B799F5CFC09AC2
:10116000C0988FE78FB9779BFECF1FB8779BFECFD4
:101170008FB1C09AC09888E08FB9779BFECFC09A94
:10118000C09888E08FB9779BFECFC09A8DEF4DC194
:10119000E091DF04F091E0044C504383C0988FE766
:1011A0008FB9779BFECFFE0132969F012E5F3F4F96
:1011B0001FB8779BFECF8FB18193E217F307C1F77A
:1011C000C09AE091DF04F091E0048A819B8155E0B0
:1011D000969587955A95E1F781708783C0988FE738
:1011E0008FB9779BFECF1FB8779BFECFE091DF04CE
:1011F000F091E0048FB18083C09AC0988FE78FB9D7
:10120000779BFECF80E006C01FB8779BFECF8F5F35
:10121000843011F0B799F8CFC09AC0988FE78FB992
:10122000779BFECF20E030E01FB8779BFECFE091A8
:10123000DF04F091E0048FB1E20FF31F81832F5F91
:101240003F4F2230310581F7C09A8A8183FF4DC01C
:10125000C0988FE78FB9779BFECFE6EDF4E01FB81B
:10126000779BFECF8FB1819384E0EA3DF807B9F711
:10127000C09AC09889E98FB9779BFECF80E88FB973
:10128000779BFECF92E09150E92FF0E0EA52FB4FBE
:1012900080818FB9779BFECF9923A9F7C09AC09818
:1012A0008BE98FB9779BFECF80E88FB9779BFECF14
:1012B00092E09150E92FF0E0E852FB4F80818FB926
:1012C000779BFECF9923A9F7C09AC0988CE08FB97D
:1012D000779BFECFC09A81E08093EB04E091DF041E
:1012E000F091E004838184508383C0988FE78FB9A5
:1012F000779BFECF40E00FC01FB8779BFECFE091F9
:10130000DF04F091E0048FB10580F681E02DE40F59
:10131000F11D80834F5FE091DF04F091E004242F02
:1013200030E08381992787FD90952817390724F3AA
:10133000C09AC0988FE78FB9779BFECF1FB8779B75
:10134000FECF9FB1C09AC0988FE78FB9779BFECF31
:101350009983FE0134969E012A5F3F4F1FB8779B09
:10136000FECF8FB18193E217F307C1F7C09AE091E6
:10137000DF04F091E0048C81808750E040E00CC0F5
:10138000E091DF04F091E0040580F681E02DE20FAA
:10139000F31F8081580F4F5FE091DF04F091E0046C
:1013A000242F30E08381992787FD909528173907EE
:1013B0003CF389815817C1F0C0988FE78FB9779BAC
:1013C000FECF1FB8779BFECF8FB1C09AC09888E040
:1013D0008FB9779BFECFC09AC09888E08FB9779B72
:1013E000FECFC09A8CEF21C08D8187FF07C080910E
:1013F000F0048F5F8093F00481E017C0C0988FE7FE
:101400008FB9779BFECF1FB8779BFECF8FB1C09A65
:10141000C09888E08FB9779BFECFC09AC09888E0CB
:101420008FB9779BFECFC09A8BEF0F900F900F90E4
:101430000F900F90CF91DF9108958091F004882351
:1014400021F08091F0041092F0040895C09888E093
:101450008FB9779BFECFC09AC09888E08FB9779BF1
:10146000FECFC09A0895992787FD9095382F22279F
:101470002068C09883E18FB9779BFECF3FB9779BF7
:10148000FECF2FB9779BFECFC09A0895C09886E013
:101490008FB9779BFECFC09AC09882E18FB9779BB6
:1014A000FECF85E08FB9779BFECF88E08FB9779B21
:1014B000FECFC09AC0988EE28FB9779BFECF88E1AD
:1014C0008FB9779BFECF1FB8779BFECFC09A0E9443
:1014D000260A0895C09886E08FB9779BFECFC09A00
:1014E000C09882E18FB9779BFECF85E08FB9779B5B
:1014F000FECF1FB8779BFECFC09AC0988EE28FB9FF
:10150000779BFECF1FB8779BFECF1FB8779BFECF90
:10151000C09A0E94260A0895C09886E08FB9779BEA
:10152000FECFC09AC09882E18FB9779BFECF85E04D
:101530008FB9779BFECF81E08FB9779BFECFC09AA2
:101540000E94260A0895C09882E18FB9779BFECF4A
:1015500085E08FB9779BFECF84E08FB9779BFECF74
:10156000C09A0E94260A0895282F30E02F7030700C
:101570008091DD049091DE04807F282B392B3093FD
:10158000DE042093DD04C09881E18FB9779BFECF04
:101590003FB9779BFECF2FB9779BFECFC09A0895B6
:1015A000282F30E076E0220F331F7A95E1F7307074
:1015B0008091DD049091DE048F73282B392B3093BA
:1015C000DE042093DD04C09881E18FB9779BFECFC4
:1015D0003FB9779BFECF2FB9779BFECFC09A089576
:1015E000C09884E08FB9779BFECFC09A0895C098C9
:1015F00086E08FB9779BFECFC09A0895FF920F9334
:101600001F93DF93CF9300D000D0CDB7DEB7DC01BE
:101610004091DC04442331F0C0988DE08FB9779B72
:10162000FECFC09A1A8212962C911297622F7727BA
:1016300067FD709530E00BC01396ED91FC91149707
:10164000E80FF91F8A819081890F8A833F5F832F7A
:1016500090E08617970784F3245F29832C50442356
:1016600011F0205F2983C09888E08FB9779BFECF67
:10167000C09AC09888E08FB9779BFECFC09A0E9928
:10168000FECF8499FCCFF894C09889E08FB9779BFE
:10169000FECFC09AC09889E08FB9779BFECFC09AE1
:1016A000C0988EE38FB9779BFECF89818FB9779BE6
:1016B000FECFC09A81E498E89C838B838091EA04F2
:1016C000882321F081E698E89C838B83442329F0CA
:1016D0008B819C8188609C838B83C0988EE38FB9BB
:1016E000779BFECFFE0133969E012B5F3F4F80819B
:1016F0008FB9779BFECF3196E217F307C1F7C09AF7
:10170000C0988EE38FB9779BFECF8091E1048FB9AB
:10171000779BFECFC09AC0988EE38FB9779BFECFA0
:1017200020E030E0F901E152FB4F84818FB9779BD3
:10173000FECF2F5F3F4F22303105A1F7C09AC098EE
:101740008EE38FB9779BFECFFD019D012E5F3F4F4A
:1017500080818FB9779BFECF3196E217F307C1F7EF
:10176000C09AC0988EE38FB9779BFECF20E030E01F
:10177000F901E152FB4F86818FB9779BFECF2F5F36
:101780003F4F22303105A1F7C09A442389F0C09819
:101790008EE38FB9779BFECFECEEF4E080818FB9BA
:1017A000779BFECF319684E0E03FF807B9F7C09A07
:1017B000C0988EE38FB9779BFECF20E00BC01396C5
:1017C000ED91FC911497E80FF91F80818FB9779BF9
:1017D000FECF2F5F822F90E08617970784F3C09A81
:1017E000C0988EE38FB9779BFECF8A818FB9779BA4
:1017F000FECFC09A15968C91882399F18091E704C9
:10180000882331F4C09883E08FB9779BFECFC09ACC
:10181000C0981FB8779BFECF8FB1C09A81FFF8CFD9
:1018200010E0E5E0FE2EC098FFB8779BFECFC09A8F
:10183000C0981FB8779BFECF0FB1C09A1F5F1536B7
:1018400049F478948091DA049091DB040E94301975
:1018500090E042C084E690E00E945D1203FFE3CF77
:1018600006C0C09884E08FB9779BFECFC09A789469
:10187000849BFECF8499FECF8091EA04882381F077
:1018800084EA92E00E945D12B79B0CC0C0988FE77B
:101890008FB9779BFECF1FB8779BFECF8FB1C09AD1
:1018A00091E00DC0C09888E08FB9779BFECFC09AB9
:1018B000C09888E08FB9779BFECFC09A90E0F894EB
:1018C000C09886E08FB9779BFECFC09A78948091BC
:1018D000E1048F5F8093E104892F0F900F900F90A8
:1018E0000F90CF91DF911F910F91FF900895CF92AC
:1018F000DF92EF92FF920F931F93DF93CF9300D06D
:1019000000D0CDB7DEB77C018B016A010E9487252C
:10191000C09888E08FB9779BFECFC09AC09888E0C6
:101920008FB9779BFECFC09A0E99FECF8499FCCFDA
:10193000F894C09889E08FB9779BFECFC09AC09881
:1019400089E08FB9779BFECFC09A1A82D701129691
:101950003C91432F552747FD509520E00CC0D701FF
:101960001396ED91FC911497E80FF91F8A819081ED
:10197000890F8A832F5F822F90E0841795077CF36D
:10198000932F945F9983C0988EE38FB9779BFECF96
:101990009FB9779BFECFC09AF7018681882319F4FF
:1019A00081E498E802C081E698E89C838B83C09824
:1019B0008EE38FB9779BFECFFE0133969E012B5F9E
:1019C0003F4F80818FB9779BFECF3196E217F307A7
:1019D000C1F7C09AC0988EE38FB9779BFECF8091F4
:1019E000E1048FB9779BFECFC09AC0988EE38FB980
:1019F000779BFECF20E030E0F901E152FB4F84817C
:101A00008FB9779BFECF2F5F3F4F22303105A1F773
:101A1000C09AC0988EE38FB9779BFECFF7019701EC
:101A20002E5F3F4F80818FB9779BFECF3196E217B3
:101A3000F307C1F7C09AC0988EE38FB9779BFECFAA
:101A400020E030E0F901E152FB4F86818FB9779BAE
:101A5000FECF2F5F3F4F22303105A1F7C09AC8015A
:101A6000B6010E941E25D70115968C91882399F105
:101A70008091E704882331F4C09883E08FB9779B85
:101A8000FECFC09AC0981FB8779BFECF8FB1C09A87
:101A900081FFF8CF10E0F5E0DF2EC098DFB8779B2C
:101AA000FECFC09AC0981FB8779BFECF0FB1C09AE7
:101AB0001F5F153649F478948091DA049091DB0425
:101AC0000E94301980E060C084E690E00E945D12C0
:101AD00003FFE3CF06C0C09884E08FB9779BFECFA9
:101AE000C09AC0988EE38FB9779BFECFF7018281B1
:101AF000482F552747FD509520E00CC0D70113967D
:101B0000ED91FC911497E80FF91F80818FB9779BB5
:101B1000FECF2F5F822F90E0841795077CF3C09A49
:101B2000C0988EE38FB9779BFECF8A818FB9779B60
:101B3000FECFC09A849BFECFF8948499FECFC098C4
:101B400088E08FB9779BFECFC09AC09888E08FB9A4
:101B5000779BFECFC09AC09889E08FB9779BFECF64
:101B6000C09AC09889E08FB9779BFECFC09AC09881
:101B700086E08FB9779BFECFC09A78948091E1047C
:101B80008F5F8093E10481E00F900F900F900F9092
:101B9000CF91DF911F910F91FF90EF90DF90CF9049
:101BA0000895DF93CF9300D0CDB7DEB79A838983B2
:101BB0009093E6048093E50484EF91E00E94EC2486
:101BC000C0988AEE8FB9779BFECF80E88FB9779B5C
:101BD000FECFFE0131969E012D5F3F4F80818FB970
:101BE000779BFECF3196E217F307C1F7C09A84EFD7
:101BF00091E00E94EC240F900F90CF91DF91089517
:101C00004F925F926F927F928F929F92AF92BF920C
:101C1000CF92DF92EF92FF920F931F93DF93CF93B8
:101C200000D0CDB7DEB7182F092F84E690E00E94D0
:101C3000EC24212F302FC9016C0100E011E03E019E
:101C40000894611C711C33E0432E512C4C0E5D1E18
:101C5000F601F080EE24818190E08E299F299A83FD
:101C6000898384E690E00E94EC24C098802F8068ED
:101C70008FB9779BFECFC80195958795807C8FB9EA
:101C8000779BFECF43015301F50180818FB9779B8C
:101C9000FECF0894A11CB11C4A145B04A9F7C09A9A
:101CA0000894C11CD11C0E5F1F4FF1E000311F07CB
:101CB00079F684E690E00E94EC2420E131E040E4F3
:101CC00051E01A821982C098842F80688FB9779B5F
:101CD000FECFCA0195958795807C8FB9779BFECF03
:101CE000F30180818FB9779BFECF3196EA15FB0512
:101CF000C1F7C09AC098822F80688FB9779BFECFBA
:101D0000C90195958795807C8FB9779BFECFF301AC
:101D100080818FB9779BFECF3196EA15FB05C1F71D
:101D2000C09A2E5F3F4F4E5F5F4F81E02E313807E4
:101D300041F681E090E09A838983C0988EEC8FB958
:101D4000779BFECF80E88FB9779BFECFF301808130
:101D50008FB9779BFECF31964E165F06C1F7C09ABA
:101D6000C0988EE98FB9779BFECF80E88FB9779BBB
:101D7000FECFF40180818FB9779BFECF0894811C40
:101D8000911C48145904A9F7C09A0F900F90CF9155
:101D9000DF911F910F91FF90EF90DF90CF90BF9058
:101DA000AF909F908F907F906F905F904F9008952D
:101DB000F894C09881E08FB9779BFECFC09A88EEE7
:101DC00093E00E94EC2478940895CF93DF93EC0184
:101DD000C09888E08FB9779BFECFC09AC09888E002
:101DE0008FB9779BFECFC09A862F0E94D506D093DD
:101DF000E004C093DF04DF91CF9108950E94D506DF
:101E00000895DF92EF92FF920F931F93DF93CF938A
:101E100000D0CDB7DEB78C01D62E5A834983790125
:101E2000DD9A88EE93E00E945D12DE9881E090E0FA
:101E30000E945D12DE9A84E690E00E945D12F894A2
:101E4000C09881E08FB9779BFECFC09A82EE92E076
:101E50009093DE048093DD04C09881E18FB9779B75
:101E6000FECF82E08FB9779BFECF82EE8FB9779B52
:101E7000FECFC09AC09882E18FB9779BFECF85E0F4
:101E80008FB9779BFECF1FB8779BFECFC09AC098C3
:101E90008CE18FB9779BFECF1FB8779BFECF8FE782
:101EA0008FB9779BFECFC09AC09889E18FB9779B95
:101EB000FECF81E08FB9779BFECF84EC8FB9779B03
:101EC000FECFC09AC09887E18FB9779BFECF8AE199
:101ED0008FB9779BFECF86E58FB9779BFECFC09AEF
:101EE00084EF91E00E94EC24C09888EE8FB9779B34
:101EF000FECF80E88FB9779BFECFFE0131969E0121
:101F00002D5F3F4F80818FB9779BFECF3196E217CF
:101F1000F307C1F7C09A84EF91E00E94EC24789413
:101F20008D2D0E94D50678941093E0040093DF0471
:101F300089819A819093E4048093E304F092E6040B
:101F4000E092E5041092E1041092E7040E94EF068B
:101F50001092EA041092DC041092EB040F900F90A0
:101F6000CF91DF911F910F91FF90EF90DF90089537
:101F7000809184010E94E20F809183010E94E20F10
:101F80000895809184010E94E20F809183010E9454
:101F90002A1008958FEF0895882329F48BB1881FA4
:101FA0008827881F0895813011F080E0089580917E
:101FB0009B00881F8827881F08955F9BFECF5F982E
:101FC0008CB10895382F8F3F09F442C0282F2695F1
:101FD0002695269581E090E002C0880F991F2A95EA
:101FE000E2F7982F232F30E0277030702230310530
:101FF000E1F0233031053CF42115310571F0213039
:10200000310531F50EC024303105B9F024303105E9
:1020100084F025303105E1F414C08BB3982B9BBBC1
:1020200015C088B3982B98BB11C085B3982B95BB6E
:102030000DC082B3982B92BB09C083B1982B93B982
:1020400005C080916200982B9093620081E0089512
:102050008FEF0895382F8F3F09F443C0282F26951E
:102060002695269581E090E002C0880F991F2A9559
:10207000E2F7982F9095232F30E0277030702230B0
:102080003105E1F0233031053CF42115310571F0C3
:102090002130310531F50EC024303105B9F024303E
:1020A000310584F025303105E1F414C08BB3982359
:1020B0009BBB15C088B3982398BB11C085B39823E8
:1020C00095BB0DC082B3982392BB09C083B19823FE
:1020D00093B905C08091620098239093620081E0DB
:1020E00008958FEF0895282F8F3F69F190E0877052
:1020F000907082309105A9F0833091052CF40097FF
:1021000061F0019701F50BC08430910571F08430C6
:1021100091054CF00597B9F40AC089B309C086B39C
:1021200007C083B305C080B303C081B101C080B1D3
:1021300090E026952695269502C0959587952A9537
:10214000E2F7817008958FEF0895882319F080B524
:102150008B7F02C080B5846080BD81E00895382FF8
:102160008F3F09F442C0282F26952695269581E0B9
:1021700090E002C0880F991F2A95E2F7982F232F2D
:1021800030E02770307022303105E1F02330310526
:102190003CF42115310571F02130310531F50EC0C7
:1021A00024303105B9F02430310584F02530310573
:1021B000E1F414C08BB398279BBB15C088B3982754
:1021C00098BB11C085B3982795BB0DC082B39827E3
:1021D00092BB09C083B1982793B905C08091620072
:1021E00098279093620081E008958FEF0895982FCB
:1021F0008F3F09F488C086958695869521E030E06A
:1022000002C0220F331F8A95E2F7422F892F90E0F8
:10221000662309F047C02095877090708230910541
:1022200009F18330910534F4009771F0019709F0BA
:102230006AC011C08430910519F184309105CCF049
:10224000059709F060C023C08AB328232ABB8BB34B
:10225000482B4BBB56C087B3282327BB88B3482BDA
:1022600048BB4FC084B3282324BB85B3482B45BB50
:1022700048C081B3282321BB82B3482B42BB41C055
:1022800082B1282322B983B1482B43B93AC0809147
:10229000610028232093610080916200482B4093C5
:1022A00062002FC08770907082309105C9F0833032
:1022B00091052CF4009761F0019729F50DC0843049
:1022C0009105B1F0843091057CF00597E1F414C0DC
:1022D0008AB3482B4ABB15C087B3482B47BB11C0F4
:1022E00084B3482B44BB0DC081B3482B41BB09C00C
:1022F00082B1482B42B905C080916100482B4093C0
:10230000610081E008958FEF08958FEF08950097A1
:1023100011F480E004C08130910529F488E00E9426
:10232000AF1081E00895029711F08FEF089580E1DA
:102330000E94AF1081E00895009711F480E004C07E
:102340008130910529F488E00E94E20F81E0089530
:10235000029711F08FEF089580E10E94E20F81E073
:10236000089580B5846080BD87E087BB88BB8FEF10
:1023700084BB15BA82E082B987E68ABB80E48BBB56
:1023800080E58DB981E08EB980E090E00E949C11DB
:1023900081E090E00E949C1182E090E00E949C11FC
:1023A00083E090E00E949C110895009711F480E072
:1023B00004C08130910529F488E00E942A1081E050
:1023C0000895029711F08FEF089580E10E942A107E
:1023D00081E008955D9BFECF5D988CB90895982F9C
:1023E00080919B0085FFFCCF80919B008F7D809327
:1023F0009B0090939C0008959093900089B986E08B
:10240000809395005298599A8AB188618AB9089543
:10241000909398008093990086E080939D00EAE96C
:10242000F0E080818B7F8083ABE9B0E08C918260AB
:102430008C93808188618083089580919B0087FFC1
:10244000FCCF80919B008F7780939B0080919C00B4
:102450000895EF92FF920F931F930E94FC110AEED2
:1024600011E18DEDE82E8FE0F82EC801B7010E9432
:10247000DA4290933F0680933E06C801B7010E945E
:10248000DA4290933D0680933C061F910F91FF9096
:10249000EF900895CF93DF93EC0107C060913E0663
:1024A00070913F0690E00E946843FE01219684915E
:1024B0008823A1F7DF91CF9108950000000000006C
:1024C00000000197D1F70895FC0187E090E060815A
:1024D0000E943D4481E008950F931F93CF93DF93B3
:1024E0008C01C8E0D0E0CE01F80161918F010E941B
:1024F0003D442196C831D105B1F781E0DF91CF91FC
:102500001F910F910895FC0186E090E060810E9488
:102510003D4481E008950E943D4480E008950F937A
:102520001F938C0187E090E00E943544F80180837E
:1025300081E01F910F9108950F931F93CF93DF9325
:102540008C01C8E0D0E0CE010E943544F8018193AF
:102550008F012196C831D105B1F781E0DF91CF918C
:102560001F910F9108950F931F938C0186E090E0C7
:102570000E943544F801808381E01F910F910895F6
:102580000F931F938C0185E090E00E943544F80181
:10259000808381E01F910F910895FF920F931F9305
:1025A0008C0180E090E00E943544F801838381E053
:1025B00090E00E943544F801828382E090E00E941E
:1025C0003544F801818383E090E00E943544F82E81
:1025D000F801808384E090E00E943544F801918105
:1025E0002281920F9F0D2381920F891711F08FEF97
:1025F00001C081E01F910F91FF9008950E94354422
:102600000895F894089578940895F894FFCF85E696
:1026100090E008950E9485210895EF92FF920F9314
:102620001F93CF93DF93EC018B017A018985823070
:1026300021F080919D05888301C0188280919D05BD
:10264000853020F087E060E00E94FF1689858230A7
:1026500029F080919D058F5F80939D0580919D0558
:10266000882319F481E080939D058881992787FD4F
:102670009095FC0145E0EE0FFF1F4A95E1F7E80F4A
:10268000F91FED50FB4F118300838881992787FD47
:102690009095FC0135E0EE0FFF1F3A95E1F7E80F4A
:1026A000F91FED50FB4F888582878881992787FD28
:1026B0009095FC0125E0EE0FFF1F2A95E1F7E80F4A
:1026C000F91FED50FB4F83E081872881822F9927E6
:1026D00087FD9095FC0105E0EE0FFF1F0A95E1F7DD
:1026E000E80FF91FED50FB4F20878881992787FD60
:1026F0009095FC0115E0EE0FFF1F1A95E1F7E80F2A
:10270000F91FED50FB4F15820881112707FD109529
:10271000CE010B960E949E1FF801B5E0EE0FFF1F41
:10272000BA95E1F7E00FF11FED50FB4F948F838FC7
:102730008B859C85AD85BE85CE97A105B10520F022
:1027400086E168810E94FF160881112707FD109518
:10275000CE014B960E949E1FF801A5E0EE0FFF1FD1
:10276000AA95E1F7E00FF11FED50FB4F968B858B9B
:102770008881992787FD9095FC0175E0EE0FFF1F7A
:102780007A95E1F7E80FF91FED50FB4F858996899F
:10279000238D348D820F931F908F878B0881112793
:1027A00007FD1095CE0143960E949E1FF80165E03B
:1027B000EE0FFF1F6A95E1F7E00FF11FED50FB4FA1
:1027C000968F858F8881992787FD9095FC0155E02C
:1027D000EE0FFF1F5A95E1F7E80FF91FED50FB4F81
:1027E000858D968D928F818F8881992787FD909511
:1027F000FC0145E0EE0FFF1F4A95E1F7E80FF91FD6
:10280000ED50FB4F81E090E090A3878F888199275E
:1028100087FD9095FC0135E0EE0FFF1F3A95E1F73B
:10282000E80FF91FED50FB4FF382E2828881992770
:1028300087FD9095FC0125E0EE0FFF1F2A95E1F73B
:10284000E80FF91FED50FB4F81E08487DF91CF91B6
:102850001F910F91FF90EF900895CF92DF92EF922A
:10286000FF920F931F93DF93CF930F92CDB7DEB7F5
:102870007BEFE72E74E0F72E90E0F70100810F3F29
:10288000C1F06BEFC62E64E0D62E10E0911751F028
:10289000F6018081081731F485E0602F99830E944A
:1028A000FF1699811F5F21E230E0C20ED31E153062
:1028B00069F79F5FE1E2F0E0EE0EFF1E9530E9F66A
:1028C0000E940C1B282F332727FD3095F90155E076
:1028D000EE0FFF1F5A95E1F7E20FF31FED50FB4F8C
:1028E00032853093B00521E28202C00111248D505F
:1028F0009B4F9093AF058093AE059093A005809376
:102900009F053093A1050E943F270E9430270E9417
:102910009933FFCF0F931F93DF93CF93CDB7DEB7DC
:10292000A3970FB6F894DEBF0FBECDBF0E9431183B
:1029300080939E058F3F21F48EE060E00E94FF1699
:102940000E946A2680FF04C086E060E00E94FF16B5
:102950001092A1051092AF051092AE051092A0053D
:1029600010929F051092B0050E948B231092AD0526
:102970008FEF80939A0580939C0580939B05EBEFE6
:10298000F4E093E692838083B19625E0E03AF20783
:10299000C9F7E1EBF5E0CF01059694838383F783D4
:1029A000E683FC0185E0EA3CF807A9F71092B3053D
:1029B0001092B205148213821092A4051092A305FE
:1029C0007997F093F204E093F1048E010F5F1F4FAB
:1029D000C8016FE571E20E94E326C80163E374E079
:1029E00040E850E00E94442785E58093330419862F
:1029F0001C861D861E861F86188A198A1A8A1B8ABB
:102A00001C8A1D8A1E8A1F8A188E198E1A8E1B8E8A
:102A10001C8E1D8E1E8E1F8E18A219A21AA21BA21A
:102A200091E0988782E08A879B87C8010E94121EE6
:102A3000A3960FB6F894DEBF0FBECDBFCF91DF9146
:102A40001F910F910895E091AE05F091AF05848735
:102A50000895E091AE05F091AF0584850895DC01FD
:102A6000FB0180913204882329F080838091050343
:102A70008C9381E00895DF93CF930F92CDB7DEB7AB
:102A8000198207C080ED97E00E94EC2489818F5F56
:102A9000898389818436B0F30F90CF91DF910895B7
:102AA00081E090E00E94D5110E943B1581E090E00A
:102AB0000E949C110E943B15089581E090E00E94C5
:102AC000D5110E943B150E943B150E943B1581E0E9
:102AD00090E00E949C110E943B150895FF920F9375
:102AE0001F93DF93CF9300D00F92CDB7DEB700D006
:102AF00000D000D0EDB7FEB731968E010F5F1F4FAB
:102B0000ADB7BEB712961C930E9311972DE831E026
:102B100033832283848315820E94A643FF248DB7CA
:102B20009EB706960FB6F8949EBF0FBE8DBF71C0BC
:102B3000A00FB11F8C918433D1F1853370F48133B0
:102B4000F9F0823320F4803309F05CC016C0823380
:102B500011F1833309F056C023C08733C9F188339C
:102B600030F4853369F1863309F04CC02CC08833CA
:102B7000B1F1893309F046C03BC00E945D1502C027
:102B80000E9450150E945D150E945D150E945D1502
:102B90000E945D1537C00E9450150E945015F4CF59
:102BA0000E9450150E9450150E945015EFCF0E94B0
:102BB00050150E9450150E9450150E945015E8CFE4
:102BC0000E94501502C00E945D150E94501504C05D
:102BD0000E945D150E945D150E94501506C00E945E
:102BE0005D150E945D150E945D150E94501508C07C
:102BF0000E945D150E945D150E945D150E945D1585
:102C00000E9450150E943B150E943B150E943B15E7
:102C1000F394F80101900020E9F73197E01BF10BE4
:102C2000AF2DB0E0AE17BF0708F482CF0F900F9022
:102C30000F90CF91DF911F910F91FF9008950F9307
:102C40001F93CF93DF9380913204882329F4DF917F
:102C5000CF911F910F9108950E9401130E940113BB
:102C6000CDE8D1E081E194E00E944A1200D000D08A
:102C7000EDB7FEB73196ADB7BEB71296DC93CE93E3
:102C8000119780910503828313820E9494430F90D1
:102C90000F900F900F908DE094E00E944A12809167
:102CA0003204883110F0109232048091320490E0A6
:102CB000FC013197E631F10508F04AC0EA5BFF4FAD
:102CC000EE0FFF1F0590F491E02D099481ED93E044
:102CD00041C08AEA93E03EC086E993E03BC080E8C9
:102CE00093E038C085E693E035C08FE493E032C0CE
:102CF00087E393E02FC084E293E02CC081E193E06E
:102D000029C083EF92E026C08EEC92E023C082ECD3
:102D100092E020C087EA92E01DC088E992E01AC0E4
:102D200084E892E017C083E792E014C08FE592E058
:102D300011C08FE392E00EC087E292E00BC08CE0FE
:102D400092E008C08BEF91E005C08CEE91E002C0EC
:102D500085EE91E00E944A1260913E0670913F0616
:102D60008DE090E00E94684360913E0670913F06BE
:102D70008AE090E00E94684300E082E090E00E94D8
:102D8000D51183E090E00E949C1110E088EE93E062
:102D90000E94EC241F5F1436C9F783E090E00E9484
:102DA000D51182E090E00E949C1110E088EE93E043
:102DB0000E94EC241F5F1436C9F70F5F0431E9F657
:102DC00082E090E00E949C1183E090E00E949C11C0
:102DD000809105030E946E150E943B1582E090E0F1
:102DE0000E94D5110E943B1582E090E00E949C1148
:102DF0000E943B15809132040E946E1533CF809360
:102E00003204609305030E941F16089580933204D4
:102E1000E091AE05F091AF058085809305030E9497
:102E20001F160895992787FD9095FC0125E0EE0F68
:102E3000FF1F2A95E1F7E80FF91FED50FB4FA28124
:102E4000B3818C91853521F085E58C938FEF0895C2
:102E5000808191818050914110F481E0089582E158
:102E60000E9406178FEF08956F927F928F929F9224
:102E7000AF92BF92CF92DF92EF92FF920F931F9388
:102E8000CF93DF938DE194E00E944A1200D000D0EE
:102E900080E991E0ADB7BEB712969C938E931197DF
:102EA000E091AE05F091AF058085992787FD90955B
:102EB00014969C938E9313970E949443E091AE05D1
:102EC000F091AF050281138189E991E0EDB7FEB77A
:102ED00092838183148303830E949443EDB7FEB7EA
:102EE000319656EAC52E51E0D52EADB7BEB7129633
:102EF000DC92CE921197D8018C91828313820E942A
:102F0000944343EBE42E41E0F42EEDB7FEB7F2829A
:102F1000E182E091AE05F091AF0580819181ADB77E
:102F2000BEB714969C938E9313970E9494430DEB17
:102F300011E0EDB7FEB7128301838091AE05909149
:102F4000AF05948383830E949443C3EFD4E0AA2403
:102F5000BB240F900F900F900F903DEC632E31E04B
:102F6000732E4601670178010A811B8100D000D0D1
:102F700000D0EDB7FEB73196ADB7BEB712967C92D2
:102F80006E921197B382A282158304830E949443A8
:102F90000F900F90EDB7FEB73196ADB7BEB7119653
:102FA0008C92119712969C92D8018C9182831382F5
:102FB0000E949443EDB7FEB7C182D2828881998185
:102FC000948383830E949443ADB7BEB71196EC926D
:102FD00011971296FC9212971496DC93CE93139746
:102FE0000E9494430894A11CB11CA1960F900F90CD
:102FF0000F900F90B5E0AB16B10409F0B5CFDF919B
:10300000CF911F910F91FF90EF90DF90CF90BF90E5
:10301000AF909F908F907F906F900895CF93DF93A4
:10302000E091AE05F091AF05C281D38188818535ED
:1030300039F00E94341781E00E94061785E58883E5
:10304000E091AE05F091AF05808191818050914172
:1030500028F00E94341782E10E940617DF91CF9179
:1030600008954091AA035091AB036091AC03709115
:10307000AD0320E030E0DB01CA01022E04C0B695AA
:10308000A795979587950A94D2F781709070892BB0
:10309000D1F481E090E0A0E0B0E0022E04C0880FFF
:1030A000991FAA1FBB1F0A94D2F7842B952BA62B1E
:1030B000B72B8093AA039093AB03A093AC03B09378
:1030C000AD03822F08952F5F3F4F2032310599F6CF
:1030D0008FEF0895E091AE05F091AF056585768597
:1030E000878590890895EF92FF920F931F9321E0B7
:1030F00030E040E050E004C0220F331F441F551F52
:103100008A95D2F7E091AE05F091AF05E584F6849B
:1031100007851089DA01C9018E219F21A023B123DF
:103120000097A105B10511F48FEF19C020953095D6
:1031300040955095E222F32204231523E586F68676
:103140000787108B81899289A389B489822393236D
:10315000A423B523818B928BA38BB48B81E01F9129
:103160000F91FF90EF900895682F772767FD709576
:103170008091AA039091AB03A091AC03B091AD03F1
:10318000062E04C0B695A795979587950A94D2F711
:1031900081709070892B11F48FEF0895E091AE0546
:1031A000F091AF0521E030E040E050E004C0220F94
:1031B000331F441F551F6A95D2F785859685A785CD
:1031C000B089822B932BA42BB52B85879687A78755
:1031D000B08B81E0089580E090E008958A59954091
:1031E00011F08FEF089580E008950E94EE188F3F50
:1031F00011F481E003C0813029F482E00E9423159C
:103200008FEF0895992787FD9095FC01EE0FFF1F22
:10321000E80FF91FE656FA4F8FEF80838283818390
:103220008091AD0581508093AD0581E008950E94A5
:10323000EE188F3F11F481E003C0813029F482E061
:103240000E9423158FEF0895992787FD9095FC0123
:10325000EE0FFF1FE80FF91FE656FA4F828108951F
:103260001F93CF93DF930E94EE18182F8F3F11F416
:1032700081E003C0813029F482E00E9423158FEFA2
:103280003DC0992787FD9095EC01CC0FDD1FC80F3D
:10329000D91FC656DA4F9A818881981774F50E9413
:1032A00001138A818F5F8A83E091AE05F091AF05AB
:1032B0001482EAEFF4E0212F332727FD3095432FC6
:1032C000532F63E08081823089F482859385A485C1
:1032D000B58582179307A407B50741F46283178663
:1032E000168610821286138614861586B19685E09E
:1032F000EF39F80739F70E94031381E0DF91CF918E
:103300001F910895DF92EF92FF920F931F9351E068
:10331000E52EF12C012D112D04C0EE0CFF1C001F19
:10332000111F8A95D2F78091AA039091AB03A091C7
:10333000AC03B091AD038E219F21A023B123009750
:10334000A105B10511F481E041C00E940113EAEF2B
:10335000F4E0DD2423E080818130B1F4828593851F
:10336000A485B5858E219F21A023B1230097A105B7
:10337000B10551F02283178616861082E286F38605
:1033800004871587DD24D3948081823099F4828567
:103390009385A485B5858E159F05A007B10751F4C7
:1033A0002283178616861082128613861486158647
:1033B000DD24D394B19685E0EF39F80761F60E94D9
:1033C0000313DD2011F081E004C082E00E94231588
:1033D0008FEF1F910F91FF90EF90DF900895EF9284
:1033E000FF920F931F93CF93DF93C82FDD27C7FD65
:1033F000D09561E0E62EF12C012D112D0C2E04C08C
:10340000EE0CFF1C001F111F0A94D2F78091AA0333
:103410009091AB03A091AC03B091AD038E219F219D
:10342000A023B1230097A105B10511F48FEF5CC073
:103430000E940113EAEFF4E0A8019701209530956E
:103440004095509563E081818F3F39F18681978166
:10345000A085B1858E159F05A007B10731F41286AE
:103460001386148615861082628386819781A085D3
:10347000B18582239323A423B52386839783A087D2
:10348000B18782859385A485B58582239323A42360
:10349000B52382879387A487B587B19685E0EF39F6
:1034A000F80789F62EEF3FEF4FEF5FEF04C0220FD2
:1034B000331F441F551FCA95D2F78091AA039091DC
:1034C000AB03A091AC03B091AD0382239323A4235B
:1034D000B5238093AA039093AB03A093AC03B0935E
:1034E000AD030E94031381E0DF91CF911F910F91F3
:1034F000FF90EF9008951F93CF93DF930E94EE18F3
:10350000182F8F3F11F481E003C0813029F482E04D
:103510000E9423158FEF3FC00E940113C12FDD27AA
:10352000C7FDD095FE01EE0FFF1FEC0FFD1FE65605
:10353000FA4F82818823B9F4E091AE05F091AF058E
:10354000878182608783812F992787FD9095A92F96
:10355000B92F818B928BA38BB48B0E94031380E0D5
:1035600090E00E94441DFE01EE0FFF1FEC0FFD1FB7
:10357000E656FA4F828181508283A091AE05B091C8
:10358000AF0581811B968C931B9781E014968C93D9
:103590000E94031381E0DF91CF911F9108959B0159
:1035A000AC01E091AE05F091AF0585859685A785C4
:1035B000B08982239323A423B5230097A105B105E5
:1035C00029F420E030E040E050E023C0218B328B32
:1035D000438B548B81E0878300909E0504C05695F1
:1035E0004795379527950A94D2F7C9018170907055
:1035F000892B19F00E94E81C04C080E090E00E9432
:10360000441DE091AE05F091AF05218932894389CF
:103610005489B901CA010895E091A305F091A40568
:1036200080810895E091A305F091A40503C0038073
:10363000F481E02D3097D9F70895DF92EF92FF9251
:103640000F931F93CF93DF93D82EC091F104D091A5
:10365000F204209709F49BC04091A3055091A40562
:103660004115510519F4A0E0B0E057C0DA01282F48
:10367000332727FD3095C90165E0880F991F6A95AA
:10368000E1F7820F931F8D509B4FBC01665F7F4F08
:1036900024E0E22EF12CE80EF91E8C01055F1F4F8D
:1036A0008C91282F30E0F90185E0EE0FFF1F8A95FD
:1036B000E1F7E20FF31FED50FB4F8481882329F0DF
:1036C0009385FB018081981740F1F7018081882361
:1036D00079F0F90195E0EE0FFF1F9A95E1F7E20FFF
:1036E000F31FED50FB4F9285F80180819817A8F0E9
:1036F000F90185E0EE0FFF1F8A95E1F7E20FF31F56
:10370000ED50FB4F9285FB018081981730F01396A6
:103710000D90BC91A02D109719F6D882EB81FC81F9
:10372000F093F204E093F104A417B507B1F41097F5
:1037300049F0BC83AB831A8219821296DC93CE9334
:10374000119706C01C821B821A821982D283C18300
:10375000D093A405C093A3051AC011968D919C9196
:103760001297AE17BF0759F09A838983BC83AB8346
:103770001196ED91FC911297D483C38304C01C82EF
:103780001B829A8389831296DC93CE931197DF91E3
:10379000CF911F910F91FF90EF90DF900895CF93FD
:1037A000DF93A091A305B091A405109709F453C02D
:1037B000282F332727FD30958C9190E082179307AF
:1037C00079F41396ED91FC911497F093A405E0938E
:1037D000A3051282118212C0DA0141155105D9F1F7
:1037E0008C9190E013964C91139714965C911497DA
:1037F0008217930789F722C0FA83E983E091F104E5
:10380000F091F204309749F4B093F204A093F104DC
:1038100014961C921E9213970AC01496FC93EE9372
:103820001397B283A183B093F204A093F104E091C3
:10383000F104F091F204128211820DC01196ED9103
:10384000FC911297438354831396CD91DC91149786
:10385000209791F6D3CFDF91CF910895E091AE05F7
:10386000F091AF05808508950E94F326E091AE05A2
:10387000F091AF0585818823B9F70895FF920F93E2
:103880001F93DF93CF93CDB7DEB728970FB6F89489
:10389000DEBF0FBECDBF29833A834B835C836D832C
:1038A0007E838F8398870E940E180E940113E091F7
:1038B000AE05F091AF0581E0858381E090E090A3B3
:1038C000878F0E948725F82ECE0101960E949E1FA9
:1038D000E091AE05F091AF050F2D10E0800F911F24
:1038E000968B858B87EF8F1570F00E9481250F5F77
:1038F0001F4F90E00817190734F48F2D8E5F8093C7
:1039000031040E9484250E9403130E94341C81E02C
:1039100028960FB6F894DEBF0FBECDBFCF91DF91D2
:103920001F910F91FF9008958F929F92AF92BF9237
:10393000CF92DF92EF92FF920F931F93DF93CF937B
:10394000CDB7DEB760970FB6F894DEBF0FBECDBF20
:1039500029873A874B875C876D877E878F87988B0F
:10396000CE0101960E940021CE01099609851A8593
:103970002B853C854D855E856F85788989809A8009
:10398000AB80BC80CD80DE80EF80F8840E94661E14
:103990008F3F59F029853A854B855C856D857E85FD
:1039A0008F8598890E943E1C81E060960FB6F8943E
:1039B000DEBF0FBECDBFCF91DF911F910F91FF9062
:1039C000EF90DF90CF90BF90AF909F908F90089531
:1039D0001F930E940113E091AE05F091AF0581E0C5
:1039E000858386830E948725182F883F80F40E9454
:1039F0008125212F30E02F5F3F4F90E028173907B6
:103A000034F4812F8E5F809331040E9484250E94BC
:103A100003130E94341C81E01F9108951F93DF93CC
:103A2000CF93CDB7DEB728970FB6F894DEBF0FBEA1
:103A3000CDBF29833A834B835C836D837E838F83E1
:103A400098870E9401130E948725182FCE010196A6
:103A50000E949E1F8330910510F48FEF0BC0E09100
:103A6000AE05F091AF05810F911D968B858B0E945D
:103A7000031381E028960FB6F894DEBF0FBECDBFCA
:103A8000CF91DF911F9108950F931F938C010E9496
:103A90000113E091AE05F091AF0581E08583168BAF
:103AA000058B0E948725082F883F80F40E9481257E
:103AB000202F30E02F5F3F4F90E02817390734F474
:103AC000802F8E5F809331040E9484250E9403130F
:103AD0000E94341C81E01F910F910895FF920F9373
:103AE0001F93CF93DF938C010E940113E091AE05E9
:103AF000F091AF0581E085830E948725F82EE09143
:103B0000AE05F091AF05C82FD0E00C0F1D1F168B2E
:103B1000058B87EF8F1568F00E948125219690E034
:103B2000C817D90734F48F2D8E5F809331040E941B
:103B300084250E9403130E94341C81E0DF91CF9101
:103B40001F910F91FF9008951F93CF93DF93EC0186
:103B50000E940E18209711F4C1E0D0E00E940113DA
:103B6000E091AE05F091AF0581E08583D0A3C78FCA
:103B70000E948725182F883F80F40E948125212FDD
:103B800030E02F5F3F4F90E02817390734F4812F42
:103B90008E5F809331040E9484250E9403130E944B
:103BA000341C81E0DF91CF911F9108951F930E94F3
:103BB0000E180E940113E091AE05F091AF0581E06F
:103BC00090E090A3878F81E085830E948725182F3E
:103BD000883F80F40E948125212F30E02F5F3F4FE6
:103BE00090E02817390734F4812F8E5F80933104D9
:103BF0000E9484250E9403130E94341C81E01F91BF
:103C00000895E091AE05F091AF0580850E94CF1B2D
:103C1000E091AE05F091AF0584E081870E94D61D4A
:103C200081E00895EF92FF920F931F93CF93DF935C
:103C3000EC0169817A814B815C818D819E810E943A
:103C4000FE26BC018F81882369F04B815C81CE0107
:103C500020E030E000E010E0EE24FF240E940D138D
:103C60001F8215C08881992787FD9095FC01A5E0EA
:103C7000EE0FFF1FAA95E1F7E80FF91FED50FB4F7C
:103C80008185833011F08FEF1AC071836083888142
:103C9000992787FD9095FC0175E0EE0FFF1F7A953F
:103CA000E1F7E80FF91FED50FB4F85899689892BC5
:103CB00029F482E0818788810E941D1B81E0DF91C9
:103CC000CF911F910F91FF90EF9008958F929F9247
:103CD000AF92BF92CF92DF92EF92FF920F931F931A
:103CE000DF93CF93CDB7DEB760970FB6F894DEBF02
:103CF0000FBECDBFFC0109831A832B833C834D8308
:103D00005E836F83788789869A86AB86BC86CD86EC
:103D1000DE86EF86F88A89819A81AB81BC812D810C
:103D20003E814F815885E984FA840B851C85AD84DA
:103D3000BE84CF84D8888E159F05A007B107F0F107
:103D4000E816F9060A071B0791F42A153B054C05EE
:103D50005D05A0F12A193B094C095D0924833583CF
:103D60004683578310821182128213821CC02A1547
:103D70003B054C055D05C8F40197A109B1098E19F1
:103D80009F09A00BB10B80839183A283B383205042
:103D900036434546544C2A193B094C095D09248396
:103DA00035834683578381E00AC08E199F09A00B93
:103DB000B10B80839183A283B383EDCF8FEF6096A5
:103DC0000FB6F894DEBF0FBECDBFCF91DF911F912C
:103DD0000F91FF90EF90DF90CF90BF90AF909F90AA
:103DE0008F9008958F929F92AF92BF92CF92DF9261
:103DF000EF92FF920F931F93DF93CF93CDB7DEB770
:103E000060970FB6F894DEBF0FBECDBFFC010983EB
:103E10001A832B833C834D835E836F8378878986E7
:103E20009A86AB86BC86CD86DE86EF86F88AAD8024
:103E3000BE80CF80D884ED84FE840F851889898563
:103E40009A85AB85BC8529813A814B815C81820F43
:103E5000931FA41FB51F80839183A283B383EA0CB1
:103E6000FB1C0C1D1D1DE482F5820683178313C005
:103E700080509A4CAA49BB4384839583A683B78319
:103E800080819181A281B3810196A11DB11D8083A2
:103E90009183A283B38384819581A681B781803089
:103EA0002AEC92072AE9A2072BE3B20708F781E080
:103EB00060960FB6F894DEBF0FBECDBFCF91DF91F5
:103EC0001F910F91FF90EF90DF90CF90BF90AF9038
:103ED0009F908F900895FC0113C080509A4CAA497E
:103EE000BB4384839583A683B78380819181A2811C
:103EF000B3810196A11DB11D80839183A283B383F9
:103F000084819581A681B78180302AEC92072AE9C5
:103F1000A2072BE3B20708F708956093A5057093F5
:103F2000A6058093A7059093A8052093A905309333
:103F3000AA054093AB055093AC0508956F927F920C
:103F40008F929F92AF92BF92CF92DF92EF92FF92A9
:103F50000F931F93FC016080718082809380648145
:103F6000758186819781611471048104910409F43B
:103F700069C022E4621671048104910418F020E003
:103F800030E066C05B016C01EE24FF24870150E045
:103F90003DC0FA2DEB2DE65391E0EB1508F090E0D3
:103FA0008C2D865621E08C1508F020E0792F780FB3
:103FB00091E0781708F090E0292B8D2D855C31E099
:103FC0008D1508F030E0622F680F91E0681708F057
:103FD00090E0232F292B2E0D91E02E1508F090E074
:103FE000492F4F0D91E04F1508F090E0392F300F19
:103FF00091E0301708F090E0910FAF2EBE2EC72E43
:10400000D62EE22EF42E032F192F5F5F852F90E01E
:10401000A0E0B0E086159705A805B90508F4B9CF6A
:104020009501A601B701C801A3EBAA2EF6EEBF2E9B
:10403000EEE0CE2EDD24EE24FF2400E010E00E940E
:10404000C43306C023EB36EE4EE050E00E949341AD
:10405000C9011F910F91FF90EF90DF90CF90BF901B
:10406000AF909F908F907F906F900895EF92FF9206
:104070000F931F93DF93CF93CDB7DEB728970FB67B
:10408000F894DEBF0FBECDBF7B018C0173708070D2
:10409000907023EB36EE4EE050E00E9460416D835D
:1040A0007E838F839887A8019701BAE0569547953C
:1040B00037952795BA95D1F729833A834B835C834B
:1040C0003A814B815C8128960FB6F894DEBF0FBE13
:1040D000CDBFCF91DF911F910F91FF90EF90089589
:1040E0006F927F928F929F92AF92BF92CF92DF9208
:1040F000EF92FF920F931F93FC016080718082808A
:104100009380648175818681978161147104810433
:10411000910409F460C05B016C01EE24FF24870167
:1041200050E03DC0FA2DEB2DE65391E0EB1508F081
:1041300090E08C2D865621E08C1508F020E0792F38
:10414000780F91E0781708F090E0292B8D2D855C91
:1041500031E08D1508F030E0622F680F91E06817AC
:1041600008F090E0232F292B2E0D91E02E1508F05A
:1041700090E0492F4F0D91E04F1508F090E0392F56
:10418000300F91E0301708F090E0910FAF2EBE2E67
:10419000C72ED62EE22EF42E032F192F5F5F852F08
:1041A00090E0A0E0B0E086159705A805B90508F4F1
:1041B000B9CF9501A601B701C801E3EBAE2E06EE1B
:1041C000B02E1EE0C12EDD24EE24FF2400E010E01E
:1041D0000E94C43306C023EB36EE4EE050E00E944E
:1041E0009341B901CA011F910F91FF90EF90DF90A9
:1041F000CF90BF90AF909F908F907F906F900895D9
:10420000EF92FF920F931F93CF93DF93EC011C82E9
:104210001D821E821F828091A5059091A605A09106
:10422000A705B091A80588839983AA83BB83E090F2
:10423000A905F090AA050091AB051091AC05EC82A0
:10424000FD820E831F830E94872590E0A0E0B0E0EE
:10425000BC01CD0123EB36EE4EE050E00E94604100
:10426000E60EF71E081F191FEC82FD820E831F83C6
:1042700013C080509A4CAA49BB438C839D83AE8364
:10428000BF8388819981AA81BB810196A11DB11D3F
:1042900088839983AA83BB838C819D81AE81BF81F2
:1042A00080302AEC92072AE9A2072BE3B20708F72D
:1042B000DF91CF911F910F91FF90EF9008950F9391
:1042C0001F9301E012E00E940E180E9481258531A3
:1042D00028F40093A2050E94F32608C08AE090E02B
:1042E0000E94EC241093A2050E94E72680913304DB
:1042F000853519F088E00E94061780917E1085357B
:1043000011F388E00E940617DECF2F923F924F9262
:104310005F926F927F928F929F92AF92BF92CF9255
:10432000DF92EF92FF920F931F93CF93DF930E9440
:1043300018250E9457251C018AEF0E948425609150
:10434000310470E080E090E023EB36EE4EE050E088
:104350000E9460417B018C018091A9059091AA0582
:10436000A091AB05B091AC05E80EF91E0A1F1B1F0A
:10437000C801B7010E949341A8019701261B370B82
:10438000480B590B8091A5059091A605A091A70512
:10439000B091A8051BC0E12CE6E3FE2EE5E60E2F4A
:1043A000E4EC1E2FE20EF31E041F151FC801B70117
:1043B00023EB36EE4EE050E00E949341A8019701B6
:1043C000261B370B480B590BD601C5015C016D014B
:1043D0000894A11CB11CC11CD11C20306AEC36070A
:1043E0006AE946076BE35607B0F68093A5059093FC
:1043F000A605A093A705B093A8052093A90530931F
:10440000AA054093AB055093AC05E091AE05F09141
:10441000AF0585818823B9F081858430A1F087813B
:10442000823029F0882341F08681882311F485E0C9
:1044300001C083E0818704C083E0818717821682F0
:1044400080850E94CF1BE091AE05F091AF05858D70
:10445000968D892B91F16085662379F18185843071
:1044600061F1218D328D8091310490E02817390758
:1044700050F482E00E94FF16E091AE05F091AF0586
:10448000128E118E04C0281B390B328F218FE091C0
:10449000AE05F091AF051085818D928D892B69F461
:1044A00083E0612F0E94FF16E091AE05F091AF0509
:1044B00083E08187812F0E94CF1BC8EFD4E0EE24D8
:1044C00070E6C72E7AEED72E61E0462E512C5AEFB9
:1044D000652E712C42E0F42E31E0832E912CA12C1C
:1044E000B12C8B818F3F09F48BC01882882391F106
:1044F0008C81843079F1288939898091310490E068
:104500002817390728F0281B390B398B288B02C054
:10451000198A188A2A893B892817390728F0281B05
:10452000390B3B8B2A8B0EC06E897F8986179707C4
:1045300028F4681B790B7B8B6A8B04C00E947F4137
:104540009B8B8A8B8A899B89892B21F48E899F89F1
:104550009B8B8A8B8C81833009F052C08889998922
:10456000892B09F045C08A81882391F089818823AD
:1045700079F0D501C40100909E0504C0880F991FF1
:10458000AA1FBB1F0A94D2F78C879D87AE87BF876F
:104590001A82198218822A8D3B8D4E895F89888DF7
:1045A000998D2130310579F49D8B8C8BFC828A8921
:1045B0009B89998B888B452B11F4798A688A8E2D7B
:1045C0000E941D1B15C09D8B8C8B21503040249F59
:1045D000C001259F900D349F900D1124998B888BDD
:1045E0009B8B8A8B452B11F4798A688A5B8E4A8E65
:1045F000088919890115110519F00C151D0508F018
:104600008601E394A19685E0E81611F0680169CF70
:104610000E940C1BE82E992787FD9095FC0125E050
:10462000EE0FFF1F2A95E1F7E80FF91FED50FB4F42
:1046300042854093B00581E29E2D9802900111249D
:104640002D503B4F3093A00520939F05EE2089F01D
:10465000858D968D892B49F0C18DD28DCA3FD105AC
:1046600020F4C017D107F0F019C00B3F1105C0F4BA
:1046700015C00531110590F0C80144978A3F910596
:1046800038F4EC018331910568F4C3E1D0E00AC04D
:104690000F50114028F4C6EED0E004C0E80102C07B
:1046A000CAEFD0E04093A1053093AF052093AE054B
:1046B000C09331040E94872590E001968C179D07D6
:1046C00038F00E948725C82FD0E02296C09331048D
:1046D000EE2011F01092A2058C2F0E948425C101BA
:1046E0006EEE72E00E941E250E9429270E949933D7
:1046F000DF91CF911F910F91FF90EF90DF90CF90BE
:10470000BF90AF909F908F907F906F905F904F90F1
:104710003F902F9008958FEF8093E0058093F305ED
:10472000809306068093190680932C060895E0EE88
:10473000F5E020E030E0422F80818F3F71F483E18B
:1047400090E0289FF001299FF00D389FF00D112473
:10475000E053FA4F81E0808B07C02F5F3F4F739685
:104760002530310541F74FEF842F0895853038F417
:10477000E0EDF5E08089813011F4108A08958FEF23
:104780000895AF92BF92CF92DF92EF92FF920F9374
:104790001F93DF93CF93CDB7DEB728970FB6F8946A
:1047A000DEBF0FBECDBFFB016A015901853008F0A5
:1047B00050C090E023E130E0829F7001839FF00CB5
:1047C000929FF00C112480ED95E0E80EF91ED701C0
:1047D00050968C918F3FE9F180819181A281B381C4
:1047E00089839A83AB83BC8384819581A681B781B9
:1047F0008D839E83AF83B8878E010F5F1F4FC801E3
:104800000E947020F7016083718382839383D58631
:10481000C48617861686C8010E940021C8010E941E
:104820007020D70118966D937D938D939C931B9761
:104830002D913D914D915C91260F371F481F591FB7
:10484000F7012483358346835783B28AA18A81E0A6
:1048500001C08FEF28960FB6F894DEBF0FBECDBF14
:10486000CF91DF911F910F91FF90EF90DF90CF904C
:10487000BF90AF900895EF92FF920F931F93DF9335
:10488000CF93CDB7DEB728970FB6F894DEBF0FBE33
:10489000CDBF082F0E9401137E010894E11CF11C7A
:1048A000C7010E94002110E0C7010E9470209B01F7
:1048B000AC0183E190E0089FF001099FF00D189F83
:1048C000F00D1124E053FA4F208731874287538738
:1048D00084819581A681B781281739074A075B072C
:1048E00070F080819181A281B381820F931FA41FF8
:1048F000B51F84839583A683B783178616860E9487
:10490000031328960FB6F894DEBF0FBECDBFCF912C
:10491000DF911F910F91FF90EF900895CF93DF9358
:10492000482F853010F081E010C090E023E130E0A6
:10493000829FE001839FD00D929FD00D1124C05320
:10494000DA4F88898F3F21F482E00E94231511C03D
:10495000842F0E943B242E853F858C859D852817BA
:1049600039074CF00E940313E989FA89309709F05E
:1049700009958FEF05C02F5F3F4F3F872E8781E05E
:10498000DF91CF910895CF93DF93482F853010F0BA
:1049900081E010C090E023E130E0829FE001839F3E
:1049A000D00D929FD00D1124C053DA4F88898F3FCC
:1049B00029F482E00E94231580E00BC0842F0E941E
:1049C0003B242E853F858C859D8582179307A4F314
:1049D000821BDF91CF9108950000000000000000CD
:1049E0000197D1F7089588E080BF8EEF81BF83E003
:1049F00086BF9BE093BF80B5876080BD1FBC81E010
:104A00008EBD1DBC1CBC80B5816080BD80B5826040
:104A100080BD12BE1092310493BF87B7836087BFF9
:104A20001092060308951EBC089581E08EBD08957E
:104A300080B5816080BD1DBC1CBC0895DF93CF9301
:104A400000D0CDB7DEB7FC018FEFE937F80710F0E3
:104A5000E0E0F0E09F0140E050E0CB01A0E0B0E0FA
:104A6000280F391F4A1F5B1F213080E0380781E083
:104A7000480780E0580768F08CB59DB59A83898314
:104A800089819A81E817F907B8F3205030404140F6
:104A900050408CB59DB59A83898389819A8182170C
:104AA0009307B8F30F900F90CF91DF910895DF93A4
:104AB000CF9300D0CDB7DEB78CB59DB59A838983EF
:104AC00029813A81C9010F900F90CF91DF9108950C
:104AD00082BF089513BE87B78D7F87BF87B78E7F4C
:104AE00087BF08958BE083BF87B7836087BF089532
:104AF00080B5826080BD12BE109206031092310410
:104B0000089581B78F5F0895815081BF089582B75E
:104B100008950F920FB60F921F922F923F924F92CD
:104B20005F926F927F928F929F92AF92BF92CF923D
:104B3000DF92EF92FF920F931F932F933F934F9328
:104B40005F936F937F938F939F93AF93BF93CF9315
:104B5000DF93EF93FF93A091AE05B091AF050DB633
:104B60000D920EB60D921F92A0912E04B0912F04BB
:104B70001E90BEBFADBF0895882319F487B78F7705
:104B800087BF8FEF0895882311F08FEF089514BC2D
:104B900081E00895882319F020E030E003C084B557
:104BA000282F30E0C9010895882311F08FEF089570
:104BB00087B7806887BF81E00895882311F08FEF61
:104BC0000895CB010197059710F46093300488E0B5
:104BD00085BD43BD309304032093030380913004CB
:104BE000813019F485B5816009C0823019F485B52A
:104BF000826004C0833021F485B5836085BD07C021
:104C0000843019F485B58460F9CF853011F081E0E6
:104C1000089585B5856085BD81E008951F920F9246
:104C20000FB60F920BB60F9211242F933F934F9311
:104C30005F936F937F938F939F93AF93BF93EF9304
:104C4000FF93E0910303F0910403309711F009956D
:104C500004C08AE060E00E94FF16FF91EF91BF91CF
:104C6000AF919F918F917F916F915F914F913F9104
:104C70002F910F900BBE0F900FBE0F901F901895A5
:104C80001F920F920FB60F920BB60F9211242F9313
:104C90003F934F935F936F937F938F939F93AF93C4
:104CA000BF93EF93FF938AE060E00E94FF16FF91AD
:104CB000EF91BF91AF919F918F917F916F915F9194
:104CC0004F913F912F910F900BBE0F900FBE0F9001
:104CD0001F90189504B603FE02C090E101C090E059
:104CE00004B602FE06C084B78B7F84BF04B600FE04
:104CF000946004B601FE04C084B78D7F84BF9260C7
:104D0000992351F404B600FE03C084B78E7F84BF9C
:104D100083B7811181E0982F892F08958FEF08952F
:104D20008FEF08958FEF08951F920F920FB60F9295
:104D30000BB60F9211242F933F934F935F936F9372
:104D40007F938F939F93AF93BF93EF93FF938AE0EB
:104D500060E00E94FF16FF91EF91BF91AF919F918C
:104D60008F917F916F915F914F913F912F910F9014
:104D70000BBE0F900FBE0F901F90189504B603FE48
:104D800002C08FEF089581E00895A89508950E94CC
:104D9000011384B7877F84BFA89581B5886181BDE1
:104DA0008FE081BD0E94031308950E940113A8950E
:104DB00084B7877F84BF81B5886181BD11BC0E94A3
:104DC000031308950895FC0176836583089585B7DC
:104DD000837E886185BF85B7806285BF889585B7EA
:104DE0008F7D85BF089585B7837E85BF85B7806237
:104DF00085BF889585B78F7D85BF0895FA0125E524
:104E00002083FB0132979083818312921292129237
:104E10001292129212921292129212921292129272
:104E20001292129212921292129212921292129262
:104E30001292129212921292129212921292129252
:104E40001292129212921292129212921292CF0116
:104E500008958AE093E19093FE108093FF100895E7
:104E600085E580937E10EEEFF0E1F0932F04E09360
:104E70002E048AE093E190838093FF1008950E94AE
:104E8000F3240E9403130895EF92FF920F931F9350
:104E9000CF93DF937C018B01EA014032510518F476
:104EA00081E10E9406172197C00FD11FF701D2831D
:104EB000C18314830383DF91CF911F910F91FF90E2
:104EC000EF9008950F931F93162F042F83708C6219
:104ED0000E942828113011F480E001C080E80E946F
:104EE000EB27802F0E94EB270E94DC271F910F9158
:104EF00008950E94B2270895DF93CF9300D0CDB7D5
:104F0000DEB780E487B986E086B9379A369A369953
:104F1000FECF84B195B19A8389830F900F90CF9182
:104F2000DF9108953798089597B18F71907E892BFE
:104F300087B9369A3699FECF24B135B1C9010895A3
:104F40008EE10E949427A0E0B0E0BC01CD010E9458
:104F5000E23E9B01AC0164EA70E78DE994E40E94B3
:104F60004E3E0895E1E7F0E08081808381E0809308
:104F7000700084E08093740008958091740087FF2E
:104F8000FCCF0895E4E7F0E0808180688083089595
:104F900080917400806280937400809174008068B6
:104FA000809374008091740087FFFCCF809174001F
:104FB0008F7D809374000895809174008061809348
:104FC00074008091740080688093740080917400F4
:104FD00084FDFCCF089580937300809174008068F5
:104FE000809374008091740087FFFCCF80917100E2
:104FF000887F883211F490E007C08091710090E0C2
:10500000887F883109F091E0892F0895892B21F05C
:1050100080917400806403C0809174008F7B8093C2
:105020007400809174008068809374008091740093
:1050300087FFFCCF8091730008951F93182F0E9463
:10504000C827110F812F81600E94EB271F910895BF
:105050001F93182F0E94C827812F880F0E94EB27CB
:105060001F9108950E947C2781E08093F4020895A7
:105070001F93182F8091F402882311F40E94322884
:105080001D981598113019F4A89AA09A02C0A898F2
:10509000A0981F9108958091F402882311F40E9432
:1050A000322881E00E94382881E00E9494270895E8
:1050B000AF92BF92CF92DF92EF92FF920F931F9326
:1050C0000E944B28A0E0B0E0BC01CD010E94E23E6E
:1050D0007B018C0160E070EC8FE794E4A8019701FC
:1050E0000E94E93D20E030E44CE156E40E94B93FE3
:1050F000A80197010E944E3E0E94793F5B016C011E
:1051000020E030E040E450E40E941C407B018C0130
:10511000C601B50129E733EE4DE759E30E94B93FD7
:1051200028EC32E644E85AE30E94EA3D5B016C0158
:10513000C801B7012DE234EC4CE154E30E94B93FC1
:105140009B01AC01C601B5010E94EA3D9B01AC0187
:1051500060E070E080E89FE30E944E3E1F910F9157
:10516000FF90EF90DF90CF90BF90AF9008950E9496
:10517000582823E333E948E853E40E94E93D0895C1
:105180001F93182F8091F402882311F40E94322873
:10519000A898A098113019F41D9A159A02C01D986C
:1051A00015981F9108958091F402882311F40E94AC
:1051B000322881E00E94C02881E00E94942708954F
:1051C0008091F402882311F40E9432280E949227D1
:1051D00008950E947C270E94792781E08093F50240
:1051E00008958091F502882311F40E94E92886E051
:1051F0000E94942708958091F502882311F40E945B
:10520000E92885E00E94942708958091F50288237B
:1052100011F40E94E92884E00E9494270895809167
:10522000F502882311F40E94E92883E00E94942764
:1052300008958091F502882311F40E94E92882E004
:105240000E94942708951F93182F8091F5028823B8
:1052500011F40E94E928112311F4AE9A03C0113011
:1052600009F4AE981F9108951F93182F8091F502AD
:10527000882311F40E94E92881E061E0412F0E9417
:1052800062271F9108951F93182F8091F50288239C
:1052900011F40E94E92880E062E0412F0E94622719
:1052A0001F9108951F93182F8091F502882311F400
:1052B0000E94E92880E061E0412F0E9462271F914F
:1052C00008951F93182F8091F502882311F40E94EE
:1052D000E928113011F4AB9A01C0AB981F910895E1
:1052E0001F93182F8091F502882311F40E94E9285A
:1052F000113011F4AA9A01C0AA981F9108951F9322
:10530000182F8091F502882311F40E94E92880E08B
:105310000E949329113019F4A89AA09A02C0A89863
:10532000A0981F9108951F93182F8091F50288234C
:1053300011F40E94E92880E00E947F29113019F4BD
:105340001D9A159A02C01D9815981F910895809175
:10535000F502882311F40E94E92881E00E94932934
:1053600081E00E94942708958091F502882311F42A
:105370000E94E92881E00E947F2981E00E94942711
:1053800008951F93182F8091F502882311F40E942D
:10539000E928113011F4AD9A01C0AD981F9108951C
:1053A0001F93182F8091F502882311F40E94E92899
:1053B000113011F4AC9A01C0AC981F9108958091FE
:1053C000F502882311F40E94E9280E94922708958B
:1053D00089E993E0FC013197F1F7DC98D49A0197C1
:1053E000F1F7D498DC9ACC9BFECF90E021E308C083
:1053F000822F8A95F1F79F5F9F3111F48FEF089507
:10540000CC99F6CF89E993E00197F1F780E0089510
:10541000882349F4DC98D49A84EC8A95F1F7D498DF
:10542000DC9A81E308C0DC98D49A88E18A95F1F788
:10543000D498DC9A8DED8A95F1F70895DC98D49A8A
:1054400082E08A95F1F7D498DC9A86E18A95F1F7A3
:1054500089B394EC9A95F1F790E08071907024E014
:10546000959587952A95E1F70895FF920F931F93DD
:10547000CF93DF93F82EC0E0D0E001E010E0C80148
:105480000C2E02C0880F991F0A94E2F78F210E9408
:10549000082A2196C830D10591F7DF91CF911F914D
:1054A0000F91FF9008951F93CF93DF9310E0C0E01A
:1054B000D0E00E941E2A90E00C2E02C0880F991F97
:1054C0000A94E2F7182B2196C830D10591F7812F65
:1054D000DF91CF911F9108958FE00E94352A0895A2
:1054E00080B58B7F80BDD498DC9A85EF8A95F1F7E3
:1054F0000895EF92FF920F931F93DF93CF9300D005
:1055000000D0CDB7DEB77C0119821A821B821C82C3
:105510000E94E829882339F0282F332727FD30956A
:10552000432F532F27C00E946C2A0E94532A813098
:1055300019F08EEFF70180838E010F5F1F4F0E94DD
:10554000532A89830E94532AF80181830E94532A97
:10555000F80182830E94532AF80183830E94532A10
:105560000E94532A0E94532AF701108229813A810E
:105570004B815C81B901CA010F900F900F900F9081
:10558000CF91DF911F910F91FF90EF900895AA980E
:10559000959887FF02C0939A01C09398959A959821
:1055A00086FF02C0939A01C09398959A959885FFBB
:1055B00002C0939A01C09398959A959884FF02C06F
:1055C000939A01C09398959A959883FF02C0939AF5
:1055D00001C09398959A959882FF02C0939A01C052
:1055E0009398959A959881FF02C0939A01C09398D9
:1055F000959A959880FF02C0939A01C09398959AC6
:10560000959AAA9A0895DF93CF9300D00F92CDB7C1
:10561000DEB7A89A19821FC0A898898180550E9478
:10562000C72A80E10E94C72A80E00E94C72AA89A60
:105630001B821A8208C080E00E94C72A8A819B814F
:1056400001969B838A838A819B81803891059CF394
:1056500089818F5F898389818830F0F20F900F9064
:105660000F90CF91DF910895C498BC9A85B387605D
:1056700085BB84B3876084BB81B3886281BB939A06
:1056800088E785BB84B3877884BBA898A99888EEFF
:1056900093E028EB30E0F9013197F1F70197D9F762
:1056A000A99A88EE93E028EB30E0F9013197F1F701
:1056B0000197D9F780E40E94C72A81EA0E94C72A8D
:1056C00080EC0E94C72A86EA0E94C72A82EA0E94CA
:1056D000C72A8FE20E94C72A88EF0E94C72A80E06B
:1056E0000E94C72A87E20E94C72A81E80E94C72A2F
:1056F00080E10E94C72A8CEA0E94C72A80E00E94AB
:10570000C72A8FEA0E94C72A0E94032B089581307E
:1057100011F4C49A0895C4980895FF920F931F93AB
:10572000CF93DF93082FF92E162F842FA89880553A
:105730000E94C72A812F82958F7080610E94C72A9C
:10574000812F8F700E94C72AA89A202F3F2DC90150
:10575000EC0185E0F82E17C000E010E0E881EF9D35
:10576000F0011124E00FF11FE45DFB4FE4918E2F57
:105770000E94C72A0F5F1F4F0530110579F780E09F
:105780000E94C72A21968881882331F7DF91CF9123
:105790001F910F91FF90089580E00E94CC0F882305
:1057A00019F42FEF3FEF08C080913C0690913D0621
:1057B0000E942643282F30E0C901089560913E06DB
:1057C00070913F0690E00E94684308951F93DF9315
:1057D000CF9300D000D0CDB7DEB7182F80E492E48D
:1057E000AFE0B0E089839A83AB83BC8360913E06CF
:1057F00070913F0682E190E00E94684360913E060E
:1058000070913F0683E090E00E94684360913E06FD
:1058100070913F0681E490E00E94684360913E06EB
:1058200070913F0684E490E00E94684360913E06D8
:1058300070913F06812F90E00E94684360913E0680
:1058400070913F06812F865690E00E9468430E9427
:10585000CC2B29813A814B815C81215030404040E2
:10586000504029833A834B835C83863051F0898191
:105870009A81AB81BC810097A105B10541F78FEFFB
:1058800001C080E00F900F900F900F90CF91DF91AB
:105890001F9108951F93DF93CF9300D000D0CDB711
:1058A000DEB7182F80E492E4AFE0B0E089839A83FA
:1058B000AB83BC8360913E0670913F0682E190E02D
:1058C0000E94684360913E0670913F0683E090E03D
:1058D0000E94684360913E0670913F0681E490E02B
:1058E0000E94684360913E0670913F0683E590E018
:1058F0000E94684360913E0670913F06812F90E0C0
:105900000E94684360913E0670913F06812F875543
:1059100090E00E9468430E94CC2B29813A814B8100
:105920005C81215030404040504029833A834B8372
:105930005C83863051F089819A81AB81BC8100976C
:10594000A105B10541F78FEF01C080E00F900F90E6
:105950000F900F90CF91DF911F910895EF92FF92DA
:105960000F931F93DF93CF9300D000D0CDB7DEB756
:10597000182FF92E80E492E4AFE0B0E089839A8397
:10598000AB83BC8360913E0670913F0682E190E05C
:105990000E94684360913E0670913F0681E090E06E
:1059A0000E94684360913E0670913F0682E590E058
:1059B0000E94684360913E0670913F0685E690E044
:1059C0000E9468430E94CC2B29813A814B815C81E3
:1059D000215030404040504029833A834B835C83C0
:1059E000863051F089819A81AB81BC810097A105F5
:1059F000B10541F78FEF27C00E94CC2B2FEF8F3FCF
:105A00009207D1F34197F1F40E94CC2BEFEF8F3F37
:105A10009E07D1F3082F812F9F2D9C01790110E063
:105A20000AC00E94CC2BFFEF8F3F9F07D1F3F701F5
:105A300081937F011F5F1017A0F30E94CC2B8F5F13
:105A40009F4FD9F380E00F900F900F900F90CF9160
:105A5000DF911F910F91FF90EF900895AF92BF9249
:105A6000CF92DF92EF92FF920F931F93DF93CF932A
:105A700000D000D0CDB7DEB77C016B015A0180E4C5
:105A800092E4AFE0B0E089839A83AB83BC836091FA
:105A90003E0670913F0682E190E00E94684360916B
:105AA0003E0670913F0681E090E00E94684360915D
:105AB0003E0670913F0680E590E00E946843609149
:105AC0003E0670913F0683E690E00E9468430E9484
:105AD000CC2B29813A814B815C8121503040404060
